:020000040800F2
:10000000B0110020DD010008730D00084F0D00083D
:10001000710D0008490200085D0F00080000000093
:100020000000000000000000000000004501000882
:100030004B0200080000000089010008C90D0008FB
:10004000F7010008F7010008F7010008F7010008B0
:10005000F7010008F7010008F7010008F7010008A0
:10006000F7010008F7010008F7010008F701000890
:10007000F7010008F7010008F7010008F701000880
:10008000F7010008F7010008F7010008F701000870
:10009000F7010008F7010008F7010008F701000860
:1000A000F70100087D0E0008F7010008F7010008BD
:1000B000F7010008F7010008F7010008F701000840
:1000C000F7010008F7010008F7010008F701000830
:1000D000F7010008F7010008F7010008F701000820
:1000E000F7010008F7010008F7010008F701000810
:1000F000F7010008F7010008F7010008F701000800
:10010000F7010008F7010008F7010008F7010008EF
:10011000F7010008F7010008F7010008F7010008DF
:10012000F7010008F7010008F7010008F7010008CF
:10013000DFF80CD000F076F8004800477D0F00088B
:10014000B0110020224B19680868B0E8F00F80F366
:100150000988BFF36F8F4FF0000080F311884EF0D5
:100160000D0E70470000000006480068006880F32C
:10017000088862B661B6BFF34F8FBFF36F8F00DFA1
:1001800000BF00BF08ED00E0EFF30980BFF36F8F01
:100190000F4B1A6820E9F00F106008B54FF05000BF
:1001A00080F31188BFF34F8FBFF36F8F01F090FA88
:1001B0004FF0000080F31188BDE808401968086816
:1001C000B0E8F00F80F30988BFF36F8F704700BF6E
:1001D0003C000020EFF30580704700000648804790
:1001E00006480047FEE7FEE7FEE7FEE7FEE7FEE71C
:1001F000FEE7FEE7FEE7FEE7350E000831010008E6
:1002000040EA01039B0703D009E008C9121F08C098
:10021000042AFAD203E011F8013B00F8013B521E18
:10022000F9D27047064C074D06E0E06840F0010344
:1002300094E8070098471034AC42F6D3FFF77CFFF0
:10024000541A0008741A0008FEE770472DE9F84FA9
:10025000DFF8B8A100220AF1040B144601274FF081
:100260000F090BF1040E00BF0B6807FA04F52B40D1
:10027000AB4274D1DFF898C14E68A6EB0C08664516
:100280002BD00DDC032E34D005DC36B3012E19D073
:10029000022E2FD11BE0112E16D0122E2AD119E0DA
:1002A000B8F5881F19D006DCB8F5803F15D0B8F531
:1002B000801F1FD111E0B8F5001F0ED0B8F5041F44
:1002C00018D10AE0CA6815E0CA68121D12E0CA68AF
:1002D00008320FE0CA680C320CE08A682AB1012AA1
:1002E0004FF0080203D0456104E0042202E00561FA
:1002F00000E00022FF2B01D8064601E000F10406D1
:100300004FEA840501D9A5F12005D6F800C009FA05
:1003100005F82CEA080C02FA05F54CEA050CC6F8BB
:1003200000C04D68ED006AD53A4DAE6946F0010651
:10033000AE61AD6924F0030605F001050095364D68
:1003400006EB050CDCF80850A6074FEA167809FA08
:1003500008F6B543314EB04202D100261AE04EE015
:100360002F4EB04201D1012614E02E4EB04201D1F1
:1003700002260FE02C4EB04201D103260AE02B4E9C
:10038000B04201D1042605E0294EB04201D1052634
:1003900000E0062606FA08F62E43CCF808604D6801
:1003A000DAF80060ED03554601D51E4300E09E4398
:1003B0002E604D68AD0305D5DBF800601E43CBF819
:1003C000006004E0DBF800509D43CBF800504D681E
:1003D000DEF80060ED02754601D51E4300E09E4345
:1003E0002E604D68AD0205D5084D0C352E681E43B4
:1003F0002E6004E0054E0C3635689D433560641C64
:10040000102CFFF431AFBDE8F88F0000000401406C
:1004100000001110001002400000014000080140DF
:10042000000C014000100140001401400018014080
:10043000001C01400AB1016170470904FBE700009C
:100440000148806870470000000000200248816871
:10045000027811448160704700000020074810B501
:10046000016841F010010160032000F0AFF80020A6
:1004700000F006F800F03EF8002010BD0020024019
:1004800000B5014687B00022192000F07FF819203E
:1004900000F070F81348816941F40061816180695E
:1004A00005A900F400600690684600F057F900F0D6
:1004B0007BF90D490D4AB0FBF1F10D48491E026070
:1004C000416040F2E7320021C0E90321816000F081
:1004D00055FB10B1012007B000BD054800F06AFBD4
:1004E000F9E700000010024040420F00002C0140DC
:1004F0007C0000201D4808B5816941F0010181613F
:10050000806900F001000090032000F05FF80022F5
:1005100011466FF00B0000F039F8002211466FF021
:100520000A0000F033F8002211466FF0090000F0D5
:100530002DF800221146501F00F028F80022114625
:10054000101F00F023F800220F21901E00F01EF86B
:1005500000220F21501E00F019F80548416821F0D3
:10056000E06141F00071416008BD000000100240F0
:100570000000014000F01F0201219140400980006D
:1005800000F1E020C0F8001170470000F0B40E4BFD
:100590001B680C46C3F30223C3F10705042D00D9E1
:1005A0000425191D072901D2002300E0DB1E0126C6
:1005B00006FA05F1491E214099409E40761E1640DC
:1005C0003143F0BC00F0D6BB0CED00E0064900F072
:1005D000070208684FF6FF03184040EA0220034A6A
:1005E00010430860704700000CED00E00000FA05C1
:1005F0002DE9F047DFF8548105460E46D8F8000093
:1006000000F00700B0420CD2D8F8001021F007012A
:100610003143C8F80010D8F8000000F00700B042DD
:100620006FD128684A4C810712D5400703D560680E
:1006300040F4E06060602878000703D5606840F40B
:10064000605060606068A96820F0F0000843606056
:100650002878C00744D06868012816D0216802288D
:1006600016D0890700294CDA616821F003010143A3
:100670006160FFF7E5FE6968074641F288300129AD
:100680000ED00229814618D026E021688903E9E7C7
:100690008901E7E7FFF7D4FEC11B494501D918E0FE
:1006A00081466068C0F381000128F3D118E000BFE3
:1006B000FFF7C6FEC11B49450BD86068C0F3810037
:1006C0000228F5D10CE000BFFFF7BAFEC11B494577
:1006D00002D90320BDE8F087606810F00C0FF3D159
:1006E000D8F80010404601F00701B1420BD901686B
:1006F00021F0070131430160006800F00700B042BB
:1007000001D00120E6E72878400705D56068E96850
:1007100020F4E060084360602878000706D5606830
:10072000296920F4605040EAC100606000F04CF894
:100730006168084AC1F30311515CC840064908606A
:100740000020FFF79DFE0020C4E7000000200240CB
:1007500000100240241A0008780000200F220260D6
:100760000C4A536803F003034360536803F0F0033B
:100770008360536803F4E063C36052684FF4E0633E
:1007800003EAD20202610448006800F00700086032
:10079000704700000010024000200240014800683D
:1007A0007047000078000020044805490068496847
:1007B000044AC1F3C221515CC84070477800002050
:1007C00000100240341A000812A185B00FC98DE84C
:1007D0000F0014A0144A006804905168134801F0F7
:1007E0000C03042B10D0082B0ED1C1F38343C90393
:1007F0001DF803000AD5516804AAC1F34041515CB9
:100800000A4A5043B0FBF1F005B07047084948432D
:10081000FAE7000002030405060708090A0B0C0D9D
:100820000E0F1010010200000010024000127A00AA
:1008300000093D002DE9F84F04460078B94DC00786
:1008400048D06868C0F38100012807D06868C0F309
:100850008100022809D16868C00306D52868800392
:1008600038D5606800286FD034E06068B0F5803F0C
:100870000BD010B1B0F5A02F11D0286820F4803033
:100880002860286820F4802002E0286840F4803046
:100890002860606888B1FFF7D3FD064609E0286844
:1008A00040F480202860F0E7FFF7CAFD801B642831
:1008B00075D828688003F7D50CE0FFF7C1FD064620
:1008C00005E000BFFFF7BCFD801B6428F0D8286856
:1008D0008003F7D42078944E80074FF001094FF041
:1008E00000083BD5686810F00C0F07D06868C0F3AB
:1008F0008100022809D16868C00306D428688007EF
:1009000014D5206901281FD110E02069B0B1C6F8C4
:100910000090FFF795FD074605E000BFFFF790FD4B
:10092000C01B0228C4D828688007F7D528686169E9
:1009300020F0F80040EAC10028600FE0C6F800800F
:10094000FFF77EFD074606E0E9E000BFFFF778FD10
:10095000C01B022823D828688007F7D42078000716
:100960002CD57248A169D9B1C0F80090FFF768FD95
:10097000074604E0FFF764FDC01B02280FD8686A31
:100980008007F7D56A484FF4FA510068B0FBF1F0E0
:10099000009000BF0098411E0091FAD20EE080E066
:1009A000C0F80080FFF74CFD074604E0FFF748FD64
:1009B000C01B022875D8686A8007F7D420784007E2
:1009C00060D5E8690027C00008D4E86940F080508D
:1009D000E861E869012700F08050009055480168FF
:1009E000C90513D40168834641F480710160FFF7A3
:1009F00027FD824606E000BFFFF722FDA0EB0A00BC
:100A000064284ED8DBF80000C005F5D5E068012861
:100A10000AD008B1052813D0286A20F00100286206
:100A2000286A20F0040002E0286A40F001002862F1
:100A3000E06841F2883B98B1FFF702FD82460BE087
:100A4000286A40F004002862EEE700BFFFF7F8FCD8
:100A5000A0EB0A0159455AD8286A8007F6D50CE060
:100A6000FFF7EEFC824605E0FFF7EAFCA0EB0A0187
:100A700059454CD8286A8007F6D41FB1E86920F0A0
:100A80008050E861E06988B36968C1F38101022997
:100A900045D00228C6F8608004D0FFF7D1FC044698
:100AA00038E034E0FFF7CCFC074604E0FFF7C8FC71
:100AB000C01B02282BD828688001F7D4206AB0F523
:100AC000803F05D16868A16820F400300843686061
:100AD000D4E908010843696821F474110843686087
:100AE000C6F86090FFF7ACFC044606E015E000BFD6
:100AF000FFF7A6FC001B022809D828688001F7D55B
:100B00000BE000BFFFF79CFC001B022802D903206A
:100B1000BDE8F88F28688001F4D40020F8E70120B0
:100B2000F6E700000010024000004242800442420A
:100B300078000020007000404FF0E0210428086990
:100B400003D020F004000861704740F00400FAE789
:100B500010B5401EB0F1807F01D3012010BD4FF0D1
:100B6000E02460610F21601700F004F90020A0610B
:100B700007202061002010BD7047704710B50400A9
:100B800003D094F83D0010B107E0012010BD002013
:100B900084F83C00204600F00CF8022084F83D0068
:100BA000211D206800F070F9012084F83D0000202C
:100BB00010BD70470168CA6842F00102CA6000684F
:100BC000016841F00101016000207047704770B575
:100BD0000446006801694FF00005C943890715D430
:100BE000C168C943890711D4E91E0161012020773A
:100BF000206880698007204602D0FFF7E7FF04E005
:100C000000F098F8204600F096F8257720680169F2
:100C1000C943490717D4C168C943490713D46FF0C2
:100C200004010161022020772068806910F4407F70
:100C3000204602D0FFF7CAFF04E000F07BF8204610
:100C400000F079F8257720680169C943090716D4AF
:100C5000C168C943090712D46FF00801016104207B
:100C600020772068C0698007204602D0FFF7AEFFDA
:100C700004E000F05FF8204600F05DF8257720687A
:100C80000169C943C90617D4C168C943C90613D449
:100C90006FF010010161082020772068C06910F40E
:100CA000407F204602D0FFF791FF04E000F042F8B9
:100CB000204600F040F8257720680169C943C9073C
:100CC00008D1C168C943C90704D1891E0161204602
:100CD00000F032F820680169C943090609D4C168E7
:100CE000C943090605D46FF0800101612046FFF772
:100CF00043FF20680169C943490609D4C168C94353
:100D0000490605D46FF040010161204600F01EF84D
:100D100020680169C94389060BD4C168C9438906A3
:100D200007D46FF0200101612046BDE87040FFF755
:100D300024BF70BD7047704700680349884201D1E5
:100D4000FFF784BB70470000002C01407047FEE7AE
:100D500010B5064C012211022046FFF76BFB20461E
:100D60000122BDE810405102FFF764BB001C0140A6
:100D7000FEE770470907090E002806DA00F00F00A9
:100D800000F1E02080F8141D704700F1E02080F8A9
:100D900000147047012000F039F9FBE7094C4FF4CB
:100DA0008075012229462046FFF744FBFA2000F017
:100DB0002DFC002229462046FFF73CFBFA2000F0DC
:100DC00025FCEEE7001C014000F02CB930B58FB0D7
:100DD00001210804CDE900100024029402250491A9
:100DE000CDE907504FF4E01009906846FFF722FD67
:100DF00000B1FEE70F20CDE90A054FF48060CDE990
:100E00000C4002210AA80E94FFF7F2FB00B1FEE7A6
:100E1000FFF7C4FC4FF47A71B0FBF1F0FFF798FED6
:100E20000420FFF789FE00220F21501EFFF7AEFBC2
:100E30000FB030BD0D48016841F00101016041680B
:100E40000B4A1140416001680A4A11400160016883
:100E500021F480210160416821F4FE0141604FF4DA
:100E60001F0181600449C003086070470010024000
:100E70000000FFF8FFFFF6FE08ED00E00148FFF775
:100E8000A6BE00007C000020F0B502681C4B1D4D82
:100E90001D4E1E4F1E4C4FF0804C984209D0A04270
:100EA00007D0604505D0A84203D0B04201D0B84277
:100EB00004D122F0700E4A6842EA0E02984209D02C
:100EC000A04207D0604505D0A84203D0B04201D06F
:100ED000B84203D122F44075CA682A4322F0800543
:100EE0004A692A4302608A68C2620A68826298423A
:100EF00001D0A04201D10969016301214161F0BD26
:100F0000002C01400004004000080040000C00409C
:100F10000034014000B587B014220B4902A8FFF746
:100F20006FF9002102A800F087F808490023802209
:100F3000086048680221CDE9001005A1064800F0CC
:100F40005DFC07B000BD0000101A00081000002072
:100F50004C454432000000002D170008FEE702E077
:100F600008C8121F08C1002AFAD170477047002034
:100F700001E001C1121F002AFBD170478AB0FFF7C0
:100F80006DFAFFF723FF1A48816941F08001816102
:100F9000816901F080010991816941F00401816159
:100FA0008069144D00F004004FF440740990002251
:100FB00021462846FFF73EFA0120CDE905400220F0
:100FC000089005A92846FFF741F9FFF7C1FE142252
:100FD00009496846FFF714F90021684600F02CF82B
:100FE00006490860FFF796FF00F017F8FEE70000DB
:100FF00000100240001C0140FC1900080C000020F9
:1010000001460020842900D0C81C704710B500B9E3
:10101000012000F0FBFA002010BD10B500F01CFB11
:10102000002010BD10B500F015FC012803D0BDE86C
:10103000104000F0CDBB10BD3EB504460D46B0F9E2
:101040000800FFF7DDFF02A9CDE90001208A2B4649
:1010500082B2D4E9001000F0D1FB012801D00020B9
:101060003EBD02983EBD00002DE9F041184C0F46F0
:101070000546E6682068001D00F012FA38B92068BD
:1010800090F82C1001208840216981432161681C5F
:1010900007D137B12168BDE8F0410E48091D00F0C5
:1010A00037BA20683544B5424560216805D2A06B47
:1010B000BDE8F041091D00F013BA606B091D00F096
:1010C0000FFAA06A854200D2A562BDE8F081000057
:1010D0003C000020980D00202DE9F041054600F06D
:1010E00023FA2E4CA068401CA06020682C4F10B141
:1010F000606940B32DE02560A068012829D1002651
:1011000006EB860007EB800000F0DCF9761C072E6A
:10111000F6D323488C3000F0D5F92148A03000F0F8
:10112000D1F91F48B43000F0CDF91D48C83000F0A7
:10113000C9F91B48DC3000F0C5F919488C306063F0
:101140001430A06305E02068E96AC06A884200D8CC
:101150002560606A401C6062E96A0120226988405B
:101160001043206101EB810007EB8000291D00F096
:10117000CFF900F0F9F9606900280CD02068E96A1D
:10118000C06A884207D207494FF080500860BFF319
:101190004F8FBFF36F8FBDE8F08100003C0000204F
:1011A000BC0C002004ED00E070B5114E114C17E0AE
:1011B00000F086FA3068B8B100F0BEFB00F0B4F978
:1011C000F068C568281D00F06BF9A068401EA0609B
:1011D0006068401E606000F0C7F9284600F00CF817
:1011E00060680028E4D170BD00F0A6FBF8E70000BD
:1011F000840D00203C00002010B50446006B00F078
:10120000C7F92046BDE8104000F0C2B910484FF4BD
:101210004061420706D0C01D0D4920F00700411A69
:10122000C1F540610B4A00230144C2E900030839BB
:10123000103A21F0070111604B600B600B1AC0E9F6
:10124000001393604FF000405360D060704700007F
:10125000BC00002034000020074C4FF08056074DA2
:10126000FFF7A2FF20680128FAD92E60BFF34F8F45
:10127000BFF36F8FF4E70000BC0C002004ED00E02A
:101280002DE9F0479A46DDE9098481466FF00303B2
:10129000206B03EB82021044089D20F007067007C4
:1012A00007D0502080F31188BFF34F8FBFF36F8FAB
:1012B000FEE723180A5C83F834200A5C12B1401C54
:1012C0001028F6D3002784F84370072D00D3062595
:1012D000E562C4E91157201D00F0FFF804F1180081
:1012E00000F0FBF82461C5F107006462A061E764C7
:1012F00084F8507052464946304600F0BFF82060EE
:10130000B8F1000F01D0C8F80040BDE8F087000038
:1013100030B5114900E011460A688242FBD34B68A0
:101320005C18844203D1406818444860084643680A
:101330001C18944209D1084C103C2468A24209D0E0
:1013400052681A4442600A6812680260814200D002
:10135000086030BD0460F9E7340000200648416BA6
:10136000096829B1416BC968C968496881627047D9
:101370004FF0FF31FAE700003C00002008484068C9
:10138000401C4FF0500080F3118804D0BFF34F8F02
:10139000BFF36F8FFEE7BFF34F8FBFF36F8FFEE793
:1013A000180000202DE9F0410546002700F088F9DB
:1013B000314E306808B9FFF729FFF06805424BD17C
:1013C000C5B3083568070ED005F00700C0F1080066
:1013D0000544680707D0502080F31188BFF34F8F72
:1013E000BFF36F8FFEE72DB37068854234D8224873
:1013F000103001460C6801E020460C466168A942A5
:1014000002D221680029F7D131688C4224D00768C4
:101410002168016060680837411B10290FD96019E5
:10142000420708D0502080F31188BFF34F8FBFF3DD
:101430006F8FFEE710E041606560FFF769FF61684C
:101440007068401A7060B268904200D2B060F06874
:1014500001430020C4E9000100F06EFA780707D0CC
:10146000502080F31188BFF34F8FBFF36F8FFEE7DB
:101470003846BDE8F08100002400002010B5031FAD
:101480004FF080741C601B1F21F001011960191FAF
:10149000024B0B60143940380A6010BD7D13000800
:1014A000D0E9013201699A60D0E901235A604A68A3
:1014B000824201D182684A60002202610868401EAF
:1014C0000860704700F108014FF0FF32C0E90112D7
:1014D000C160016100210160704700210161704716
:1014E00030B50B685A1C02D000F1080202E0026914
:1014F00004E02246546825689D42FAD953684B603F
:1015000099608A60516008610168491C016030BDC2
:1015100042684A6093688B60936859609160086183
:101520000168491C01607047502080F31188BFF3A7
:101530004F8FBFF36F8F0A494868401C48600128ED
:101540000CD10848006810F0FF0F07D0502080F33E
:101550001188BFF34F8FBFF36F8FFEE77047000016
:101560001800002004ED00E00849486828B1401E3A
:10157000486001D180F311887047502080F31188B2
:10158000BFF34F8FBFF36F8FFEE7000018000020FE
:1015900070B5002827D0144DA0F108046168E868F0
:1015A000014207D1502080F31188BFF34F8FBFF362
:1015B0006F8FFEE722683AB1502080F31188BFF3A5
:1015C0004F8FBFF36F8FFEE78143616000F078F8C3
:1015D00060686968084468602046FFF799FEBDE8C6
:1015E000704000F0A9B970BD2400002006484FF4F7
:1015F0007A710068B0FBF1F14FF0E020491E4161C3
:1016000007210161704700007800002010B502003A
:1016100014D00F48006B38B1502080F31188BFF30D
:101620004F8FBFF36F8FFEE700F04AF8002110469E
:10163000FFF71AFD00F080F9002807D105494FF0A7
:1016400080500860BFF34F8FBFF36F8F10BD000055
:101650003C00002004ED00E01CB515480024CDE955
:1016600000402346802213A1144800F0C7F8012847
:1016700009D0401C1AD1502080F31188BFF34F8F3E
:10168000BFF36F8FFEE7502080F31188BFF34F8FB9
:10169000BFF36F8F06484FF0FF312C388162012174
:1016A0004161C460BDE81C4000F058B81CBD00009A
:1016B0006800002049444C45000000005912000811
:1016C0000248016B491C0163704700003C00002088
:1016D0001448016B11B10121C16170470021C16142
:1016E0000169B1FA81F1C1F11F0101EB81020E49DB
:1016F00051F822306BB101EB820101F108034A6815
:1017000052684A609A4201D152684A60D1680160C9
:101710007047502080F31188BFF34F8FBFF36F8F56
:10172000FEE700003C000020BC0C00200A4C4FF4F7
:1017300000764FF47A75002231462046FEF77AFE95
:101740002846FFF763FF012231462046FEF772FE6E
:101750002846FFF75BFFEEE7001C01401CB5194966
:1017600008780190FF20087008788DF800009DF837
:101770000000154A00F0500010700720906005E04E
:101780009DF800305B008DF80030401E9DF8003061
:101790001B06F5D4000200F4E06090600198087028
:1017A0000A48016841F470010160016841F070412C
:1017B0000160FFF71BFF00205060FEF7D5FC002002
:1017C0001CBD000000E400E01800002020ED00E057
:1017D00010B5502080F31188BFF34F8FBFF36F8F88
:1017E00000F046F818B104494FF08050086000201E
:1017F00080F3118810BD000004ED00E02DE9FF5FCB
:101800008346DDE90E87994616468A469000FFF723
:10181000C9FD05001AD05420FFF7C4FD040012D002
:1018200025630021CDE90241CDE900874B463246D0
:1018300051465846FFF724FD2046FFF74DFC012096
:1018400004B0BDE8F09F2846FFF7A2FE4FF0FF303E
:10185000F6E700000548416919B1006B18B1002096
:101860007047012070470220704700003C000020B4
:101870002DE9F0412E4C0027206B40B1A069401C9F
:10188000A061E06900B101273846BDE8F081E66853
:10189000761CE66013D1606B006838B1502080F38D
:1018A0001188BFF34F8FBFF36F8FFEE7606BA16BA3
:1018B0006163A063206A401C2062FFF74FFDA06AAD
:1018C000DFF87080864209D3606B006880B1606B7E
:1018D000C068C568686886420DD2A0622068C06A88
:1018E00000EB800158F821000128CAD90127C8E778
:1018F0004FF0FF30F1E7281DFFF7D2FDA86A18B1BD
:1019000005F11800FFF7CCFDE86A0121226981404A
:101910001143216100EB800108EB8100291DFFF7D5
:10192000F7FDE86A2168C96A8842CDD30127CBE771
:101930003C000020BC0C00202DE9F0472C4D002479
:101940002746286B38B1FFF7EFFD286B401E286350
:10195000286B40B146E0502080F31188BFF34F8FD1
:10196000BFF36F8FFEE7A968224E0120D1B3A6F125
:10197000B40980463068E8B1F068C46804F1180022
:10198000FFF78EFD201DFFF78BFDE06A2A6908FA3C
:1019900000F11143296100EB800109EB8100211D59
:1019A000FFF7B6FDE06A2968C96A8842E2D3C5F844
:1019B0001C80DFE70CB1FFF7D1FCAC6944B14646AF
:1019C000FFF756FF00B1EE61641EF9D10020A86157
:1019D000E86938B10849012738070860BFF34F8F1D
:1019E000BFF36F8FFFF7C0FD3846BDE8F0870000FA
:1019F0003C000020700D002004ED00E03C1A0008BF
:101A0000950D0008000000000000000080000000AC
:101A1000481A00089D0D00080000000000000000AA
:101A2000800000000000000000000000010203042C
:101A300006070809000000000102030464656661EE
:101A4000756C745461736B005461736B5F4C6564A7
:101A500031000000741A0008000000207C00000023
:101A60005E0F0008F01A00087C000020341100000E
:101A70006E0F0008010000001000000000000000D0
:101A80000000000000000000000000000000000056
:101A9000AAAAAAAA0000000000000000000000009E
:101AA0000000000000000000000000000000000036
:101AB0000000000000000000000000000000000026
:101AC0000000000000000000000000000000000016
:101AD0000000000000000000000000000000000006
:101AE00000000000000000000000000000A24A0406
:0400000508000131BD
:00000001FF
