:020000040800F2
:1000000050090020AD020008772700089525000858
:1000100075270008DD0300087B3C00080000000095
:10002000000000000000000000000000BD290008E2
:10003000DF0300080000000079270008BF2900083E
:10004000C7020008C7020008C7020008C70200086C
:10005000C7020008C7020008C7020008C70200085C
:10006000C7020008C7020008C7020008C70200084C
:10007000C7020008C7020008C7020008C70200083C
:10008000C7020008C7020008C7020008C70200082C
:10009000C7020008C7020008C7020008C70200081C
:1000A000C7020008C7020008C7020008C70200080C
:1000B000C7020008C7020008C7020008C7020008FC
:1000C000C7020008C7020008C7020008C7020008EC
:1000D000C7020008C7020008C7020008C7020008DC
:1000E000C7020008C702000800000000C70200089D
:1000F000C7020008C7020008C7020008C7020008BC
:10010000C7020008C7020008C7020008C7020008AB
:10011000C7020008C7020008C7020008C70200089B
:10012000C7020008C7020008C7020008C70200088B
:10013000C7020008C7020008C7020008C70200087B
:1001400000000000000000000000000000000000AF
:10015000C7020008C7020008C7020008C70200085B
:10016000C7020008C7020008C7020008C70200084B
:10017000C7020008C7020008C7020008000000000C
:10018000C7020008C7020008C7020008C70200082B
:10019000C7020008C7020008C7020008C70200081B
:1001A000C7020008C7020008C7020008C70200080B
:1001B000C7020008C7020008C7020008C7020008FB
:1001C000C7020008C7020008C7020008C7020008EB
:1001D000C7020008C7020008C7020008C7020008DB
:1001E000C7020008C7020008C7020008C7020008CB
:1001F000C7020008C7020008C7020008C7020008BB
:10020000C7020008C7020008C7020008C7020008AA
:10021000C7020008C7020008C7020008C70200089A
:10022000C7020008C7020008C7020008000000005B
:10023000C7020008C702000800000000C70200084B
:10024000C7020008C7020008C7020008C70200086A
:10025000C7020008C7020008C7020008C70200085A
:10026000C7020008C7020008C7020008C70200084A
:10027000C7020008C7020008C7020008000000000B
:10028000C7020008C7020008C702000800000000FB
:1002900000000000C7020008DFF80CD000F08CF866
:1002A00000480047193D00085009002006488047D3
:1002B00006480047FEE7FEE7FEE7FEE7FEE7FEE74B
:1002C000FEE7FEE7FEE7FEE7792A0008990200084C
:1002D0002DE9F05F0546002092469B46884606467B
:1002E000814640241BE0284641464746224600F00E
:1002F00053F853465A46C01A914110D31146184636
:10030000224600F03AF82D1A67EB01084F462246C4
:100310000120002100F031F817EB00094E41201EAA
:10032000A4F10104DFDC484631462A464346BDE8D5
:10033000F09F40EA01039B0703D009E008C9121FA0
:1003400008C0042AFAD203E011F8013B00F8013B8F
:10035000521EF9D27047D2B201E000F8012B491EBB
:10036000FBD270470022F6E710B513460A46044652
:100370001946FFF7F0FF204610BD202A04DB203A83
:1003800000FA02F1002070479140C2F1200320FAE8
:1003900003F3194390407047202A04DB203A21FAE6
:1003A00002F00021704721FA02F3D040C2F120028E
:1003B0009140084319467047064C074D06E0E06837
:1003C00040F0010394E8070098471034AC42F6D39C
:1003D000FFF766FF603D0008803D0008FEE77047BC
:1003E00070B5A2B0064600244FF4C36001258DF815
:1003F0000F5002238DF81D4069038DF80E500994AB
:100400008DF81F400D9020208DF804508DF832504B
:1004100042028DF8605006914FF040518DF83840FF
:1004200002948DF861408DF81C408DF828408DF8BD
:1004300062408DF80C400B948DF81E500F948DF88F
:10044000115012948DF840408DF831408DF81240D3
:1004500014948DF856401790304616938DF820501E
:1004600005928DF854408DF830408DF81050009171
:1004700069468DF80D408DF8554011948DF84C501B
:1004800000F074F81B9568058DF871404FF4067103
:100490008DF8685019948DF880408DF870401F9049
:1004A0008DF878401D9030468DF88140219119A932
:1004B00000F002F822B070BDF0B5026847F6020EF7
:1004C000274E4DF2010702F58052264DD1F800C0AB
:1004D0001368254C23EA0E0343EA0C0313600B79DF
:1004E000026891F80CE002F58052D1F808C01B03B5
:1004F00043EACE3343EA0C03D2F804C02CEA070CDB
:100500004CEA030CC2F804C002684F7B02F580522B
:100510000B6A43EA0747D2F8003133403B43C2F845
:10052000003102680B7D02F5805291F81DC00F6901
:10053000D2F804611B0143EA0C332E403B431E43B7
:10054000C2F8046100680B7F00F580508A69D0F81A
:10055000081142EAC37221401143C0F80811F0BDEE
:1005600000C0FEFFEFEFC0FFFFFFC07FF0B50B79CB
:100570000C7B0F688A68DB064D7B43EAC4533A4321
:100580008E7B1A43CF7B91F810C042EA855242EA33
:100590004652BCF1000F42EA07537CD000224C7C4B
:1005A000002C43EAC24278D000238E7C0D7F42EAC1
:1005B00043428F7FD1E9053442EA06424E7F1A4317
:1005C000224342EA0532002F42EAC62466D00022C6
:1005D000CD7F91F8203044EA8222002B42EA452266
:1005E0007ED0002504684B6A42EA052291F8287003
:1005F000464D1A43CE6A236842EA071232432B4023
:100600001343236091F83C2091F8383091F8305032
:1006100091F83140520642EA036291F8326042EAB0
:10062000854242EA4444BEB300220368384E4F6B11
:1006300044EA02425C683A4340F20F1534401443E6
:100640005C60036891F840604C6CDA6844EA062408
:10065000AA432243DA6091F854300A6D91F84C4075
:1006600042EA4302ECB300240368B1F848504FF665
:100670000D76E7011C6F47EA05452A4334401443D1
:100680001C67026891F8563091F8555052F8904F17
:1006900043EA450303E02BE032E02BE02CE024F0BA
:1006A00003041C43146002688C6DD2F8003D23F0F3
:1006B00072032343C2F8003D91F86020CC6D1AB359
:1006C0005FF00003026891F8615091F8621044EA0B
:1006D0008310D2F8303D2C0144EAC101084301E007
:1006E0000CE00FE023F07B010143C2F8301DF0BDA8
:1006F000012254E7012358E7012269E7012571E748
:10070000012292E70124AFE70123DBE783800400A5
:100710000080F8C070B5044600F09AFA0546601CE7
:1007200002D004480078044400F092FA401BA04232
:10073000FAD370BD00000020F8B5040002D0606D4F
:1007400010B104E00120F8BD204600F0F7F82320A6
:1007500060657048016841F002010160006800F0C6
:1007600002000090207A08B14FF4000001F020FE52
:10077000206800F58050016841F00101016000F03F
:1007800067FAE02605464FF4FA7706E000F060FAD3
:10079000401BB84201D9042049E0206800F5805090
:1007A0000068C007F2D12068D0F8000220F470651C
:1007B00001F0CCFA584A594902448A4202D245F41F
:1007C000007516E0564A574902448A4202D245F45F
:1007D00040750EE05449554A0144914209D35449A9
:1007E000544A0844904202D245F4807501E045F431
:1007F00080652068C0F8005201F0A8FA4E4A2168CE
:10080000B0FBF2F0401EC1F8DC002046FFF7E8FD27
:10081000206800F58050D0F8001121F4E01141F477
:100820000021C0F800116169880703D00120E0654C
:10083000666587E7206847F6FE7300F58050D0F8BC
:1008400008219A4342EA4101C0F8081100210846F4
:10085000E26800EB400504EB800302EBC502116087
:1008600051609160D160401C04289A61F0D3A1626C
:100870000323206800F58050C0F82C312068E2681E
:1008800000F58050C0F814212068E26800F580501F
:10089000C0F820215FF00002206902EB420604EB61
:1008A000820500EBC600016041608160C1600161AA
:1008B0004161521C042AE862EED3E1632164616461
:1008C000E164A164206800F58050C0F830312068F0
:1008D000226900F58050C0F81C212268206902F5C9
:1008E000805200F5D860C2F82801D4E90020808841
:1008F000C2F8000360682368D0F801500278102025
:1009000042EA0522C3F80423E1656065A065002082
:10091000F8BD0000F444025800D3CEFEC0E1E4006C
:1009200040F1E9FD40787D0100796CFC005A6202DB
:10093000001F0AFA80F0FA0240420F0070B586B03C
:10094000044614216846FFF70DFD364920688842A9
:1009500066D13548016841F400410160016801F445
:1009600000410591016841F480310160016801F4A2
:1009700080310591016841F400310160006800F4A4
:100980000030059028480830016841F004010160FA
:10099000016801F004010591016841F00101016065
:1009A000016801F001010591016841F00201016057
:1009B000016801F002010591016841F04001016008
:1009C000006800240B26694600F0400005903220A4
:1009D000009002251548CDE90154CDE9034600F009
:1009E0002DF886200090CDE9015411486946CDE9E3
:1009F000034600F023F828030090CDE901540D4888
:100A00006946CDE9034600F019F84FF420500090F4
:100A1000CDE9015408486946CDE9034600F00EF8D7
:100A200006B070BD00800240D84402580008025849
:100A30000000025800040258001802582DE9F84F2F
:100A4000714C00234FF0B04E4FF001094FF0030BF3
:100A50004FF00F0AD0E000BF09FA03F812EA0802CB
:100A600074D04D68022D01D0122D0FD1DD085F0723
:100A700000EB850500950E692D6AFF0E0AFA07FC4A
:100A8000BE4025EA0C052E43009D2E625D000F79C5
:100A900006680BFA05FC07F0030726EA0C06AF40D0
:100AA000374307604E68012E05D0022E03D0112E69
:100AB00001D0122E0FD18668CF6826EA0C06AF400F
:100AC0003743876046680F7926EA0806C7F30017A0
:100AD0009F4037434760C6688F6826EA0C06AF40E0
:100AE0003743C7604D68ED0030D5484D2E6846F05D
:100AF00002062E602D6823F0030606F1B04605F0CD
:100B0000020500959D072F0FD6F80854DFF80081E5
:100B10000AFA07FC404525EA0C0502D14FF0000C0B
:100B200041E0DFF8F0C0604502D14FF0010C3AE03F
:100B3000DFF8E4C0604502D14FF0020C33E0DFF88B
:100B4000DCC0604503D14FF0030C2CE053E0DFF82C
:100B5000D0C0604502D14FF0040C24E0DFF8C4C0DF
:100B6000604502D14FF0050C1DE0DFF8BCC06045C8
:100B700002D14FF0060C16E0DFF8B0C0604502D19C
:100B80004FF0070C0FE0DFF8A8C0604502D14FF02E
:100B9000080C08E0DFF89CC0604502D14FF0090C5A
:100BA00001E04FF00A0C0CFA07FC4CEA050CC6F801
:100BB00008C425684E6825EA0205F60300D51543EA
:100BC000256065684E6825EA0205B60300D5154321
:100BD00065604F687546DEF80060FF0226EA02068F
:100BE00000D516432E604F686E68BF0226EA0206E3
:100BF00000D516436E605B1C0A6832FA03F57FF479
:100C00002BAFBDE8F88F000080000058F444025874
:100C1000000002580004025800080258000C025854
:100C2000001002580014025800180258001C025804
:100C300000200258002402580AB18161704709045B
:100C4000FBE7000001480068000C70470010005CE2
:100C50000148806870470000000000200248816859
:100C6000027811448160704700000020032010B515
:100C700000F076F801F0A4F80E490F4A0F4B0C680B
:100C8000C4F30324145D04F01F04E04018600968F5
:100C900001F00F01515C01F01F01C84008490860D4
:100CA000002000F00FF808B1012010BD00F02AF874
:100CB000002010BD18440258503D00080C000020D0
:100CC0001000002070B50D4D04462878A0B14FF4F7
:100CD0007A71B1FBF0F00A490968B1FBF0F001F05C
:100CE00071FB48B9102C07D200222146501E00F09B
:100CF00017F800206C6070BD012070BD000000205E
:100D00000C000020054808B5016841F002010160AF
:100D1000006800F00200009008BD0000F444025892
:100D20000E4BF0B41B680D46C3F30223C3F1070654
:100D3000042E00D90426191D072901D2002300E042
:100D4000DB1E012404FA06F19C40491E2940641E62
:100D5000994014402143F0BC02F098BF0CED00E034
:100D6000064900F0070210B54FF6FF040868044B6F
:100D7000204040EA02201843086010BD0CED00E05E
:100D80000000FA0501680123C0F8FC33002280F856
:100D9000F4238869044A40F000608861486D10437C
:100DA0004865002070470000030000102DE9F04165
:100DB00004008AB005D094F8BD030025266820B150
:100DC00008E001200AB0BDE8F081204684F8BC5359
:100DD00000F066F8032084F8BD03F06BC00500D472
:100DE0002561206802F00AFF04F1100168462822FC
:100DF0008846FFF79EFA94E80F0002F0D7FD02271D
:100E0000D8BB2068002102F021FF0020012610E05D
:100E1000C0EBC001421C04EB810181F83D6081F808
:100E20003F504D648D640D6581F83C00A1F842008F
:100E3000D0B261688142EBD8002011E0C0EBC00164
:100E4000421C04EB810181F8FD5181F8FF51C1F88A
:100E50000452C1F80852C1F8105281F8FC01D0B216
:100E600061688142EAD8282241466846FFF761FA64
:100E700094E80F0002F0FEFD10B184F8BD73A0E706
:100E8000606A84F8385084F8BD63012802D1204696
:100E9000FFF778FF206802F0E1FD002092E70000F4
:100EA00030B587B0044614216846FFF75BFA18494D
:100EB0002068884229D11748016841F0010101608A
:100EC000006800240221144D00F0010005904FF449
:100ED000E8500A228DE81300CDE90342694628460E
:100EE000FFF7ACFD4FF400706946CDE900042846D9
:100EF0000294FFF7A3FD07480838016841F000613C
:100F00000160006800F00060059007B030BD00008F
:100F100000000840E044025800000258124970B531
:100F20000A68520706D40A6802F00702824201D01A
:100F3000012070BD0A6822F0070202430A60FFF731
:100F400087FE094D4FF47A760446083D07E000BF5E
:100F5000FFF77EFE001BB04201D9032070BD286858
:100F60008004F5D5002070BD0C4802580248016885
:100F700041F08071016070470C48025810B500F0D4
:100F80001FFF064A06491268064BC2F303229A5C09
:100F900002F01F02D040086010BD00001844025843
:100FA0000C000020503D000810B500F0CFFE0549B0
:100FB0000968054AC1F30211515C01F01F01C840E4
:100FC00010BD000020440258503D0008494930B58A
:100FD000484C0B1D0A68143409681D68246802F027
:100FE000030305F01002C1F30531C4F3CC0400295A
:100FF00014FB02F200EE102AF8EE400A75D03F4AC8
:101000009FED3D1AB7EE000A6BB1DFED3D1A012BE3
:1010100001D0022B64D002EE101A1168F8EE422AB9
:1010200081EEA22A21E0334C283C23689B0612D58E
:10103000344B246801EE901A1168C4F3C104F8EE31
:10104000612AE34001EE903AC1F30801F8EE611A1B
:1010500081EEA22A0BE001EE901ADFED2B2A00BFF1
:10106000F8EE611A116882EEA12AC1F3080101EEBF
:10107000901A1168F8EE611A40EE811A71EE800A3A
:1010800062EE200AC1F3462101EE101AB8EE411AB1
:1010900031EE001AC0EE811ABCEEE11A80ED001AA2
:1010A0001168C1F3064101EE101AB8EE411A31EE93
:1010B000001AC0EE811ABCEEE11A80ED011A116827
:1010C000C1F3066101EE101AB8EE411A31EE000AC2
:1010D00080EE801ABCEEC10A80ED020A30BD04E049
:1010E00001EE901ADFED092ABAE7002101604160A4
:1010F0008160F3E728440258000000393844025860
:101100000024744A0090D0030024744C0024F44A54
:10111000494930B5484C0B1D0A681C3409681D68E4
:10112000246802F0030305F48072C1F30551C4F38F
:10113000CC04002914FB02F200EE102AF8EE400A5B
:1011400075D03F4A9FED3D1AB7EE000A6BB1DFED57
:101150003D1A012B01D0022B64D002EE101A116847
:10116000F8EE422A81EEA22A21E0334C283C236883
:101170009B0612D5344B246801EE901A1168C4F313
:10118000C104F8EE612AE34001EE903AC1F3080190
:10119000F8EE611A81EEA22A0BE001EE901ADFED63
:1011A0002B2A00BFF8EE611A116882EEA12AC1F362
:1011B000080101EE901A1168F8EE611A40EE811AEA
:1011C00071EE800A62EE200AC1F3462101EE101A88
:1011D000B8EE411A31EE001AC0EE811ABCEEE11AE7
:1011E00080ED001A1168C1F3064101EE101AB8EE45
:1011F000411A31EE001AC0EE811ABCEEE11A80ED00
:10120000011A1168C1F3066101EE101AB8EE411A15
:1012100031EE000A80EE801ABCEEC10A80ED020AAF
:1012200030BD04E001EE901ADFED092ABAE7002193
:10123000016041608160F3E72844025800000039F2
:10124000404402580024744A0090D0030024744C97
:101250000024F44A2DE9FC5F044650F8241B0025C5
:1012600000902E460801FE4FDFF8F8931DD5606E02
:1012700050B1B0F5801F0CD0B0F5001F0ED0B0F506
:10128000401F1DD001250FE0386840F40030386061
:1012900016E00221201D01F071FA03E000980221FE
:1012A00001F0FCFA05000BD02E462088C00523D59E
:1012B000606D05281ED2DFE800F00C11161B1B0024
:1012C000626ED9F8001021F440111143C9F80010E2
:1012D000EBE7386840F40030386009E00021201D59
:1012E00001F04CFA03E00098002101F0D7FA05461E
:1012F0006DB100E001252E462088800528D5A06D1F
:1013000080281ED00CDC90B140280ED114E0626D14
:10131000D9F8001021F007011143C9F80010EBE7DC
:10132000C02813D0B0F5807F10D001250FE03868B9
:1013300040F40030386009E00021201D01F01EFA61
:1013400003E00098002101F0A9FA054695B12E4668
:101350002088DFF81083400508F108082CD5D4F860
:10136000A400B0F5800F20D00DDCA0B1B0F5001FB7
:101370000FD115E0A26DD9F8001021F4E0711143EE
:10138000C9F80010E4E7B0F5C00F13D0B0F5000FB6
:1013900010D001250FE0386840F40030386009E0D3
:1013A0000021201D01F0EAF903E00098002101F07E
:1013B00075FA054675B12E46208800052DD5D4F85E
:1013C000A800B0F1007F21D00EDCA8B1B0F1807F81
:1013D00010D116E0D4F8A420D8F8001021F4600150
:1013E0001143C8F80010E7E7B0F1407F13D0B0F127
:1013F000806F10D001250FE0386840F4003038606D
:1014000009E00021201D01F0B9F903E00098002156
:1014100001F044FA05466DB12E46206880011FD5C3
:10142000A06CD8B110280FD0202812D0302815D0A9
:10143000012514E0D4F8A820D8F8001021F0E061CC
:101440001143C8F80010E8E7386840F4003038600D
:1014500004E00221201D01F091F905466DB12E46F0
:101460002088C0042BD5E06DB0F5005F20D00DDCE6
:10147000A0B1B0F5805F0FD115E07A48A26C001FD3
:10148000016821F0300111430160E9E7B0F5405FE8
:1014900013D0B0F5804F10D001250FE0386840F42C
:1014A0000030386009E00021201D01F067F903E0F9
:1014B0000098002101F0F2F9054685B12E462088FA
:1014C000800429D5206EB0F5403F23D010DC08B34E
:1014D000B0F5803F14D0B0F5003F0FD115E0E26DBC
:1014E000D9F8001021F4E0411143C9F80010E6E7F3
:1014F000B0F5802F0ED0B0F5A02F0BD001250AE05B
:101500000121201D01F03AF903E00098012101F0CA
:10151000C5F905468DB12E46208840042AD5D4F859
:10152000AC00B0F1405F23D010DC08B3B0F1805FB5
:1015300014D0B0F1005F0FD115E0226ED9F8001081
:1015400021F4E0211143C9F80010E5E7B0F1804F24
:101550000ED0B0F1A04F0BD001250AE00121201DD3
:1015600001F00CF903E00098012101F097F905461C
:101570006DB12E46208800041FD5E06ED8B1B0F1C1
:10158000805F0ED0B0F1005F10D0012514E0D4F8D8
:10159000AC20D8F8001021F0E0411143C8F8001049
:1015A000E8E7386840F40030386004E00121201D8D
:1015B00001F0E4F805466DB12E462068C0011ED545
:1015C000606CD0B101280ED0022811D0032814D0AD
:1015D000012513E0E26ED9F8001021F040511143CB
:1015E000C9F80010E9E7386840F40030386004E0DA
:1015F0000221201D01F0C2F8054685B12E46206863
:10160000DFF85CB04002ABF11C0B57D516480168FF
:1016100041F480710160FFF71BFB82460EE0114828
:10162000626C001F016821F0030111430160E6E7CD
:10163000FFF70EFBA0EB0A0064283DD80A480068BB
:10164000C005F5D57DBBDFF81CA0B4F8B0100AF1D9
:10165000200ADAF8000001F4407100F4407005E05F
:101660002C4402585044025800480258884211D075
:10167000DAF80010DAF8002021F4407142F48032E8
:10168000CAF80020DAF8002022F48032CAF80020DC
:10169000CAF80010D4F8B000B0F5807F21D1FFF770
:1016A000D7FA019019E008E0FFF7D2FA0199411A40
:1016B00041F28830814210D903252E462078DFF888
:1016C0002CA4C0073DD0A06F182838D026DC80B3EA
:1016D000082829D0102825D12CE0DAF8000080074E
:1016E000E2D5D4F8B010C1F30120032858460DD03C
:1016F000016821F47C510160B4F8B020DAF80010E0
:10170000C2F30B021143CAF80010D7E7F84A036886
:1017100002EA111223F47C511143ECE720280ED089
:1017200028280CD001250BE00121201D01F026F80E
:1017300004E004E00098012101F0B0F805465DB135
:101740002E46207880071ED5606F062819D2DFE864
:1017500000F0160C11161616A26FDAF8001021F020
:1017600038011143CAF80010EBE70121201D01F0F8
:1017700005F803E00098012101F090F8054675B1E5
:1017800000E001252E46207840071FD5D4F89000B0
:10179000062819D2DFE800F0160C11161616626F33
:1017A000DAF8001021F007011143CAF80010EAE747
:1017B0000121201D00F0E2FF03E00098012101F06B
:1017C0006DF805469DB100E001252E462078800683
:1017D0002BD5D4F88C00B0F1405F24D011DC10B3CD
:1017E000B0F1805F15D0B0F1005F10D116E0D4F8F1
:1017F0009020D8F8001021F007011143C8F800101C
:10180000E4E7B0F1804F0ED0B0F1A04F0BD001252E
:101810000AE00021201D00F0B1FF03E00098022142
:1018200001F03CF805468DB12E46207840062BD5B8
:10183000D4F89800B0F5406F24D011DC10B3B0F5A7
:10184000806F15D0B0F5006F10D116E0D4F88C2061
:10185000DAF8001021F0E0411143CAF80010E4E783
:10186000B0F5805F0ED0B0F5A05F0BD001250AE087
:101870000021201D00F082FF03E00098022101F00A
:101880000DF805468DB12E46207800062BD5D4F8EC
:101890009C00B0F5C04F24D011DC10B3B0F5005F50
:1018A00015D0B0F5804F10D116E0D4F89820D8F8B4
:1018B000001021F4E0511143C8F80010E4E7B0F53E
:1018C000004F0ED0B0F5204F0BD001250AE00021CB
:1018D000201D00F053FF03E00098022100F0DEFF1E
:1018E000054665B32E46207800070BD5D4F8801046
:1018F000B1F5805F2DD0DAF8002022F440520A437F
:10190000CAF800202078C0060BD5D4F89410B1F5A1
:10191000807F26D0D8F8002022F440720A43C8F80D
:1019200000202068000330D5D4F8A00008B3B0F53B
:10193000803F23D0B0F5003F25D0012524E0D4F826
:101940009C20D8F8001021F460411143C8F8001021
:10195000C9E70098022100F0A1FF0028D2D001269B
:10196000D0E70098022100F099FF0028D9D0012685
:10197000D7E70021201D00F001FF03E000980221BD
:1019800000F08CFF054685B12E462068400322D525
:10199000D4F88400B0F5801F11D0B0F5001F13D02B
:1019A000B0F5401F15D0012514E0D4F8A020D8F8D8
:1019B000001021F440311143C8F80010E5E7386801
:1019C00040F40030386004E00098012100F066FF28
:1019D000054655B12E462068C0031CD5E06C70B199
:1019E000B0F5803F10D0012514E0D4F88420DAF857
:1019F000001021F440111143CAF80010EBE73868D9
:101A000040F40030386004E00221201D00F0B6FEF2
:101A10000546CDB12E462068800005D500980221EC
:101A200000F03CFF00B10126206880031BD5E06F69
:101A3000B8B1B0F5807F10D0B0F5007F11D0B0F50F
:101A4000407F0ED001250DE02848E26C083801687F
:101A500021F4803111430160DDE7386840F4003043
:101A60003860EDB32E462068C00207D5226FD9F842
:101A7000001021F000411143C9F800102068C00097
:101A800008D5D4F8B420DBF8001021F480411143CC
:101A9000CBF800102068800207D5A26ED9F800109C
:101AA00021F080711143C9F80010206840000CD566
:101AB000DBF8001021F40041CBF80010DBF8001037
:101AC000D4F8B8201143CBF800102068002809DAB8
:101AD0000648226D0838016821F04051114300E0AA
:101AE00008E001607EB10120BDE8FC9F544402582B
:101AF000CFFFFF00E26FDAF8001021F440711143CC
:101B0000CAF80010AFE70020EEE700002DE9F05F13
:101B100004000F467ED0DFF82482D8F8000000F0E1
:101B20000F00B8420CD2D8F8001021F00F01394351
:101B3000C8F80010D8F8000000F00F00B84269D1D2
:101B400020787F4D40070AD52069296801F070018F
:101B5000884204D9296821F0700101432960207866
:101B6000774E361D00070AD56069316801F07001B3
:101B7000884204D9316821F0700101433160207836
:101B8000C0060AD5A069316801F4E061884204D931
:101B9000316821F4E061014331602078DFF8A0B1C1
:101BA00080060BF1080B0CD5E1695846DBF80020E4
:101BB00002F07002914204D9026822F070020A43D6
:101BC0000260207880070AD5E068296801F00F01DB
:101BD000884204D9296821F00F0101432960207847
:101BE000C0073ED05649A2682868183920F47060B2
:101BF000104328606068022818D0032819D00968AB
:101C0000012819D0490700294ADADFF834A1AAF1DE
:101C1000080A00E044E0DAF8002022F0070202435C
:101C2000CAF80020FFF714F8814612E0096889031A
:101C3000E9E709688901E6E7C905E4E7FFF708F87D
:101C4000A0EB090141F28830814202D90320BDE8AE
:101C5000F09F6168DAF8000000F03800B0EBC10FC7
:101C6000ECD1207880070AD5E068296801F00F01DF
:101C7000884204D2296821F00F0101432960D8F875
:101C80000010404601F00F01B9420BD9016821F064
:101C90000F0139430160006800F00F00B84201D025
:101CA0000120D4E7207840070AD52069296801F08F
:101CB0007001884204D2296821F070010143296033
:101CC000207800070AD56069316801F07001884208
:101CD00004D2316821F07001014331602078C006E0
:101CE0000AD5A069316801F4E061884204D2316804
:101CF00021F4E06101433160207880060CD5E16970
:101D00005846DBF8002002F07002914204D20268CB
:101D100022F070020A43026000F052F82968094A72
:101D2000C1F30321515C01F01F01C840064908605E
:101D30000020BDE8F05FFEF7C5BF000000200052A4
:101D400018440258503D00080C00002010B5FFF761
:101D500015F9064A06491268064B02F00F029A5C12
:101D600002F01F02D040086010BD00001844025865
:101D700010000020503D000810B5FFF7E7FF0549AF
:101D80000968054AC1F30211515C01F01F01C84006
:101D900010BD00001C440258503D000810B5FFF76C
:101DA000D5FF05490968054AC1F30221515C01F0DC
:101DB0001F01C84010BD00001C440258503D0008DF
:101DC000454970B545480968434B103B11F038024E
:101DD00008D00111082A03D0102A0BD0182A0BD0E2
:101DE000084670BD19688906FBD51968C1F3C101A1
:101DF000C84070BD3A4870BD3749374D18310C1D89
:101E000024350A68096826682D6802F0030406F084
:101E10000102C1F30511C5F3CC0515FB02F200EE7A
:101E2000102AB8EE400AE9B32F4ADFED2E0AB7EECA
:101E3000001A6CB1DFED2D1A012C01D0022C43D019
:101E400002EE101A1068F8EE422A81EEA22A1EE075
:101E50001C68A40611D51B6801EE901A1168C3F323
:101E6000C103F8EE612AD84001EE900AC1F30800E0
:101E7000F8EE611A81EEA22A0BE001EE901ADFED76
:101E80001C2A00BFF8EE611A106882EEA12AC0F386
:101E9000080001EE900AF8EE611A40EE201A31EEC9
:101EA000810A00E015E022EE000A1068C0F3462027
:101EB000401C00EE900AF8EE600A80EE201ABCEE9C
:101EC000C10A10EE100A70BD01EE901ADFED092A6A
:101ED000D8E7002070BD0000104402580090D003E5
:101EE00000127A0000000039304402580024744A7D
:101EF0000024744C0024F44A2DE9F05F04007DD0E6
:101F0000FF4F2078FE4D1837DFF8F493103DC007DF
:101F100048D0D9F80000396800F03800102815D0F2
:101F2000182803D101F0030002280FD06068B0F533
:101F3000803F12D010B1B0F5A02F18D0286820F43F
:101F400080302860286820F4802009E02868800319
:101F500028D560680028D2D024E0286840F480307A
:101F60002860606888B1FEF773FE064609E02868BD
:101F700040F480202860F0E7FEF76AFE801B6428AA
:101F80006FD828688003F7D50CE0FEF761FE06469F
:101F900005E000BFFEF75CFE801B6428F0D82868CF
:101FA0008003F7D4207841F20308D54E0C3E800719
:101FB00061D5D9F80000396810F038000ED0182823
:101FC00001D188070AD0E06880B3296821F019019F
:101FD00001432960FEF73CFE82462FE02868400757
:101FE00002D5E06800288AD0E168286820F019004E
:101FF00008432860FEF72CFE824607E0D1E000BFD0
:10200000FEF726FEA0EB0A000228B9D82868400790
:10201000F6D500BFFEF716FE404513D8206931689B
:1020200021F47C3141EA0030306024E011E000BF4F
:10203000FEF70EFEA0EB0A000228A1D82868400790
:10204000F6D5E7E7207C316821F0FE4141EA0060E7
:10205000EAE7286820F001002860FEF7F9FD8246D3
:1020600006E0FFE0FEF7F4FDA0EB0A00022887D8A7
:1020700028684007F6D42078C00657D5D9F8000064
:10208000DFF87CB2396800F03800ABF1040B0828A7
:1020900010D0182803D101F0030001280AD0E0690C
:1020A0000028286832D040F080002860FEF7D0FD7C
:1020B000824623E02868C00523D5E069802870D1D6
:1020C0001FE000BF94F82000316821F0F84141EA98
:1020D000806030602AE000BF94F82010DBF8002018
:1020E00022F07C5242EA0161CBF800101EE000BFF2
:1020F000FEF7AEFDA0EB0A00022886D82868C005CE
:10210000F6D5FEF79FFD4045E6D8DBE720F08000DE
:102110002860FEF79DFD064605E000BFFEF798FD2E
:10212000801B022889D82868C005F7D420780007CA
:1021300029D573486169643000298046016811D04F
:1021400041F001010160FEF783FD064605E000BF96
:10215000FEF77EFD801B022889D8D8F80000800792
:10216000F6D510E021F001010160FEF771FD064691
:1021700005E000BFFEF76CFD801B022872D8D8F87E
:1021800000008007F6D42078800623D5A0690028B7
:10219000286810D040F480502860FEF759FD0646AC
:1021A00005E0E6E0FEF754FD801B02285AD82868B7
:1021B0008004F7D50EE020F480502860FEF748FD3B
:1021C000064604E0FEF744FD801B02284AD8286832
:1021D0008004F7D4207840074FD5DFF82881D8F85D
:1021E000001041F48071C8F80010FEF731FD06467A
:1021F00005E000BFFEF72CFD801B642832D8D8F81C
:102200000000C005F6D53E4EA068603601280AD011
:1022100008B1052813D0306820F001003060306824
:1022200020F0040002E0306840F001003060A06857
:1022300041F2883A90B1FEF70BFD80460AE0306823
:1022400040F004003060EEE7FEF702FDA0EB08016D
:10225000514507D830688007F6D50EE0FEF7F8FC48
:10226000804607E084E000BFFEF7F2FCA0EB080127
:1022700051457DD830688007F6D4606AF0B3D9F84C
:102280000010C1F3C201032973D00228286820F08E
:102290008070286003D0FEF7DBFC044680E0FEF788
:1022A000D7FC064605E000BFFEF7D2FC801B0228E3
:1022B00073D828688001F7D4E26A40F2F3313868B5
:1022C00054F8283F884340EA021018433860217BC5
:1022D0004FF4FE0C22894FF0FE47208A4902084B3A
:1022E000521E267DA1F5007189B2401EC2F308027C
:1022F00020331143761E0CEA004005E053E0000055
:102300001044025800480258014307EA0662181FA9
:10231000114319601A1D016821F001010160116863
:102320004FF6F876236AB14341EAC30111600168B0
:10233000A26921F00C01114301600168E26921F0FA
:10234000020111430160016841F4803101600168BC
:1023500041F400310160016841F4802101600168AD
:1023600041F001010160286840F08070286001E0C0
:1023700013E01AE0FEF76CFC044604E0FEF768FC8C
:10238000001B022809D828688001F7D50BE000BFA0
:10239000FEF75EFC001B022802D90320BDE8F09F77
:1023A00028688001F4D40020F8E70120F6E7000057
:1023B00003490A6822F4600202430A607047000081
:1023C00004040058401EB0F1807F10B501D30120F5
:1023D00010BD4FF0E02460610F21601701F056FC42
:1023E0000020A0610721216110BD30B590F87C105C
:1023F000012918D0012280F87C202421C0F8801007
:102400000022202450F8601B0B680D6823F0005355
:1024100025F001050D60426050F8601C0B600462FD
:102420000277104630BD022030BD70B5044690F8EA
:102430007C0001281DD0012284F87C202420C4F8CF
:10244000800020680568026822F0010202602068AE
:10245000826822F060620A438260204600F05AFBE4
:102460002268202100201560C4F8801084F87C00C8
:1024700070BD022070BD70B5044690F87C00012844
:102480001DD0012284F87C202420C4F8800020681C
:102490000568026822F0010202602068826822F06A
:1024A00060420A438260204600F034FB226820210B
:1024B00000201560C4F8801084F87C0070BD0220F4
:1024C00070BD10B5040003D0D4F8800010B107E04F
:1024D000012010BD002084F87C00204600F026F882
:1024E0002420C4F880002068016821F00101016007
:1024F000204600F0D5FB0128EBD0A06A10B12046A1
:1025000000F03AFB2068416821F490414160206866
:10251000816821F02A0181602068016841F0010191
:1025200001602046BDE8104000F08ABB10B586B0BF
:10253000044614216846FDF715FF134920688842B8
:1025400020D11248016841F480210160006800F444
:10255000802005900D480838016841F008010160AD
:1025600000680723022200F00800059000204FF4C5
:10257000407100916946CDE90120CDE9030304488B
:10258000FEF75CFA06B010BD00480040E84402586F
:10259000000C0258FEE7000017487CB515490024DE
:1025A000016080228DF80040E1238DF80120012593
:1025B0008DF8023040F2F4518DF804408DF803405C
:1025C0008DF80540C0F804D00C4A0572C2600C4A70
:1025D000C0E90421FEF7B0F8074834213438FDF78C
:1025E000C1FE054821224FF4403134380260C0E971
:1025F00004417CBD008002404C000020600004309B
:10260000000004302DE9F04186B014216846FDF742
:10261000A9FE3348016841F004010160016801F03E
:1026200004010591016841F080010160016801F039
:1026300080010591016841F001010160016801F02C
:1026400001010591016841F002010160016801F09A
:1026500002010591016841F008010160016801F083
:1026600008010591016841F04001016000684FF4E4
:1026700081461C4F002200F040003146059038464C
:10268000FEF7DAFADFF86080002240214046FEF7CC
:10269000D3FA164900244FF400508DE81300144873
:1026A0006946FEF7CBF901250096CDE9015469464C
:1026B00038460394FEF7C2F940200090CDE901545A
:1026C000694640460394FEF7B9F980206946CDE992
:1026D000000440460294FEF7B1F906B0BDE8F0816F
:1026E000E04402580004025800180258000011117A
:1026F000000802581148002110B50F4C0C224FF46D
:10270000E1330460C0E90131C160C0E904128161B4
:10271000C161016241628162FFF7D3FE0748002177
:10272000FFF7A9FE05480021FFF77FFEBDE8104036
:102730000248FFF75ABE000000480040BC000020DD
:102740000B48002130B40223084D0122C0E90331B7
:1027500083610924C0E90721C0E90912C0E90B21FE
:10276000C0E9005430BCFEF721BB00000000084067
:1027700048010020FEE77047704700002DE9F04750
:10278000454D044689464FF0000A2868C04380073B
:102790000AD0414E283E306820F080603060FEF75D
:1027A00057FA0746B04608E00120BDE8F08700BFB1
:1027B000FEF74EFAC01B022867D8D8F800000001C7
:1027C000F6D4206829684FF4FE0721F47C313E02DC
:1027D00041EA00302860207AA389B4F804C040029E
:1027E0002D4D2D495B1E227CACF1010C1035091DCD
:1027F000A0F5007080B2521ECCF3080C07EA034328
:1028000040EA0C00184306EA026210432860086898
:10281000626920F0C000104308600A68A06922F0D5
:10282000200202430A60281D0A6822F010020A6092
:1028300002684FF6F873E4699A4342EAC402026000
:102840000868B9F1000F40F010020A6011D0086862
:10285000B9F1010F11D040F400100860D8F8000061
:10286000444640F08060C8F80000FEF7F1F90546E4
:102870000DE0086840F40020EFE740F48010ECE73A
:10288000FEF7E6F9401B022801D903208DE72068F6
:102890000001F5D5504688E7284402582DE9F04755
:1028A000454D044689464FF0000A2868C04380071A
:1028B0000AD0414E283E306820F080503060FEF74C
:1028C000C7F90746B04608E00120BDE8F08700BF21
:1028D000FEF7BEF9C01B022867D8D8F800008000B8
:1028E000F6D4208829684FF4FE0721F07C713E025F
:1028F00041EA00502860207AA389B4F804C040025D
:102900002D4D2D495B1E227CACF1010C1835091DA3
:10291000A0F5007080B2521ECCF3080C07EA034306
:1029200040EA0C00184306EA026210432860086877
:10293000626920F44060104308600A68A06922F4CC
:10294000007202430A60281D0A6822F480720A603D
:1029500002684FF6F873E4699A4342EAC4020260DF
:102960000868B9F1000F40F480720A6011D008685D
:10297000B9F1010F11D040F080700860D8F8000064
:10298000444640F08050C8F80000FEF761F9054663
:102990000DE0086840F48000EFE740F40000ECE749
:1029A000FEF756F9401B022801D903208DE7206865
:1029B0008000F5D5504688E7284402587047FEF756
:1029C0004DB9000070B5CCB04C212FA8FDF7CAFC62
:1029D000202142A8FDF7C6FCBC216846FDF7C2FCD9
:1029E0000220FEF79BFA214921480A6822F00102E1
:1029F0000A6009680168002441F4404101600168EF
:102A000001F440414A9101688904FCD54FF4A022A9
:102A1000012102203890CDE92F1239AA182304256C
:102A200082E80B000C263E90CDE93C05CDE93F64E1
:102A30002FA84194FFF760FA42AA3F20032182E8C1
:102A400013000121459442A8469447944894499420
:102A5000FFF75CF807481D940090C1046846219177
:102A6000FEF7F8FBFEF782FA4CB070BD2C0400585C
:102A70001848025802000400214A30B52149146860
:102A80000020204B44F47004146010330A681E4D7B
:102A900042F001020A6018600A681A4B2A400A6074
:102AA00018331C1D251D174A186028322060131D7D
:102AB00028601C1D251D10602A1D1860131D206034
:102AC0001C1D2860251D10601860206028600A68A1
:102AD0000C4B0E4C22F4802260330A601860206890
:102AE0006FF30F00B0F1005F03D209490120C1F874
:102AF00008014FF0006002498039086030BD0000D5
:102B000088ED00E0004402587FEDF6EA0010005C1A
:102B1000008000513FB514A1D1E9002314A1CDE9F3
:102B20000023D1E90021CDE90221416EB9B101684C
:102B300002AC8A688968C2F34262490F1DF80150ED
:102B4000615CED00B5FBF1F1A0F86A101DF8021010
:102B5000A25CC900B1FBF2F1A0F868103FBD0121F1
:102B6000A0F86A10F8E70000010101030701000066
:102B7000080402040801010190F82810C90706D0D2
:102B80000168C36A4A6822F400321A434A6090F826
:102B90002810890706D50168036B4A6822F4803241
:102BA0001A434A6090F82810490706D50168436B1C
:102BB0004A6822F480221A434A6090F828100907D4
:102BC00006D50168836B4A6822F400421A434A60C2
:102BD00090F82810C90606D50168C36B8A6822F4EC
:102BE00080521A438A6090F82810890606D5016839
:102BF000036C8A6822F400521A438A6090F8281005
:102C0000490611D50168436C4A6822F480121A43C0
:102C10004A60416CB1F5801F06D10168836C4A6837
:102C200022F4C0021A434A6090F82810090606D51B
:102C30000168C26C486820F4002010434860704767
:102C4000F8B500260446C0F88860FEF701F805468E
:102C500020686FF07E470068000708D500222B46E9
:102C60004FF400112046009700F06EFE60B9206816
:102C7000006840070AD500222B464FF48001204609
:102C8000009700F061FE08B10320F8BD2020C4F8D1
:102C9000800084F87C60C4F884000020F8BD000047
:102CA0002DE9F04FC2690446816887B00068D4E915
:102CB0000457F84E636E2943056817433943F64AB3
:102CC0000B434FF0000835401D4305602068E36862
:102CD000416821F44051194341602568A06995423B
:102CE00001D0216A0843AB68EC4FED4EED493B4003
:102CF0000343AB602068656AC36A23F00F032B436C
:102D0000C3622068B0420ED1096801F03801182969
:102D100073D047DCB9B3082979D010296FD178E096
:102D200028297ED17BE0E04B984209D1096801F067
:102D30000701062975D2DFE801F0546A6C6E7072E3
:102D4000DA4B984209D1096801F00701062968D2D7
:102D5000DFE801F0475D5F616365D54B984209D1BB
:102D6000096801F0070106295BD2DFE801F03A505B
:102D700052545658CF4B98420BD1096801F00701C5
:102D800006294ED200E010E0DFE801F02B41434578
:102D90004749C94B98420AD1096801F038011829FE
:102DA00039D0B7DD2029BBD137E001273AE0C34B4A
:102DB000984209D1096801F00701062931D2DFE8FC
:102DC00001F01026282A2C2EBD4B98420BD1096801
:102DD00001F00701062924D2DFE801F003191B1DC9
:102DE0001F2100271EE090421BD1AE49091D096832
:102DF00001F00701062914D202E00CE007E010E020
:102E0000DFE801F0030507090B0D02270AE004279C
:102E100008E0082706E0102704E0202702E040270A
:102E200000E08027DFF89CA2DFF89CB290424FF4CC
:102E300080754FF000097AD1102F51D006DC022F97
:102E400009D0042F27D0082F72D12DE0202F70D069
:102E5000402F6DD1F0E0FEF7A7F80146606A1FE051
:102E6000012827D0022827D0032827D0042827D0DC
:102E7000052827D0062827D0072827D0082827D0BC
:102E8000092827D00A2827D00B2827D00AE000BF1E
:102E9000B1FBF0F07EE06846FEF798F8606A0199B1
:102EA0000028DDD10120F3E703A8FEF731F9606ABD
:102EB0000499F5E70220EBE70420E9E70620E7E7BD
:102EC0000820E5E70A20E3E70C20E1E71020DFE730
:102ED0002020DDE74020DBE78020D9E72846D7E740
:102EE000DBF8000059468006606A39D50968C1F3ED
:102EF000C1012AFA01F2A8B101281BD002281BD077
:102F000003281BD004281BD005281BD006281BD063
:102F100007281BD008281BD009281BD00A281BD043
:102F20000B281BD05FF00100B2FBF0F032E076E23C
:102F3000A2E050E00220F7E70420F5E70620F3E7DF
:102F40000820F1E70A20EFE70C20EDE71020EBE77F
:102F50002020E9E74020E7E78020E5E72846E3E78F
:102F6000A8B1012821D0022821D0032821D004288B
:102F700021D0052821D0062821D0072821D00828D3
:102F800021D0092821D00A2821D00B2821D00120C6
:102F9000BAFBF0F000286ED0666806EB460181426D
:102FA0006AD8B0EB063F67D89DE00220F0E7042026
:102FB000EEE70620ECE70820EAE70A20E8E70C2025
:102FC000E6E71020E4E72020E2E74020E0E7802069
:102FD000DEE72846DCE7606AA8B1012816D002289F
:102FE00016D0032816D0042816D0052816D0062897
:102FF00016D0072816D0082816D0092816D00A2877
:1030000016D00B2816D00120304941E70220FBE7FB
:103010000420F9E70620F7E70820F5E70A20F3E7A0
:103020000C20F1E71020EFE72020EDE74020EBE750
:103030008020E9E72846E7E7606AA8B1012818D0B0
:1030400002281AD003281AD004281AD005281AD02A
:1030500006281AD007281AD0082839D0092839D0CC
:103060000A2839D00B2839D05FF001004FF4004115
:103070000EE70220FAE7BFE232E00420F6E706207E
:10308000F4E70820F2E70A20F0E70C20EEE7102032
:10309000ECE70000F369FFCF000C0058FFF4FF11CC
:1030A00000100140544402580044004000480040D1
:1030B000004C0040005000400014014000780040E7
:1030C000007C00400090D0030044025800093D00FD
:1030D0002020CBE74020C9E78020C7E72846C5E786
:1030E0004FF0010888E2102F7CD023DC022F4ED055
:1030F000042F78D0082FF3D103A8FEF709F804991C
:10310000606AA8B101286FD002286ED003286DD064
:1031100004286CD005286BD006286AD0072869D00F
:10312000082868D0092867D00A286ED00B2800D05C
:1031300001259AE0202F69D0402FD1D1606AA8B133
:1031400001286ED002286DD003286CD004286BD0E3
:1031500005286AD0062869D0072868D0082867D0D3
:1031600009286FD00A286ED00B2800D001254F46C1
:1031700000232A464FF400400021FDF7A9F802463B
:103180007008130E1202101843EA0121ADE0FDF79A
:103190000BFF0746606A4E464946A8B101282CD06D
:1031A00002282CD003282CD004282CD005282ED07F
:1031B00006282ED007282ED008282ED009282ED059
:1031C0000A2836D00B2800D00125384600232A468D
:1031D000FDF77EF86268090241EA10610346500873
:1031E0001B024FE051E026E02AE02DE02EE02FE028
:1031F00030E031E032E033E034E00225E5E7042559
:10320000E3E70625E1E70825DFE72DE0BEE00A2534
:10321000DBE70C25D9E71025D7E72025D5E74025A2
:10322000D3E7E6E0E7E0E8E0E9E0EAE0EBE0ECE065
:10323000EDE08025C9E76846FDF7C8FE01995FE724
:10324000022512E0E5E0E6E004250EE006250CE0AC
:1032500008250AE00A2508E00C2506E0102504E010
:10326000202502E0402500E080254E4600232A4626
:1032700008461946FDF72CF862680902030241EA84
:10328000106150081818714131E0DBF80010584601
:10329000890649D50068C0F3C1002AFA00F1606AC6
:1032A000A8B101282CD002282CD003282CD0042827
:1032B0002CD005282CD006282CD007282CD0082864
:1032C0002CD009282CD00A282CD00B2800D001257E
:1032D0004F4600232A4608461946FCF7F9FF090223
:1032E0007208030241EA10619818324679410023BE
:1032F000FCF7EEFFFE49A0F540728A4270D9EFE676
:103300000225E5E70425E3E70625E1E70825DFE7F1
:103310000A25DDE70C25DBE71025D9E72025D7E7CF
:103320004025D5E78025D3E7606AA8B1012819D0E8
:10333000022819D0032819D0042819D0052819D03B
:10334000062819D0072819D0082819D0092819D01B
:103350000A2819D00B2800D001254F4600232A4601
:10336000504609E70225F8E70425F6E70625F4E7C5
:103370000825F2E70A25F0E70C25EEE71025ECE733
:103380002025EAE74025E8E78025E6E7606AA8B15E
:10339000012819D0022819D0032819D0042819D0DF
:1033A000052819D0062819D007281AD008281AD0BD
:1033B00009281AD00A281AD00B2800D00125CD4898
:1033C00000234F462A46D7E60225F8E70425F6E70C
:1033D0000625F4E70825F2E70A25F0E70C25EEE7D5
:1033E0001BE01025EBE72025E9E74025E7E78025EE
:1033F000E5E70225BBE60425B9E60625B7E608257C
:10340000B5E60A25B3E60C25B1E61025AFE6202582
:10341000ADE64025ABE68025A9E62168EBE0E06952
:103420004FF400414FF6EF7688426FD1082F65D0F8
:103430000BDC6FB3012F5CD0042F7FF460AF6846C4
:10344000FDF7C4FD606A01995DE0102F5FD0202F69
:103450007ED0402FF1D1606AA8B1012879D002282E
:1034600078D0032877D0042876D0052875D0062890
:1034700074D0072873D0082872D0092871D00A2880
:1034800070D00B2800D001256068B1FBF5F1A0E0F9
:10349000FEF772FC2FE0012815D0022815D0032872
:1034A00015D0042815D0052815D0062815D00728D2
:1034B00015D0082815D0092815D00A2815D00B28B2
:1034C00014D0012512E0022510E004250EE00625A7
:1034D0000CE008250AE00A2508E00C2506E0102586
:1034E00004E0202502E0402500E08025B1FBF5F155
:1034F0003EE0FEF753FC0146606A04E003A8FDF7D6
:1035000007FE606A04990028DBD0C4E7E0E0DBF83E
:10351000000059468006606A40D50968C1F3C101C0
:103520002AFA01F208B3012824D0022824D0032863
:1035300024D0042824D0052824D0062824D0072805
:1035400024D0082824D0092824D00A2824D00AE02E
:1035500073E0A9E0AAE0ABE0ACE0ADE0AEE0AFE044
:10356000B0E0B1E0B2E00B2800D00125B2FBF5F1EC
:1035700060682EE00225F9E70425F7E70625F5E760
:103580000825F3E70A25F1E70C25EFE71025EDE71D
:103590002025EBE74025E9E78025E7E7A8B10128EA
:1035A00037D0022837D0032837D0042837D0052851
:1035B00037D0062837D0072837D0082837D0092831
:1035C00037D00A2837D00B2800D001256068BAFB15
:1035D000F5F1490001EB5001B1FBF0F080B2A0F130
:1035E0001001B1423FF68BAE4FF6F0732168C0F385
:1035F000420218401043C8600120A4F86A00A4F8F1
:1036000068004046C4F86C90C4F8709007B0BDE8FC
:10361000F08F0225DAE70425D8E70625D6E7082546
:10362000D4E70A25D2E70C25D0E71025CEE72025E0
:10363000CCE74025CAE78025C8E7606AA8B1012821
:103640001ED002281ED003281ED004281ED0052814
:103650001ED006281ED007281ED008281ED00928F4
:103660001ED00A281ED00B2800D0012521486168F1
:10367000B0FBF5F0400000EB5100B0FBF1F0ADE71E
:103680000225F3E70425F1E70625EFE70825EDE736
:103690000A25EBE70C25E9E71025E7E72025E5E714
:1036A0004025E3E78025E1E70225EDE60425EBE68A
:1036B0000625E9E60825E7E60A25E5E60C25E3E622
:1036C0001025E1E62025DFE64025DDE68025DBE666
:1036D000082F6BD010DC97B3012F62D0042F7FF43A
:1036E0000EAE6846FDF772FC606A019963E0000067
:1036F000FFFC0F0000093D00102F5FD0202F7DD070
:10370000402FECD1606AA8B1012878D0022877D088
:10371000032876D0042875D0052874D0062873D0E5
:10372000072872D0082871D0092870D00A286FD0D5
:103730000B2800D001256068B1FBF5F1A0E0FFE7A0
:10374000FEF71AFB2FE0012815D0022815D0032818
:1037500015D0042815D0052815D0062815D007281F
:1037600015D0082815D0092815D00A2815D00B28FF
:1037700014D0012512E0022510E004250EE00625F4
:103780000CE008250AE00A2508E00C2506E01025D3
:1037900004E0202502E0402500E08025B1FBF5F1A2
:1037A0003DE0FEF7FBFA0146606A04E003A8FDF77E
:1037B000AFFC606A04990028DBD0C4E7DBF80000A6
:1037C00059468006606A40D50968C1F3C1012AFAEA
:1037D00001F208B3012824D0022824D0032824D0E1
:1037E000042824D0052824D0062824D0072824D053
:1037F000082824D0092824D00A280AE05FE08DE0B8
:103800008EE08FE090E091E092E093E094E095E02C
:1038100096E018D00B2800D00125B2FBF5F16068C6
:103820002EE00225F9E70425F7E70625F5E7082548
:10383000F3E70A25F1E70C25EFE71025EDE7202552
:10384000EBE74025E9E78025E7E7A8B1012822D08A
:10385000022822D0032822D0042822D0052822D0F2
:10386000062822D0072822D0082822D0092822D0D2
:103870000A2822D00B2800D001256068BAFBF5F198
:1038800001EB5001B1FBF0F080B2A0F11001B142A8
:103890007FF6C3AD24E40225EFE70425EDE7062516
:1038A000EBE70825E9E70A25E7E70C25E5E710251A
:1038B000E3E72025E1E74025DFE78025DDE7606AD3
:1038C000A8B1012816D0022816D0032816D0042843
:1038D00016D0052816D0062816D0072816D0082896
:1038E00016D0092816D00A2816D00B2800D001259A
:1038F000144920E70225FBE70425F9E70625F7E749
:103900000825F5E70A25F3E70C25F1E71025EFE791
:103910002025EDE74025EBE78025E9E702250AE7CA
:10392000042508E7062506E7082504E70A2502E737
:103930000C2500E71025FEE62025FCE64025FAE6EA
:103940008025F8E600093D002DE9F041984617462C
:103950000E460446069D08E0681C06D0FDF778F97F
:10396000A0EB0800A8420BD855B12068C06936EA20
:10397000000019D00020B842EED00020BDE8F08150
:103980002168202000220B6823F4D0730B6021688B
:103990008B6823F001038B60C4F88000C4F88400B6
:1039A000032084F87C20E9E70120E4E770B50446B1
:1039B00006990A9E049D01290D9816D0E06840F0F2
:1039C0004000E060204600F02DF8A16B26B321F402
:1039D0008031A163012D07D1A16841F00801A160E8
:1039E000A16841F02001A16070BDA26B01280C49C3
:1039F00022F48030A063E06800EA0100E060E06843
:103A000020F44010E06003D1E06840F48010E060F2
:103A1000204600F007F8DDE741F48031D9E70000E7
:103A2000BFFFBDFF0C49012202E0521C8A420BD8A5
:103A30000369002BF9DA0369012243F001030361F2
:103A400004E0521C8A4201D9032070470369DB0756
:103A5000F7D1002070470000400D030010B5D0F8EA
:103A6000041841F00201C0F804180320FCF752FECC
:103A7000002010BD2DE9F04F0E4604460021DDE97F
:103A80000B2BDDF840800D46099F084604EB800CA7
:103A9000CCF80411401C0F28F8D32046A06BB8F1D5
:103AA000000F13D040F4001CC4F838C08946084603
:103AB000C4F8000E2046D4F80018012AC4F80018F3
:103AC00013D0D0F8001841F0030113E020F4001CDB
:103AD000C4F838C0206840F0400CC4F800C020682A
:103AE00040F0800CC4F800C0E0E7D0F800180BB13B
:103AF00041F00101C0F80018102100F095F800B164
:103B00000125204600F080F800B1012548464FF01D
:103B1000006C4FF67F334FF0904AC4F81098C4F809
:103B20001498C4F81C980021994613E004EB411244
:103B3000D2F80039002B06DA11B1C2F800A904E06E
:103B4000C4F800C901E0C2F80009C2F81009C2F8BF
:103B50000899491C8E42E9D8002113E004EB411278
:103B6000D2F8003B002B06DA11B1C2F800AB04E03A
:103B7000C4F800CB01E0C2F8000BC2F8100BC2F889
:103B8000089B491C8E42E9D8D4F81018012F21F463
:103B900080722146C4F8102808D1144B144AC1F889
:103BA0003038D1F830181143C4F830186FF0804124
:103BB000A06161611FB9A06940F01000A061A06917
:103BC000BBF1000F0B4A40EA0200A06103D0A069DC
:103BD00040F00800A061B8F1010F03D1A0690649C7
:103BE0000843A0612846BDE8F08F00000001800076
:103BF0000300010000383C8004000040816821F08F
:103C00000101816000207047064A102101610021F6
:103C1000491C914201D9032070470369DB06F7D4A0
:103C200000207047400D03002023074A43EA811318
:103C300003610021491C914201D9032070470369A7
:103C40009B06F7D400207047400D030010B5C268F2
:103C5000012922F0C042C26002D029B1012010BD6A
:103C6000C16841F0005102E0C16841F08041C1608B
:103C70003220FCF74FFD002010BDFEE7014A02494B
:103C800000F024B8F13C00081400002009070028C7
:103C90004FEA116104DB00F1E02080F80014704766
:103CA00000F00F0000F1E02080F8141D704702E0E2
:103CB00008C8121F08C1002AFAD1704770470020B7
:103CC00001E001C1121F002AFBD170472DE9F0412C
:103CD00016460F460446002503E03946B047641CEB
:103CE0006D1C20780028F8D12846BDE8F08100003E
:103CF00008490968C90705D0064A803A11051268C3
:103D0000D20701D1704700BF0A68002AFBD00870B3
:103D100070470000800E00E0FCF7A8FFFEF752FE9F
:103D2000FEF770FCFEF738FCFEF7E4FCFEF708FD3A
:103D30004FF47A7403A0FFF7A1FF2046FCF7EAFCDA
:103D4000F8E7000053574F20546573740A000000D1
:103D50000000000001020304010203040607080931
:103D6000803D00080000002018000000AE3C000864
:103D7000983D00081800002038090000BE3C0008EB
:103D80000100000010000000000000000090D003BF
:083D90000090D00300000000C8
:040000050800029954
:00000001FF
