:020000040800F2
:10000000B8410020690300087F1300084712000868
:100010007D130008D50300087903000800000000E4
:10002000000000000000000000000000AD02000819
:10003000D70300080000000001030008891300082E
:100040008303000883030008830300088303000878
:100050008303000883030008830300088303000868
:100060008303000883030008830300088303000858
:100070008303000883030008830300088303000848
:100080008303000883030008830300088303000838
:100090008303000883030008830300088303000828
:1000A00083030008C11400088303000883030008C9
:1000B0008303000883030008830300088303000808
:1000C00083030008830300088303000883030008F8
:1000D00083030008830300088303000883030008E8
:1000E0008303000883030008000000008303000866
:1000F00083030008830300088303000883030008C8
:1001000083030008830300088303000883030008B7
:1001100083030008830300088303000883030008A7
:100120008303000883030008830300088303000897
:100130008303000883030008830300088303000887
:1001400000000000000000000000000000000000AF
:100150008303000883030008830300088303000867
:100160008303000883030008830300088303000857
:1001700083030008830300088303000800000000D5
:100180008303000883030008830300088303000837
:100190008303000883030008830300088303000827
:1001A0008303000883030008830300088303000817
:1001B0008303000883030008830300088303000807
:1001C00083030008830300088303000883030008F7
:1001D00083030008830300088303000883030008E7
:1001E00083030008830300088303000883030008D7
:1001F00083030008830300088303000883030008C7
:1002000083030008830300088303000883030008B6
:1002100083030008830300088303000883030008A6
:100220008303000883030008830300080000000024
:100230008303000883030008000000008303000814
:100240008303000883030008830300088303000876
:100250008303000883030008830300088303000866
:100260008303000883030008830300088303000856
:1002700083030008830300088303000800000000D4
:100280008303000800000000830300080000000052
:100290000000000083030008DFF80CD000F088F8AD
:1002A0000048004739160008B84100202B4B196858
:1002B0000868B0E8F04F80F30988BFF36F8F4FF004
:1002C000000080F3118870470000000006480068B5
:1002D000006880F3088862B661B6BFF34F8FBFF342
:1002E0006F8F00DF00BF00BF08ED00E0DFF80C00FB
:1002F000016841F470010160704700BF88ED00E0C3
:10030000EFF30980BFF36F8F144B1A681EF0100FC4
:1003100008BF20ED108A20E9F04F106008B44FF0BC
:10032000500072B680F31188BFF34F8FBFF36F8F09
:1003300062B601F02BFD4FF0000080F3118808BC7D
:1003400019680868B0E8F04F1EF0100F08BFB0EC55
:10035000108A80F30988BFF36F8F70474000002038
:10036000EFF30580704700000648804706480047C5
:10037000FEE7FEE7FEE7FEE7FEE7FEE7FEE7FEE755
:10038000FEE7FEE7391400089902000840EA01037D
:100390009B0703D009E008C9121F08C0042AFAD23B
:1003A00003E011F8013B00F8013B521EF9D27047FF
:1003B000064C074D06E0E06840F0010394E80700B2
:1003C00098471034AC42F6D3FFF76AFF802100084B
:1003D000A0210008FEE770472DE9F84F6F4D00227D
:1003E0004FF001094FF0030E4FF00F0B0B6809FAA5
:1003F00002F803EA0803434574D14C68022C01D08B
:10040000122C0FD1D4080E69570700EB8404A246C2
:10041000246AFF0E0BFA07FCBE4024EA0C042643B4
:10042000CAF820600F79540006680EFA04FC07F041
:10043000030726EA0C06A740374307604E68012EE3
:1004400005D0022E03D0112E01D0122E0FD18668B6
:10045000CF6826EA0C06A7403743876046680F79C5
:1004600026EA0806C7F30017974037434760C76876
:100470008E6827EA0C07A6403E43C6604C68E4003D
:1004800030D5474C266846F002062660246822F0E4
:10049000030606F1B04604F0020400949407270F07
:1004A000D6F80844DFF8FC800BFA07FC404524EA44
:1004B0000C0402D14FF0000C41E0DFF8ECC06045C5
:1004C00002D14FF0010C3AE0DFF8E0C0604502D104
:1004D0004FF0020C33E0DFF8D8C0604503D14FF095
:1004E000030C2CE053E0DFF8CCC0604502D14FF0A4
:1004F000040C24E0DFF8C0C0604502D14FF0050CC9
:100500001DE0DFF8B8C0604502D14FF0060C16E0E0
:10051000DFF8ACC0604502D14FF0070C0FE0DFF808
:10052000A4C0604502D14FF0080C08E0DFF898C085
:10053000604502D14FF0090C01E04FF00A0C0CFAB3
:1005400007FC4CEA040CC6F808C42C684E6824EA80
:100550000304F60300D51C432C606C684E6824EA43
:100560000304B60300D51C436C604FF0B0444F68E1
:100570002668FF0226EA030600D51E4326604F6860
:100580006668BF0226EA030600D51E436660521C59
:10059000102AFFF42BAFBDE8F88F00008000005850
:1005A000F44402580000025800040258000802589F
:1005B000000C02580010025800140258001802588B
:1005C000001C025800200258002402580AB101837E
:1005D0007047418370470000014880687047000001
:1005E0001000002002488168027811448160704741
:1005F00010000020032010B500F0AAF8002000F041
:1006000007F808B1012010BD00F03CF8002010BD33
:1006100010B50022014619208AB000F079F819209F
:1006200000F068F81348016841F0010101600068BA
:1006300008A900F001000990684600F0A3F900F055
:10064000E9F90D4900220D4B40F2E734B0FBF1F11E
:100650000B480360C0E90342491EC0E9011200F0E3
:10066000FCFC10B101200AB010BD054800F011FDDE
:10067000F9E70000F044025840420F00000001403A
:10068000840000201A4808B5016841F002010160A9
:10069000006800F002000090032000F059F80022EA
:1006A0006FF00B00114600F033F800226FF00A00E3
:1006B000114600F02DF800226FF00900114600F0FD
:1006C00027F80022501F114600F022F80022101FC8
:1006D000114600F01DF800220F21901E00F018F8BE
:1006E00000220F21BDE80840501E00F011B80000A4
:1006F000F4440258002809DB410900F01F02890078
:10070000012001F1E0219040C1F800017047000094
:100710000E4BF0B41B680D46C3F30223C3F107066A
:10072000042E00D90426191D072901D2002300E058
:10073000DB1E012404FA06F19C40491E2940641E78
:10074000994014402143F0BC00F056BF0CED00E08E
:10075000064900F0070210B54FF6FF040868044B85
:10076000204040EA02201843086010BD0CED00E074
:100770000000FA0510B500F063F908494FF48073E2
:100780000A6893FAA3F3064902F47062B3FA83F39A
:10079000DA40044B9A5CD040086010BD18440258FF
:1007A0007C000020642100082DE9F047DFF8C491A7
:1007B00004460E46D9F8000000F00700B0420CD203
:1007C000D9F8001021F007013143C9F80010D9F819
:1007D000000000F00700B04272D12078DFF8988165
:1007E000800707D5E268D8F8001021F00F01114307
:1007F000C8F800102078C00767D05F49A368D8F810
:100800000020183922F470621A43C8F8002060688A
:1008100002281CD003281DD0096801281DD04907D3
:10082000002963DA544D083D296821F0070101438E
:100830002960FFF7D1FE6168074641F2883002293E
:1008400014D0032920D0012982462AD039E0096832
:100850008903E5E709688901E2E7C905E0E700BF28
:10086000FFF7BAFEC11B514501D926E08246286830
:10087000C0F3C2000228F3D127E000BFFFF7ACFEAF
:10088000C11B514501D918E082462868C0F3C20057
:100890000328F3D119E000BFFFF79EFEC11B5145AD
:1008A0000BD82868C0F3C2000128F5D10DE000BFC5
:1008B000FFF792FEC11B514503D90320BDE8F08725
:1008C00014E0286810F0380FF2D1D9F8001048462B
:1008D00001F00701B1420BD9016821F00701314352
:1008E0000160006800F00700B04201D00120E5E798
:1008F0002078400707D52269D8F8001021F0700150
:100900001143C8F8001021781B48001D090705D5C0
:100910006269016821F07001114301602178C90604
:1009200005D5A269016821F4E061114301602078D6
:10093000800607D51048E2690830016821F070018F
:100940001143016000F07CF8D8F800104FF4807279
:1009500092FAA2F201F47061B2FA82F2D140074A2F
:10096000515CC840064908600020FFF751FE002096
:10097000A4E7000000200052184402586421000837
:100980007C00002070B5144C3F220260124A24689B
:100990000832131D114D04F00704446016681C1D35
:1009A00006F470668660166806F00F06C660126868
:1009B00002F0700202611A6802F0700242611A6865
:1009C00002F4E0628261226802F07002C26128686B
:1009D00000F00700086070BD10440258002000526B
:1009E00010B5FFF7C7FE084901230A6893FAA3F37D
:1009F000064902F00F02B3FA83F3DA40044B9A5C23
:100A0000D040086010BD000018440258800000204B
:100A10006421000810B5FFF7E3FF07494FF4807227
:100A2000096892FAA2F201F4E061B2FA82F2D140CE
:100A3000024A515CC84010BD1C44025864210008A1
:100A40004749F0B547480968454B103B11F0380459
:100A500009D00111082C04D0434A102C0BD0182CBB
:100A60000BD00846F0BD19688906FBD51968C1F39B
:100A7000C101C840F0BD1046F0BD394CDFF8E0C000
:100A80001834261D0CF1240C2768351D2468DFED71
:100A9000370AB7EE001A3668DCF800C017F0030713
:100AA00006F00106C4F30514CCF3CC0C1CFB06F6CF
:100AB00000EE106AB8EE400A09D0012F01D0022FD3
:100AC0003BD02868B1FBF4F1C0F308003AE01968A4
:100AD000890615D51A682968C2F3C102C1F3080155
:100AE000D04001EE901AB0FBF4F0F8EE611A40EE3F
:100AF000201A00EE100A71EE810AB8EE400A0BE0EF
:100B00002968B0FBF4F0C1F3080101EE901AB8EEC9
:100B1000612A01EE900A1BE020EE200A2868C0F34B
:100B20004620401C00EE900AF8EE600A80EE201A83
:100B3000BCEEC10A10EE100AF0BD2868B2FBF4F159
:100B4000C0F3080001EE900AB8EE612A01EE901A97
:100B500000EE202AB8EE610A72EE010ADCE700001E
:100B6000104402580090D00340787D010000003905
:100B70002DE9F047FF4C05460078DFF8F883103C7C
:100B8000FC4FC00708F118084CD03868C0F3C20009
:100B900002281AD03868C0F3C200032805D1D8F85B
:100BA000000000F0030002280FD06868B0F5803F15
:100BB00012D010B1B0F5A02F18D0206820F48030EA
:100BC0002060206820F4802009E02068800329D577
:100BD0006868002876D025E0206840F480302060E6
:100BE000686890B1FFF7F8FC06460AE0206840F418
:100BF00080202060F0E700BFFFF7EEFC801B642838
:100C00007ED820688003F7D50CE0FFF7E5FC0646A8
:100C100005E000BFFFF7E0FC801B6428F0D82068E7
:100C20008003F7D42878D34E0C3E80075DD5386812
:100C30004FF47C3A10F0380F13D03868C0F3C2007C
:100C4000032803D1D8F8000080070AD0E868C0B3B1
:100C5000216821F0190101432160FFF7BDFC8146A5
:100C600020E02068400702D5E8680028B2D0E96893
:100C7000206820F0190008432060FFF7ADFC814692
:100C800006E000BFFFF7A8FCA0EB09000228B7D8D8
:100C900020684007F6D508E0FFF79EFCA0EB0900AE
:100CA0000228ADD820684007F6D5286932689AFA3C
:100CB000AAF1B1FA81F1884022F47C31014331601C
:100CC00013E000E0AAE0206820F001002060FFF7B8
:100CD00083FC814606E000BFFFF77EFCA0EB090025
:100CE00002288DD820684007F6D42878C00649D558
:100CF00038684FF0F84AC0F3C200012817D000E06E
:100D0000DAE03868C0F3C200032805D1D8F8000043
:100D100000F0030001280AD0E8690028206822D0EA
:100D200040F080002060FFF757FC81460CE020680F
:100D3000C0050CD5E869802870D108E0FFF74CFCAD
:100D4000A0EB09000228A2D82068C005F6D5286AC1
:100D500032689AFAAAF1B1FA81F1884022F0F8419A
:100D6000014331600EE020F080002060FFF734FC8A
:100D7000064604E0FFF730FC801B022887D8206875
:100D8000C005F7D42878000729D57A486969643006
:100D900000298146016811D041F001010160FFF78F
:100DA0001BFC064605E000BFFFF716FC801B02286F
:100DB00097D8D9F800008007F6D510E021F001019E
:100DC0000160FFF709FC064605E000BFFFF704FCE1
:100DD000801B022870D8D9F800008007F6D4287844
:100DE000800625D5A8690028206810D040F48050DE
:100DF0002060FFF7F1FB064605E000BFFFF7ECFBC4
:100E0000801B022858D820688004F7D510E020F411
:100E100080502060FFF7E0FB064606E0D7E000BF09
:100E2000FFF7DAFB801B022846D820688004F7D43D
:100E3000287840074FD5DFF84091D9F8001041F4E9
:100E40008071C9F80010FFF7C7FB064605E000BF38
:100E5000FFF7C2FB801B64282ED8D9F80000C0051C
:100E6000F6D5444EA868603601280AD008B1052896
:100E700013D0306820F001003060306820F00400AA
:100E800002E0306840F001003060A86841F2883A22
:100E900098B1FFF7A1FB81460AE0306840F00400FA
:100EA0003060EEE7FFF798FBA0EB0901514503D84E
:100EB00030688007F6D50EE088E0FFF78DFB8146AD
:100EC00006E000BFFFF788FBA0EB090151457DD884
:100ED00030688007F6D4686AE8B33968C1F3C201A4
:100EE000032974D00228206820F08070206003D08D
:100EF000FFF772FB054685E0FFF76EFB064604E050
:100F0000FFF76AFB801B022879D820688001F7D49C
:100F1000EB6A40F2F332D8F800104FF4FE0755F8B0
:100F2000286F914341EA03113143C8F80010287B30
:100F30004FF0FE4C0F4EB5F8088040022B8A203649
:100F40002A7DA8F10108311DA0F5007080B25B1E5A
:100F5000C8F3080800E058E0521E07EA034340EADD
:100F6000080018434FF6F8730CEA02621043306031
:100F70000A6803E0104402580048025893FAA3F7A5
:100F80002E6A24489A43B7FA87F7BE4032430A6074
:100F90000168AA6921F00C01114301600168EA6946
:100FA00021F0020111430160016841F480310160C8
:100FB000016841F400310160016841F48021016061
:100FC000016841F001010160206801E017E01EE0C6
:100FD00040F080702060FFF7FFFA054605E000BF93
:100FE000FFF7FAFA401B022809D820688001F7D5DC
:100FF0000BE000BFFFF7F0FA401B022802D90320E4
:10100000BDE8F08720688001F4D40020F8E70120D3
:10101000F6E700002C44025804284FF0E020016954
:1010200003D021F004010161704741F00401FAE7A7
:10103000401EB0F1807F10B501D3012010BD4FF0EC
:10104000E02460610F21601700F0D6FA0020A06153
:101050000721216110BD7047704710B5040003D00F
:1010600094F83D0010B107E0012010BD002084F885
:101070003C00204600F00CF8022084F83D00206877
:10108000211D00F023FA012084F83D00002010BD4E
:1010900070470168CA6842F00102CA6000680188AE
:1010A00041F00101018000207047704770B504468F
:1010B000006800250169C943890715D4C168C9437F
:1010C000890711D4EA1E0261012121772068806915
:1010D0008007204602D0FFF7E8FF04E000F0A5F803
:1010E000204600F0A3F8257720680169C943490725
:1010F00017D4C168C943490713D402216FF0040211
:10110000026121772068806910F4407F204602D078
:10111000FFF7CBFF04E000F088F8204600F086F8E7
:10112000257720680169C943090716D4C168C943F6
:10113000090712D404216FF00802026121772068A8
:10114000C0698007204602D0FFF7AFFF04E000F03F
:101150006CF8204600F06AF8257720680169C943D9
:10116000C90617D4C168C943C90613D408216FF052
:101170001002026121772068C06910F4407F204688
:1011800002D0FFF792FF04E000F04FF8204600F095
:101190004DF8257720680169C943C90708D1C1689E
:1011A000C943C90704D1891E0161204600F040F8F7
:1011B00020686FF080050169C943090607D4C1683A
:1011C000C943090603D405612046FFF744FF2068A0
:1011D0000169C943C90507D4C168C943090603D4D5
:1011E00005612046FFF737FF20680169C9434906BA
:1011F00009D4C168C943490605D46FF040010161B3
:10120000204600F01FF820680169C94389060BD405
:10121000C168C943890607D46FF0200101612046E7
:10122000BDE87040FFF718BF70BD70477047000001
:1012300000680349884201D1FFF7D4B97047000024
:10124000000001407047FEE710B5094C012211462D
:101250002046FFF7BBF9012220468021FFF7B6F9AF
:1012600001222046BDE810409103FFF7AFB900000E
:10127000000402583A4870B586B0016841F0040194
:101280000160016801F004010591016841F08001ED
:101290000160016801F080010591016841F00201DF
:1012A0000160016801F002010591016841F0080147
:1012B0000160016801F008010591016841F04001F9
:1012C0000160016801F040010591016841F00101F0
:1012D000016000680024234900F0010005904FF4EC
:1012E00000508DE8130020486946FFF775F844F276
:1012F0008100009001251D48CDE901546946039401
:10130000FFF76AF8072102264FF440700090CDE9FC
:101310000164CDE9034116486946FFF75DF84020B6
:101320000090CDE90154134D694603942846FFF718
:1013300053F880206946CDE9000428460294FFF75F
:101340004BF80A214FF4E8500090CDE90164CDE953
:10135000034109486946FFF73FF806B070BD000039
:10136000E04402580000111100080258000402581D
:10137000000C02580018025800000258FEE770479F
:10138000012000F07EF9FBE700F087B9284830B56E
:101390009DB0016821F00401016025480C30002453
:1013A000016841F440410160016801F440411B9132
:1013B00001688904FCD502200090012103911022CC
:1013C000049204230B933225CDE90904CDE90C5096
:1013D0000FAD0E900C2185E8130068461294FFF7BC
:1013E000C7FB00B1FEE740201A9008230501CDE9B4
:1013F000163013ABCDE918053F21032283E8160010
:10140000022113A8FFF7D0F900B1FEE709494FF414
:101410007A700968B1FBF0F0FFF70AFE0420FFF7CD
:10142000FBFD00220F21501EFFF772F91DB030BDE9
:101430000C4802587C0000201D4AF0B51D49146874
:1014400000201C4B44F47004146010330A681A4CDA
:1014500042F001020A6018600D68164A25400D60CE
:101460001832131D1C1D134D1060283518602A1DDD
:101470002060131D1C1D2860251D10602A1D18608A
:10148000131D20601C1D28601060186020600A6811
:101490000124084B064FE606084D6033803F22F4D6
:1014A00080220A601860C5F808413E60F0BD000067
:1014B00088ED00E0004402587FEDF6EA008000511C
:1014C0000148FFF7F3BD0000840000202DE9F0473C
:1014D000274B4FF0804A274D02889842264E274FCF
:1014E000274C09D0504507D0A84205D0B04203D0C0
:1014F000B84201D0A04205D1D1F804C022F0700258
:101500004CEA0202DFF87CC0DFF87C809842DFF80A
:101510007C900FD050450DD0A8420BD0B04209D0DE
:10152000B84207D0A04205D0604503D0404501D065
:10153000484503D1CD6822F440722A438D8A22F0B7
:1015400080022A43028098428A68C2620A88028521
:1015500007D0A04205D0604503D0404501D04845A2
:1015600001D1098A018601214161BDE8F0870000AF
:10157000000001400004004000080040000C004052
:101580000004014000400140004401400048014087
:101590007CB50F4D0224002380220EA12868CDE9DE
:1015A00000400E4800F0D0FC6868002380220CA1A7
:1015B000CDE900400C4800F0C7FCA8680023802259
:1015C0000AA1CDE900400B4800F0BEFC7CBD000044
:1015D000040000204C45443100000000ED1D0008CF
:1015E0004C45443200000000151E00084C454433B1
:1015F00000000000411E0008090700284FEA1161A1
:1016000004DB00F1E02080F80014704700F00F00C8
:1016100000F1E02080F8141D704702E008C8121F96
:1016200008C1002AFAD170477047002001E001C1CB
:10163000121F002AFBD1704786B0FEF7DBFFFFF7D1
:10164000A5FEFFF717FEFFF7FFFD084914226846C5
:10165000FEF79CFE0021684600F029F80449086066
:10166000FFF796FF00F014F8FEE700005021000895
:1016700000000020842801464FF0000000D0C81C64
:10168000704710B500B9012000F018FB002010BD14
:1016900010B500F03BFB002010BD10B500F080FC41
:1016A000012803D0BDE8104000F036BC10BD3EB5A7
:1016B0000D460446B0F90800FFF7DCFF02A92B46EF
:1016C000CDE90001228AD4E9001092B200F03CFC7E
:1016D000012801D000203EBD02983EBD2DE9F04119
:1016E000184C0F460546E6682068001D00F026FAF3
:1016F00038B922680121206992F82C209140884352
:101700002061681C07D137B12168BDE8F0410E485F
:10171000091D00F04BBA20683544B5424560216888
:1017200005D2A06B091DBDE8F04100F027BA606B3F
:10173000091D00F023FAA06A854200D2A562BDE827
:10174000F081000040000020A03D00202DE9F04184
:10175000054600F037FA2E4C2E4FA068401CA060C2
:10176000206810B1606940B32DE02560A0680128B1
:1017700029D1002606EB860007EB800000F0F0F987
:10178000761C072EF6D323488C3000F0E9F9214867
:10179000A03000F0E5F91F48B43000F0E1F91D4831
:1017A000C83000F0DDF91B48DC3000F0D9F91948E9
:1017B0008C3060631430A06305E0E86A2168C96A70
:1017C000814200D825600120616A491C6162E96A92
:1017D000226988401043206101EB8100291D07EB3D
:1017E000800000F0E3F900F011FA606900280CD0E5
:1017F0002068E96AC06A884207D207494FF08050E2
:101800000860BFF34F8FBFF36F8FBDE8F08100001A
:1018100040000020C43C002004ED00E070B5114EF3
:10182000114C17E000F0AAFA3068B8B100F02CFCB7
:1018300000F0C8F9F068C568281D00F07FF9A068BD
:10184000401EA0606068401E606000F0DFF928461E
:1018500000F00CF860680028E4D170BD00F014FCC2
:10186000F8E700008C3D00204000002010B5044641
:10187000006B00F0E1F92046BDE8104000F0DCB953
:1018800011484FF4705110B5420706D00E49C01DE3
:1018900020F00700411AC1F570510C4C002301449F
:1018A0000839A4F1100221F00701C4E900030C1A61
:1018B00011604B600B60C0E9001494604FF0004170
:1018C0005460D16010BD0000C4000020380000202A
:1018D000074C4FF08056074DFFF7A0FF2068012806
:1018E000FAD92E60BFF34F8FBFF36F8FF4E700007C
:1018F000C43C002004ED00E02DE9F0479A46814603
:101900006FF00303DDE9098403EB8202089D206B7D
:10191000104420F00706700709D072B6502080F3FB
:101920001188BFF34F8FBFF36F8F62B6FEE72318A6
:101930000A5C83F834200A5C12B1401C1028F6D3EC
:10194000002784F84370072D00D30625E562201D8B
:10195000C4E9115700F00FF904F1180000F00BF979
:10196000E764C5F10700A06184F850705246246115
:1019700049463046646200F0C9F8B8F1000F2060B3
:1019800001D0C8F80040BDE8F087000030B511492B
:1019900000E011460A688242FBD34B685C1884421F
:1019A00003D14468084623444B6043681D189542A0
:1019B00009D1084C103C2468A24209D052681A444C
:1019C00042600A6812680260814200D0086030BD3F
:1019D0000460F9E7380000200648416B096829B126
:1019E000416BC968C9684968816270474FF0FF312F
:1019F000FAE70000400000200A484068401C72B628
:101A00004FF0500080F3118805D0BFF34F8FBFF324
:101A10006F8F62B6FEE7BFF34F8FBFF36F8F62B673
:101A2000FEE700001C0000202DE9F04100270446DD
:101A300000F0A4F9344E306808B9FFF721FFF068D0
:101A400004424FD1E4B30834600710D004F007001B
:101A5000C0F108000444600709D072B6502080F33A
:101A60001188BFF34F8FBFF36F8F62B6FEE73CB3B1
:101A70007068844236D82448103001460D6801E071
:101A800028460D466968A14202D229680029F7D18B
:101A900031688D4226D00768296801600837686878
:101AA000011B102911D9281942070AD072B65020FB
:101AB00080F31188BFF34F8FBFF36F8F62B6FEE7DD
:101AC00010E041606C60FFF761FF69687068401A60
:101AD0007060B268904200D2B0600020F26811439A
:101AE000C5E9000100F0D0FA780709D072B650209D
:101AF00080F31188BFF34F8FBFF36F8F62B6FEE79D
:101B00003846BDE8F08100002800002070B5041FB1
:101B1000094E231F4FF0807521F0010125601C1F25
:101B20001960A0F120010B1F266044380A606FF095
:101B300002051D6070BD0000F9190008D0E90132EE
:101B400001699A60D0E901235A604A68824201D152
:101B500082684A60002202610868401E086070477F
:101B600000F108014FF0FF330022C0E90021C0E975
:101B700002310161704700210161704730B50B6887
:101B80005A1C02D000F1080202E0026904E0224679
:101B9000546825689D42FAD953684B6099608A6001
:101BA000516008610168491C016030BD42684A60AB
:101BB00093688B6093685960916008610168491C63
:101BC0000160704772B6502080F31188BFF34F8FC9
:101BD000BFF36F8F0B4962B64868401C486001280C
:101BE0000ED10948006810F0FF0F09D072B65020DE
:101BF00080F31188BFF34F8FBFF36F8F62B6FEE79C
:101C0000704700001C00002004ED00E0094948680E
:101C100028B1401E486001D180F31188704772B628
:101C2000502080F31188BFF34F8FBFF36F8F62B6E0
:101C3000FEE700001C00002070B500282BD0164DD8
:101C4000A0F108046068E968084209D172B6502022
:101C500080F31188BFF34F8FBFF36F8F62B6FEE73B
:101C600022684AB172B6502080F31188BFF34F8FBB
:101C7000BFF36F8F62B6FEE78843606000F07EF8C6
:101C800060686968084468602046FFF77FFEBDE829
:101C9000704000F0F9B970BD2800002006484FF4EC
:101CA0007A73072201684FF0E020B1FBF3F1491E7F
:101CB00041610261704700007C000020020010B505
:101CC00016D01048006B48B172B6502080F31188CE
:101CD000BFF34F8FBFF36F8F62B6FEE700F04EF891
:101CE00000211046FFF7FAFC00F0CEF9002807D1DA
:101CF00005494FF080500860BFF34F8FBFF36F8FDF
:101D000010BD00004000002004ED00E0174818A1BD
:101D10001CB5002480222346CDE90040164800F07F
:101D200013F901280BD0401C1ED172B6502080F34D
:101D30001188BFF34F8FBFF36F8F62B6FEE750205D
:101D400072B680F31188BFF34F8FBFF36F8F62B607
:101D500006484FF0FF322C38012182624161C46095
:101D6000BDE81C4000F084B81CBD00006C000020E1
:101D700049444C4500000000D11800080248016B9E
:101D8000491C016370470000400000201548016BAA
:101D900011B10121C16170470021C161124902697D
:101DA000B2FA82F2C2F11F0202EB820251F8223033
:101DB0006BB101EB820101F108034A6852684A6085
:101DC0009A4201D152684A60D1680160704772B688
:101DD000502080F31188BFF34F8FBFF36F8F62B62F
:101DE000FEE7000040000020C43C0020084C012217
:101DF00011462046FEF7EAFBFA20FFF75FFF0022BC
:101E000020460121FEF7E2FBFA20FFF757FFEEE73D
:101E100000040258094D4FF4FA740022802128462C
:101E2000FEF7D4FB2046FFF749FF01222846802118
:101E3000FEF7CCFB2046FFF741FFEEE70004025817
:101E40000A4C4FF480464FF47A7531460022204602
:101E5000FEF7BCFB2846FFF731FF01223146204642
:101E6000FEF7B4FB2846FFF729FFEEE7000402580F
:101E70002549FF201CB50A780192087008788DF872
:101E800000009DF800209DF8000002F0F002824260
:101E900009D072B6502080F31188BFF34F8FBFF383
:101EA0006F8F62B6FEE79DF800200720174C02F006
:101EB00050022270A06005E09DF8002052008DF8CD
:101EC0000020401E9DF800201206F5D4000200F408
:101ED000E060A060019808700D48016841F470014D
:101EE0000160016841F070410160FFF7D7FE0020FA
:101EF0006060FEF7FBF90748016841F0404101606E
:101F0000FEF7E4F900201CBD00E400E01C00002006
:101F100020ED00E034EF00E072B6502010B580F301
:101F20001188BFF34F8FBFF36F8F62B600F046F892
:101F300018B104494FF080500860002080F31188E8
:101F400010BD000004ED00E02DE9FF5F9946164644
:101F50008A4683469000DDE90E87FFF765FD0500A0
:101F60001AD05420FFF760FD040012D00021256331
:101F7000CDE900874B463246CDE9024151465846ED
:101F8000FFF7BAFC2046FFF7E1FB012004B0BDE8F3
:101F9000F09F2846FFF750FE4FF0FF30F6E70000B5
:101FA0000548416919B1006B18B100207047012044
:101FB0007047022070470000400000202DE9F041EA
:101FC0002F4C206B002740B1A069401CA061E06944
:101FD00000B101273846BDE8F081E668761CE6606E
:101FE00015D1606B006848B172B6502080F311883B
:101FF000BFF34F8FBFF36F8F62B6FEE7606BA16BCD
:102000006163A063206A401C2062FFF7E5FCDFF8F3
:102010007480A06A864209D3606B006880B1606BEF
:10202000C068C568686886420DD2A0622068C06A30
:1020300000EB800158F821000128C8D90127C6E724
:102040004FF0FF30F1E7281DFFF778FDA86A18B1BF
:1020500005F11800FFF772FDE86A0121226981404D
:102060001143216100EB800108EB8100291DFFF77E
:102070009DFD2068E96AC06A8142CDD30127CBE784
:1020800040000020C43C00202DE9F0472D4D286B76
:102090000024264638B1FFF795FD286B401E2863C3
:1020A000286B50B149E072B6502080F31188BFF31D
:1020B0004F8FBFF36F8F62B6FEE7234F0120A968F1
:1020C000D9B3A7F1B40980463868E8B1F868C468A4
:1020D00004F11800FFF732FD201DFFF72FFDE16A24
:1020E0002A6908FA01F01043286101EB810109EB2C
:1020F0008100211DFFF75AFD2968E06AC96A8842FC
:10210000E2D3C5F81C80DFE70CB1FFF765FCAC69D2
:1021100044B14746FFF752FF00B1EF61641EF9D1A9
:102120000020A861E86940B1084901264FF08050BD
:102130000860BFF34F8FBFF36F8FFFF767FD304627
:10214000BDE8F08740000020783D002004ED00E06D
:102150007421000881130008000000000000000046
:1021600080000000000000000102030401020304DB
:102170000607080964656661756C745461736B00C9
:10218000A021000800000020840000001A160008AA
:102190002422000884000020344100002A16000890
:1021A000000000000000000000000000000000002F
:1021B000010000001000000000000000000000000E
:1021C000AAAAAAAA00000000000000000000000067
:1021D00000000000000000000000000000000000FF
:1021E00000000000000000000000000000000000EF
:1021F00000000000000000000000000000000000DF
:1022000000000000000000000000000000000000CE
:102210000000000000000000000000000090D0035B
:042220000090D00357
:040000050800029954
:00000001FF
