:020000040800F2
:10000000C85200206D03000857250008DD220008B3
:10001000552500089D040008073B0008000000006B
:10002000000000000000000000000000AD02000819
:100030009F0400080000000009030008A127000831
:100040008703000887030008870300088703000868
:100050008703000887030008870300088703000858
:100060008703000887030008870300088703000848
:100070008703000887030008870300088703000838
:100080008703000887030008870300088703000828
:100090008703000887030008870300088703000818
:1000A0008703000829290008870300088703000840
:1000B00087030008870300088703000887030008F8
:1000C00087030008870300088703000887030008E8
:1000D00087030008870300088703000887030008D8
:1000E000870300088703000800000000870300085A
:1000F00087030008870300088703000887030008B8
:1001000087030008870300088703000887030008A7
:100110008703000887030008870300088703000897
:100120008703000887030008870300088703000887
:100130008703000887030008870300088703000877
:1001400000000000000000000000000000000000AF
:100150008703000887030008870300088703000857
:100160008703000887030008870300088703000847
:1001700087030008870300088703000800000000C9
:100180008703000887030008870300088703000827
:100190008703000887030008870300088703000817
:1001A0008703000887030008870300088703000807
:1001B00087030008870300088703000887030008F7
:1001C00087030008870300088703000887030008E7
:1001D00087030008870300088703000887030008D7
:1001E00087030008870300088703000887030008C7
:1001F00087030008870300088703000887030008B7
:1002000087030008870300088703000887030008A6
:100210008703000887030008870300088703000896
:100220008703000887030008870300080000000018
:100230008703000887030008000000008703000808
:100240008703000887030008870300088703000866
:100250008703000887030008870300088703000856
:100260008703000887030008870300088703000846
:1002700087030008870300088703000800000000C8
:1002800087030008870300088703000800000000B8
:100290000000000087030008DFF80CD000F0ECF845
:1002A00000480047493B0008C85200202C4B196801
:1002B0000868B0E8F04F80F30988BFF36F8F4FF004
:1002C000000080F3118870470000000008480068B3
:1002D000006880F308884FF0000080F3148862B64D
:1002E00061B6BFF34F8FBFF36F8F00DF00BF00BF5A
:1002F00008ED00E0DFF80C00016841F470010160D6
:10030000704700BF88ED00E0EFF30980BFF36F8F07
:10031000134B1A681EF0100F08BF20ED108A20E959
:10032000F04F106009B44FF0500080F31188BFF314
:100330004F8FBFF36F8F04F017FB4FF0000080F377
:10034000118809BC19680868B0E8F04F1EF0100F5A
:1003500008BFB0EC108A80F30988BFF36F8F704735
:1003600018000020EFF30580704700000648804722
:1003700006480047FEE7FEE7FEE7FEE7FEE7FEE78A
:10038000FEE7FEE7FEE7FEE78D2800089902000879
:100390002DE9F05F0546002092469B4688460646BA
:1003A000814640241BE0284641464746224600F04D
:1003B00053F853465A46C01A914110D31146184675
:1003C000224600F03AF82D1A67EB01084F46224604
:1003D0000120002100F031F817EB00094E41201EEA
:1003E000A4F10104DFDC484631462A464346BDE815
:1003F000F09F40EA01039B0703D009E008C9121FE0
:1004000008C0042AFAD203E011F8013B00F8013BCE
:10041000521EF9D27047D2B201E000F8012B491EFA
:10042000FBD270470022F6E710B513460A46044691
:100430001946FFF7F0FF204610BD202A04DB203AC2
:1004400000FA02F1002070479140C2F1200320FA27
:1004500003F3194390407047202A04DB203A21FA25
:1004600002F00021704721FA02F3D040C2F12002CD
:100470009140084319467047064C074D06E0E06876
:1004800040F0010394E8070098471034AC42F6D3DB
:10049000FFF706FF7454000894540008FEE7704705
:1004A00070B5044600F018F90546601C02D00448F7
:1004B0000078044400F010F9401BA042FAD370BD4C
:1004C000040000202DE9F84F714C00234FF0B04E8E
:1004D0004FF001094FF0030B4FF00F0AD0E000BFBF
:1004E00009FA03F812EA080274D04D68022D01D00F
:1004F000122D0FD1DD085F0700EB850500950E6911
:100500002D6AFF0E0AFA07FCBE4025EA0C052E43B1
:10051000009D2E625D000F7906680BFA05FC07F05E
:10052000030726EA0C06AF40374307604E68012EEA
:1005300005D0022E03D0112E01D0122E0FD18668C5
:10054000CF6826EA0C06AF403743876046680F79CC
:1005500026EA0806C7F300179F4037434760C6687E
:100560008F6826EA0C06AF403743C7604D68ED0040
:1005700030D5484D2E6846F002062E602D6823F0D7
:10058000030606F1B04605F0020500959D072F0F02
:10059000D6F80854DFF800810AFA07FC404525EA3E
:1005A0000C0502D14FF0000C41E0DFF8F0C06045CF
:1005B00002D14FF0010C3AE0DFF8E4C0604502D10F
:1005C0004FF0020C33E0DFF8DCC0604503D14FF0A0
:1005D000030C2CE053E0DFF8D0C0604502D14FF0AF
:1005E000040C24E0DFF8C4C0604502D14FF0050CD4
:1005F0001DE0DFF8BCC0604502D14FF0060C16E0EC
:10060000DFF8B0C0604502D14FF0070C0FE0DFF813
:10061000A8C0604502D14FF0080C08E0DFF89CC08C
:10062000604502D14FF0090C01E04FF00A0C0CFAC2
:1006300007FC4CEA050CC6F808C425684E6825EA94
:100640000205F60300D51543256065684E6825EA66
:100650000205B60300D5154365604F687546DEF8A0
:100660000060FF0226EA020600D516432E604F689E
:100670006E68BF0226EA020600D516436E605B1C58
:100680000A6832FA03F57FF42BAFBDE8F88F00005B
:1006900080000058F4440258000002580004025838
:1006A00000080258000C02580010025800140258AA
:1006B00000180258001C025800200258002402585A
:1006C0000AB1816170470904FBE700000148006836
:1006D000000C70470010005C014880687047000003
:1006E000040000200248816802781144816070474C
:1006F00004000020032010B500F0A2F801F000F97A
:100700000E490F4A0F4B0C68C4F30324145D04F028
:100710001F04E0401860096801F00F01515C01F00E
:100720001F01C84008490860002000F00FF808B118
:10073000012010BD00F044F8002010BD18440258FC
:1007400034540008100000201400002010B50022CE
:10075000014619208AB000F053F8192000F042F841
:100760001348016841F001010160006808A900F028
:1007700001000990684601F05BF801F0AFF80D49FF
:10078000400000220C4CB0FBF1F10C4840F2E73382
:100790000460C0E90332491EC0E9011201F0AAFB5E
:1007A00010B101200AB010BD044801F0BFFBF9E709
:1007B000F044025840420F0000000140B005002004
:1007C000074882B0016841F0020101600068002220
:1007D0000F2100F002000090901E02B000F010B84F
:1007E000F4440258002809DB410900F01F02890087
:1007F000012001F1E0219040C1F8000170470000A4
:100800000E4BF0B41B680D46C3F30223C3F1070679
:10081000042E00D90426191D072901D2002300E067
:10082000DB1E012404FA06F19C40491E2940641E87
:10083000994014402143F0BC03F066B90CED00E090
:10084000064900F0070210B54FF6FF040868044B94
:10085000204040EA02201843086010BD0CED00E083
:100860000000FA0501680123C0F8FC33002280F87B
:10087000F4238869044A40F000608861486D1043A1
:100880004865002070470000030000102DE9F0418A
:1008900004008AB005D094F8BD030025266820B175
:1008A00008E001200AB0BDE8F081204684F8BC537E
:1008B00000F066F8032084F8BD03F06BC00500D497
:1008C0002561206803F0E0F804F110016846282251
:1008D0008846FFF78EFD94E80F0002F0ADFF022777
:1008E000D8BB2068002103F0F7F80020012610E0B3
:1008F000C0EBC001421C04EB810181F83D6081F82E
:100900003F504D648D640D6581F83C00A1F84200B4
:10091000D0B261688142EBD8002011E0C0EBC00189
:10092000421C04EB810181F8FD5181F8FF51C1F8AF
:100930000452C1F80852C1F8105281F8FC01D0B23B
:1009400061688142EAD8282241466846FFF751FD96
:1009500094E80F0002F0D4FF10B184F8BD73A0E753
:10096000606A84F8385084F8BD63012802D12046BB
:10097000FFF778FF206802F0B7FF002092E7000041
:1009800030B587B0044614216846FFF74BFD18497F
:100990002068884229D11748016841F001010160AF
:1009A000006800240221144D00F0010005904FF46E
:1009B000E8500A228DE81300CDE903426946284633
:1009C000FFF780FD4FF400706946CDE9000428462A
:1009D0000294FFF777FD07480838016841F000618D
:1009E0000160006800F00060059007B030BD0000B5
:1009F00000000840E044025800000258124970B557
:100A00000A68520706D40A6802F00702824201D03F
:100A1000012070BD0A6822F0070202430A60FFF756
:100A20005BFE094D4FF47A760446083D07E000BFAF
:100A3000FFF752FE001BB04201D9032070BD2868A9
:100A40008004F5D5002070BD0C48025802480168AA
:100A500041F08071016070470C48025810B500F0F9
:100A60004FFF064A06491268064BC2F303229A5CFE
:100A700002F01F02D040086010BD00001844025868
:100A8000100000203454000810B500F0FFFE0549A6
:100A90000968054AC1F30211515C01F01F01C84009
:100AA00010BD00002044025834540008494930B5B4
:100AB000484C0B1D0A68143409681D68246802F04C
:100AC000030305F01002C1F30531C4F3CC0400297F
:100AD00014FB02F200EE102AF8EE400A75D03F4AED
:100AE0009FED3D1AB7EE000A6BB1DFED3D1A012B09
:100AF00001D0022B64D002EE101A1168F8EE422ADF
:100B000081EEA22A21E0334C283C23689B0612D5B3
:100B1000344B246801EE901A1168C4F3C104F8EE56
:100B2000612AE34001EE903AC1F30801F8EE611A40
:100B300081EEA22A0BE001EE901ADFED2B2A00BF16
:100B4000F8EE611A116882EEA12AC1F3080101EEE4
:100B5000901A1168F8EE611A40EE811A71EE800A5F
:100B600062EE200AC1F3462101EE101AB8EE411AD6
:100B700031EE001AC0EE811ABCEEE11A80ED001AC7
:100B80001168C1F3064101EE101AB8EE411A31EEB8
:100B9000001AC0EE811ABCEEE11A80ED011A11684C
:100BA000C1F3066101EE101AB8EE411A31EE000AE7
:100BB00080EE801ABCEEC10A80ED020A30BD04E06E
:100BC00001EE901ADFED092ABAE7002101604160C9
:100BD0008160F3E728440258000000393844025885
:100BE0000024744A0090D0030024744C0024F44A7A
:100BF000494930B5484C0B1D0A681C3409681D680A
:100C0000246802F0030305F48072C1F30551C4F3B4
:100C1000CC04002914FB02F200EE102AF8EE400A80
:100C200075D03F4A9FED3D1AB7EE000A6BB1DFED7C
:100C30003D1A012B01D0022B64D002EE101A11686C
:100C4000F8EE422A81EEA22A21E0334C283C2368A8
:100C50009B0612D5344B246801EE901A1168C4F338
:100C6000C104F8EE612AE34001EE903AC1F30801B5
:100C7000F8EE611A81EEA22A0BE001EE901ADFED88
:100C80002B2A00BFF8EE611A116882EEA12AC1F387
:100C9000080101EE901A1168F8EE611A40EE811A0F
:100CA00071EE800A62EE200AC1F3462101EE101AAD
:100CB000B8EE411A31EE001AC0EE811ABCEEE11A0C
:100CC00080ED001A1168C1F3064101EE101AB8EE6A
:100CD000411A31EE001AC0EE811ABCEEE11A80ED25
:100CE000011A1168C1F3066101EE101AB8EE411A3B
:100CF00031EE000A80EE801ABCEEC10A80ED020AD5
:100D000030BD04E001EE901ADFED092ABAE70021B8
:100D1000016041608160F3E7284402580000003917
:100D2000404402580024744A0090D0030024744CBC
:100D30000024F44A2DE9FC5F044650F8241B0025EA
:100D400000902E460801FE4FDFF8F8931DD5606E27
:100D500050B1B0F5801F0CD0B0F5001F0ED0B0F52B
:100D6000401F1DD001250FE0386840F40030386086
:100D700016E00221201D01F0EFFB03E000980221A4
:100D800001F07AFC05000BD02E462088C00523D543
:100D9000606D05281ED2DFE800F00C11161B1B0049
:100DA000626ED9F8001021F440111143C9F8001007
:100DB000EBE7386840F40030386009E00021201D7E
:100DC00001F0CAFB03E00098002101F055FC054644
:100DD0006DB100E001252E462088800528D5A06D44
:100DE00080281ED00CDC90B140280ED114E0626D3A
:100DF000D9F8001021F007011143C9F80010EBE702
:100E0000C02813D0B0F5807F10D001250FE03868DE
:100E100040F40030386009E00021201D01F09CFB07
:100E200003E00098002101F027FC054695B12E460D
:100E30002088DFF81083400508F108082CD5D4F885
:100E4000A400B0F5800F20D00DDCA0B1B0F5001FDC
:100E50000FD115E0A26DD9F8001021F4E071114313
:100E6000C9F80010E4E7B0F5C00F13D0B0F5000FDB
:100E700010D001250FE0386840F40030386009E0F8
:100E80000021201D01F068FB03E00098002101F023
:100E9000F3FB054675B12E46208800052DD5D4F804
:100EA000A800B0F1007F21D00EDCA8B1B0F1807FA6
:100EB00010D116E0D4F8A420D8F8001021F4600175
:100EC0001143C8F80010E7E7B0F1407F13D0B0F14C
:100ED000806F10D001250FE0386840F40030386092
:100EE00009E00021201D01F037FB03E000980021FC
:100EF00001F0C2FB05466DB12E46206880011FD56A
:100F0000A06CD8B110280FD0202812D0302815D0CE
:100F1000012514E0D4F8A820D8F8001021F0E061F1
:100F20001143C8F80010E8E7386840F40030386032
:100F300004E00221201D01F00FFB05466DB12E4695
:100F40002088C0042BD5E06DB0F5005F20D00DDC0B
:100F5000A0B1B0F5805F0FD115E07A48A26C001FF8
:100F6000016821F0300111430160E9E7B0F5405F0D
:100F700013D0B0F5804F10D001250FE0386840F451
:100F80000030386009E00021201D01F0E5FA03E09F
:100F90000098002101F070FB054685B12E4620889F
:100FA000800429D5206EB0F5403F23D010DC08B373
:100FB000B0F5803F14D0B0F5003F0FD115E0E26DE1
:100FC000D9F8001021F4E0411143C9F80010E6E718
:100FD000B0F5802F0ED0B0F5A02F0BD001250AE080
:100FE0000121201D01F0B8FA03E00098012101F071
:100FF00043FB05468DB12E46208840042AD5D4F8FF
:10100000AC00B0F1405F23D010DC08B3B0F1805FDA
:1010100014D0B0F1005F0FD115E0226ED9F80010A6
:1010200021F4E0211143C9F80010E5E7B0F1804F49
:101030000ED0B0F1A04F0BD001250AE00121201DF8
:1010400001F08AFA03E00098012101F015FB054642
:101050006DB12E46208800041FD5E06ED8B1B0F1E6
:10106000805F0ED0B0F1005F10D0012514E0D4F8FD
:10107000AC20D8F8001021F0E0411143C8F800106E
:10108000E8E7386840F40030386004E00121201DB2
:1010900001F062FA05466DB12E462068C0011ED5EA
:1010A000606CD0B101280ED0022811D0032814D0D2
:1010B000012513E0E26ED9F8001021F040511143F0
:1010C000C9F80010E9E7386840F40030386004E0FF
:1010D0000221201D01F040FA054685B12E46206808
:1010E000DFF85CB04002ABF11C0B57D51648016825
:1010F00041F480710160FFF7EFFA82460EE011487B
:10110000626C001F016821F0030111430160E6E7F2
:10111000FFF7E2FAA0EB0A0064283DD80A4800680D
:10112000C005F5D57DBBDFF81CA0B4F8B0100AF1FE
:10113000200ADAF8000001F4407100F4407005E084
:101140002C4402585044025800480258884211D09A
:10115000DAF80010DAF8002021F4407142F480320D
:10116000CAF80020DAF8002022F48032CAF8002001
:10117000CAF80010D4F8B000B0F5807F21D1FFF795
:10118000ABFA019019E008E0FFF7A6FA0199411ABD
:1011900041F28830814210D903252E462078DFF8AD
:1011A0002CA4C0073DD0A06F182838D026DC80B30F
:1011B000082829D0102825D12CE0DAF80000800773
:1011C000E2D5D4F8B010C1F30120032858460DD061
:1011D000016821F47C510160B4F8B020DAF8001005
:1011E000C2F30B021143CAF80010D7E7F84A0368AC
:1011F00002EA111223F47C511143ECE720280ED0AF
:1012000028280CD001250BE00121201D01F0A4F9B4
:1012100004E004E00098012101F02EFA05465DB1DA
:101220002E46207880071ED5606F062819D2DFE889
:1012300000F0160C11161616A26FDAF8001021F045
:1012400038011143CAF80010EBE70121201D01F01D
:1012500083F903E00098012101F00EFA054675B10B
:1012600000E001252E46207840071FD5D4F89000D5
:10127000062819D2DFE800F0160C11161616626F58
:10128000DAF8001021F007011143CAF80010EAE76C
:101290000121201D01F060F903E00098012101F017
:1012A000EBF905469DB100E001252E462078800629
:1012B0002BD5D4F88C00B0F1405F24D011DC10B3F2
:1012C000B0F1805F15D0B0F1005F10D116E0D4F816
:1012D0009020D8F8001021F007011143C8F8001041
:1012E000E4E7B0F1804F0ED0B0F1A04F0BD0012554
:1012F0000AE00021201D01F02FF903E000980221EF
:1013000001F0BAF905468DB12E46207840062BD55E
:10131000D4F89800B0F5406F24D011DC10B3B0F5CC
:10132000806F15D0B0F5006F10D116E0D4F88C2086
:10133000DAF8001021F0E0411143CAF80010E4E7A8
:10134000B0F5805F0ED0B0F5A05F0BD001250AE0AC
:101350000021201D01F000F903E00098022101F0B6
:101360008BF905468DB12E46207800062BD5D4F892
:101370009C00B0F5C04F24D011DC10B3B0F5005F75
:1013800015D0B0F5804F10D116E0D4F89820D8F8D9
:10139000001021F4E0511143C8F80010E4E7B0F563
:1013A000004F0ED0B0F5204F0BD001250AE00021F0
:1013B000201D01F0D1F803E00098022101F05CF952
:1013C000054665B32E46207800070BD5D4F880106B
:1013D000B1F5805F2DD0DAF8002022F440520A43A4
:1013E000CAF800202078C0060BD5D4F89410B1F5C7
:1013F000807F26D0D8F8002022F440720A43C8F833
:1014000000202068000330D5D4F8A00008B3B0F560
:10141000803F23D0B0F5003F25D0012524E0D4F84B
:101420009C20D8F8001021F460411143C8F8001046
:10143000C9E70098022101F01FF90028D2D0012647
:10144000D0E70098022101F017F90028D9D0012631
:10145000D7E70021201D01F07FF803E0009802216A
:1014600001F00AF9054685B12E462068400322D5D1
:10147000D4F88400B0F5801F11D0B0F5001F13D050
:10148000B0F5401F15D0012514E0D4F8A020D8F8FD
:10149000001021F440311143C8F80010E5E7386826
:1014A00040F40030386004E00098012101F0E4F8D5
:1014B000054655B12E462068C0031CD5E06C70B1BE
:1014C000B0F5803F10D0012514E0D4F88420DAF87C
:1014D000001021F440111143CAF80010EBE73868FE
:1014E00040F40030386004E00221201D01F034F89F
:1014F0000546CDB12E462068800005D50098022112
:1015000001F0BAF800B10126206880031BD5E06F16
:10151000B8B1B0F5807F10D0B0F5007F11D0B0F534
:10152000407F0ED001250DE02848E26C08380168A4
:1015300021F4803111430160DDE7386840F4003068
:101540003860EDB32E462068C00207D5226FD9F867
:10155000001021F000411143C9F800102068C000BC
:1015600008D5D4F8B420DBF8001021F480411143F1
:10157000CBF800102068800207D5A26ED9F80010C1
:1015800021F080711143C9F80010206840000CD58B
:10159000DBF8001021F40041CBF80010DBF800105C
:1015A000D4F8B8201143CBF800102068002809DADD
:1015B0000648226D0838016821F04051114300E0CF
:1015C00008E001607EB10120BDE8FC9F5444025850
:1015D000CFFFFF00E26FDAF8001021F440711143F1
:1015E000CAF80010AFE70020EEE700002DE9F05F39
:1015F00004000F467ED0DFF82482D8F8000000F007
:101600000F00B8420CD2D8F8001021F00F01394376
:10161000C8F80010D8F8000000F00F00B84269D1F7
:1016200020787F4D40070AD52069296801F07001B4
:10163000884204D9296821F070010143296020788B
:10164000774E361D00070AD56069316801F07001D8
:10165000884204D9316821F070010143316020785B
:10166000C0060AD5A069316801F4E061884204D956
:10167000316821F4E061014331602078DFF8A0B1E6
:1016800080060BF1080B0CD5E1695846DBF8002009
:1016900002F07002914204D9026822F070020A43FB
:1016A0000260207880070AD5E068296801F00F0100
:1016B000884204D9296821F00F010143296020786C
:1016C000C0073ED05649A2682868183920F47060D7
:1016D000104328606068022818D0032819D00968D0
:1016E000012819D0490700294ADADFF834A1AAF104
:1016F000080A00E044E0DAF8002022F00702024382
:10170000CAF80020FEF7E8FF814612E00968890365
:10171000E9E709688901E6E7C905E4E7FEF7DCFFC8
:10172000A0EB090141F28830814202D90320BDE8D3
:10173000F09F6168DAF8000000F03800B0EBC10FEC
:10174000ECD1207880070AD5E068296801F00F0104
:10175000884204D2296821F00F0101432960D8F89A
:101760000010404601F00F01B9420BD9016821F089
:101770000F0139430160006800F00F00B84201D04A
:101780000120D4E7207840070AD52069296801F0B4
:101790007001884204D2296821F070010143296058
:1017A000207800070AD56069316801F0700188422D
:1017B00004D2316821F07001014331602078C00605
:1017C0000AD5A069316801F4E061884204D2316829
:1017D00021F4E06101433160207880060CD5E16995
:1017E0005846DBF8002002F07002914204D20268F1
:1017F00022F070020A43026000F082F82968094A68
:10180000C1F30321515C01F01F01C8400649086083
:1018100006480068BDE8F05FFEF798BF0020005260
:10182000184402583454000810000020080000201A
:1018300070B5144C3F220260124A24680832131D0E
:10184000114D04F00704446016681C1D06F4706610
:101850008660166806F00F06C660126802F0700215
:1018600002611A6802F0700242611A6802F4E062D2
:101870008261226802F07002C261286800F00F00E5
:10188000086070BD104402580020005210B5FFF7E8
:10189000E5F8064A06491268064B02F00F029A5C08
:1018A00002F01F02D040086010BD0000184402582A
:1018B000140000203454000810B5FFF7E7FF054975
:1018C0000968054AC1F30211515C01F01F01C840CB
:1018D00010BD00001C4402583454000810B5FFF736
:1018E000D5FF05490968054AC1F30221515C01F0A1
:1018F0001F01C84010BD00001C44025834540008A9
:10190000454970B545480968434B103B11F0380212
:1019100008D00111082A03D0102A0BD0182A0BD0A6
:10192000084670BD19688906FBD51968C1F3C10165
:10193000C84070BD3A4870BD3749374D18310C1D4D
:1019400024350A68096826682D6802F0030406F049
:101950000102C1F30511C5F3CC0515FB02F200EE3F
:10196000102AB8EE400AE9B32F4ADFED2E0AB7EE8F
:10197000001A6CB1DFED2D1A012C01D0022C43D0DE
:1019800002EE101A1068F8EE422A81EEA22A1EE03A
:101990001C68A40611D51B6801EE901A1168C3F3E8
:1019A000C103F8EE612AD84001EE900AC1F30800A5
:1019B000F8EE611A81EEA22A0BE001EE901ADFED3B
:1019C0001C2A00BFF8EE611A106882EEA12AC0F34B
:1019D000080001EE900AF8EE611A40EE201A31EE8E
:1019E000810A00E015E022EE000A1068C0F34620EC
:1019F000401C00EE900AF8EE600A80EE201ABCEE61
:101A0000C10A10EE100A70BD01EE901ADFED092A2E
:101A1000D8E7002070BD0000104402580090D003A9
:101A200000127A0000000039304402580024744A41
:101A30000024744C0024F44A2DE9F05F04007DD0AA
:101A4000FF4F2078FE4D1837DFF8F493103DC007A4
:101A500048D0D9F80000396800F03800102815D0B7
:101A6000182803D101F0030002280FD06068B0F5F8
:101A7000803F12D010B1B0F5A02F18D0286820F404
:101A800080302860286820F4802009E028688003DE
:101A900028D560680028D2D024E0286840F480303F
:101AA0002860606888B1FEF717FE064609E02868DE
:101AB00040F480202860F0E7FEF70EFE801B6428CB
:101AC0006FD828688003F7D50CE0FEF705FE0646C0
:101AD00005E000BFFEF700FE801B6428F0D82868F0
:101AE0008003F7D4207841F20308D54E0C3E8007DE
:101AF00061D5D9F80000396810F038000ED01828E8
:101B000001D188070AD0E06880B3296821F0190163
:101B100001432960FEF7E0FD82462FE02868400778
:101B200002D5E06800288AD0E168286820F0190012
:101B300008432860FEF7D0FD824607E0D1E000BFF1
:101B4000FEF7CAFDA0EB0A000228B9D828684007B2
:101B5000F6D500BFFEF7BAFD404513D820693168BD
:101B600021F47C3141EA0030306024E011E000BF14
:101B7000FEF7B2FDA0EB0A000228A1D828684007B2
:101B8000F6D5E7E7207C316821F0FE4141EA0060AC
:101B9000EAE7286820F001002860FEF79DFD8246F4
:101BA00006E0FFE0FEF798FDA0EB0A00022887D8C8
:101BB00028684007F6D42078C00657D5D9F8000029
:101BC000DFF87CB2396800F03800ABF1040B08286C
:101BD00010D0182803D101F0030001280AD0E069D1
:101BE0000028286832D040F080002860FEF774FD9D
:101BF000824623E02868C00523D5E069802870D19B
:101C00001FE000BF94F82000316821F0F84141EA5C
:101C1000806030602AE000BF94F82010DBF80020DC
:101C200022F07C5242EA0161CBF800101EE000BFB6
:101C3000FEF752FDA0EB0A00022886D82868C005EE
:101C4000F6D5FEF743FD4045E6D8DBE720F08000FF
:101C50002860FEF741FD064605E000BFFEF73CFDAB
:101C6000801B022889D82868C005F7D4207800078F
:101C700029D573486169643000298046016811D014
:101C800041F001010160FEF727FD064605E000BFB7
:101C9000FEF722FD801B022889D8D8F800008007B3
:101CA000F6D510E021F001010160FEF715FD0646B2
:101CB00005E000BFFEF710FD801B022872D8D8F89F
:101CC00000008007F6D42078800623D5A06900287C
:101CD000286810D040F480502860FEF7FDFC0646CE
:101CE00005E0E6E0FEF7F8FC801B02285AD82868D9
:101CF0008004F7D50EE020F480502860FEF7ECFC5D
:101D0000064604E0FEF7E8FC801B02284AD8286853
:101D10008004F7D4207840074FD5DFF82881D8F821
:101D2000001041F48071C8F80010FEF7D5FC06469B
:101D300005E000BFFEF7D0FC801B642832D8D8F83D
:101D40000000C005F6D53E4EA068603601280AD0D6
:101D500008B1052813D0306820F0010030603068E9
:101D600020F0040002E0306840F001003060A0681C
:101D700041F2883A90B1FEF7AFFC80460AE0306845
:101D800040F004003060EEE7FEF7A6FCA0EB08018F
:101D9000514507D830688007F6D50EE0FEF79CFC69
:101DA000804607E084E000BFFEF796FCA0EB080148
:101DB00051457DD830688007F6D4606AF0B3D9F811
:101DC0000010C1F3C201032973D00228286820F053
:101DD0008070286003D0FEF77FFC044680E0FEF7A9
:101DE0007BFC064605E000BFFEF776FC801B022860
:101DF00073D828688001F7D4E26A40F2F33138687A
:101E000054F8283F884340EA021018433860217B89
:101E10004FF4FE0C22894FF0FE47208A4902084BFE
:101E2000521E267DA1F5007189B2401EC2F3080240
:101E300020331143761E0CEA004005E053E0000019
:101E40001044025800480258014307EA0662181F6E
:101E5000114319601A1D016821F001010160116828
:101E60004FF6F876236AB14341EAC3011160016875
:101E7000A26921F00C01114301600168E26921F0BF
:101E8000020111430160016841F480310160016881
:101E900041F400310160016841F480210160016872
:101EA00041F001010160286840F08070286001E085
:101EB00013E01AE0FEF710FC044604E0FEF70CFC09
:101EC000001B022809D828688001F7D50BE000BF65
:101ED000FEF702FC001B022802D90320BDE8F09F98
:101EE00028688001F4D40020F8E70120F6E7704765
:101EF0007047704710B5040003D094F83D0010B14E
:101F000007E0012010BD002084F83C00204600F0CE
:101F10000CF8022084F83D002068211D00F00AFD25
:101F2000012084F83D00002010BD70470168094A77
:101F3000CB6843F00103CB60016888681040062835
:101F400006D0B0F5803F03D0086840F0010008607B
:101F50000020704707000100704770B50446006814
:101F600000250169C943890715D4C168C943890798
:101F700011D4EA1E0261012121772068806980075F
:101F8000204602D0FFF7E8FF04E000F0A7F8204663
:101F900000F0A5F8257720680169C943490717D4DF
:101FA000C168C943490713D402216FF004020261DA
:101FB00021772068806910F4407F204602D0FFF727
:101FC000CBFF04E000F08AF8204600F088F825777F
:101FD00020680169C943090716D4C168C9430907C4
:101FE00012D404216FF00802026121772068C069D1
:101FF0008007204602D0FFF7AFFF04E000F06EF844
:10200000204600F06CF8257720680169C943C906AD
:1020100017D4C168C943C90613D408216FF0100250
:10202000026121772068C06910F4407F204602D009
:10203000FFF792FF04E000F051F8204600F04FF85F
:10204000257720680169C943C90708D1C168C94318
:10205000C90704D1891E0161204600F041F82068BB
:102060000169C943090609D4C168C943090605D4F1
:102070006FF0800101612046FFF73AFF2068016997
:10208000C943C90509D4C168C943090605D46FF419
:10209000807101612046FFF72AFF20680169C9436A
:1020A000490609D4C168C943490605D46FF0400107
:1020B0000161204600F01EF820680169C9438906C5
:1020C0000BD4C168C943890607D46FF020010161B0
:1020D0002046BDE87040FFF70CBF70BD70477047E9
:1020E00000680349884201D1FEF7FCBA704700003E
:1020F00000000140704730B590F87C10012918D0DD
:10210000012280F87C202421C0F8801000222024A5
:1021100050F8601B0B680D6823F0005325F0010593
:102120000D60426050F8601C0B600462027710463C
:1021300030BD022030BD70B5044690F87C00012807
:102140001DD0012284F87C202420C4F8800020685F
:102150000568026822F0010202602068826822F0AD
:1021600060620A438260204600F046FC226820211B
:1021700000201560C4F8801084F87C0070BD022037
:1021800070BD70B5044690F87C0001281DD0012276
:1021900084F87C202420C4F8800020680568026848
:1021A00022F0010202602068826822F060420A4345
:1021B0008260204600F020FC22682021002015606B
:1021C000C4F8801084F87C0070BD022070BD10B58A
:1021D000040003D0D4F8800010B107E0012010BD46
:1021E000002084F87C00204600F026F82420C4F863
:1021F00080002068016821F001010160204600F0A4
:10220000C1FC0128EBD0A06A10B1204600F026FCEA
:102210002068416821F4904141602068816821F084
:102220002A0181602068016841F0010101602046B7
:10223000BDE8104000F076BC70B586B004461421AD
:102240006846FEF7EFF8204A0023204E022025685A
:10225000083A1D490724B54216D10D6845F40035EA
:102260000D60096801F400310591116841F0010128
:102270001160116801F0010105910C210091CDE977
:1022800001031348694619E0124EB5421AD10D6890
:1022900045F480250D60096801F4802105911168DD
:1022A00041F008011160116801F0080105914FF437
:1022B00040710091CDE9010307486946CDE9033437
:1022C000FEF700F906B070BDE84402580044004033
:1022D0000000025800480040000C0258FEE70000D1
:1022E000094D4FF47A74012211462846FEF7E8F9A9
:1022F000204601F07FFC002228460121FEF7E0F98C
:10230000204601F077FCEEE700040258094D4FF437
:10231000FA74012280212846FEF7D2F9204601F006
:1023200069FC002228468021FEF7CAF9204601F008
:1023300061FCEEE700040258094C4FF4804501228D
:1023400029462046FEF7BCF9FA2001F053FC002292
:1023500029462046FEF7B4F9FA2001F04BFCEEE7DF
:10236000000402582DE9F04786B014216846FEF7B4
:1023700059F84048016841F004010160016801F02A
:1023800004010591016841F080010160016801F0DC
:1023900080010591016841F001010160016801F0CF
:1023A00001010591016841F002010160016801F03D
:1023B00002010591016841F008010160016801F026
:1023C00008010591016841F040010160006844F294
:1023D0008106DFF8A490002200F04000314605900D
:1023E0004846FEF76DF9DFF894A0002240215046E0
:1023F000FEF766F9002422484FF40055009569461F
:10240000CDE901041F48FEF75DF84FF00108009682
:10241000CDE90184694648460394FEF753F80B273B
:10242000009502266946CDE90164CDE90347484697
:10243000FEF748F840210091CDE9018469465046F5
:102440000394FEF73FF880206946CDE9000450462A
:102450000294FEF737F84FF420500090CDE9016464
:10246000CDE9034769465046FEF72CF806B0BDE8B3
:10247000F0870000E0440258000402580018025897
:1024800000001111000802581148002110B50F4C2E
:102490000C224FF4E1330460C0E90131C160C0E9AE
:1024A00004128161C161016241628162FFF78FFEA6
:1024B00007480021FFF765FE05480021FFF73BFEB6
:1024C000BDE810400248FFF716BE0000004400407F
:1024D000900000201148002110B50F4C0C224FF441
:1024E000E1330460C0E90131C160C0E904128161D7
:1024F000C161016241628162FFF769FE0748002104
:10250000FFF73FFE05480021FFF715FEBDE810402C
:102510000248FFF7F0BD0000004800401C01002009
:102520000B48002130B40223084D0122C0E90331D9
:1025300083610924C0E90721C0E90912C0E90B2120
:10254000C0E9005430BCFEF7A1B90000000008400B
:10255000A8010020FEE770472DE9F047454D0446ED
:1025600089464FF0000A2868C04380070AD0414ED0
:10257000283E306820F080603060FEF7ADF80746F6
:10258000B04608E00120BDE8F08700BFFEF7A4F8E0
:10259000C01B022867D8D8F800000001F6D42068D4
:1025A00029684FF4FE0721F47C313E0241EA0030F5
:1025B0002860207AA389B4F804C040022D4D2D492B
:1025C0005B1E227CACF1010C1035091DA0F50070DA
:1025D00080B2521ECCF3080C07EA034340EA0C0019
:1025E000184306EA0262104328600868626920F016
:1025F000C000104308600A68A06922F0200202436C
:102600000A60281D0A6822F010020A6002684FF66C
:10261000F873E4699A4342EAC40202600868B9F1B7
:10262000000F40F010020A6011D00868B9F1010FE4
:1026300011D040F400100860D8F80000444640F083
:102640008060C8F80000FEF747F805460DE008680E
:1026500040F40020EFE740F48010ECE7FEF73CF890
:10266000401B022801D903208DE720680001F5D521
:10267000504688E7284402582DE9F047454D044666
:1026800089464FF0000A2868C04380070AD0414EAF
:10269000283E306820F080503060FEF71DF8074675
:1026A000B04608E00120BDE8F08700BFFEF714F84F
:1026B000C01B022867D8D8F800008000F6D4208814
:1026C00029684FF4FE0721F07C713E0241EA005078
:1026D0002860207AA389B4F804C040022D4D2D490A
:1026E0005B1E227CACF1010C1835091DA0F50070B1
:1026F00080B2521ECCF3080C07EA034340EA0C00F8
:10270000184306EA0262104328600868626920F4F0
:102710004060104308600A68A06922F40072024316
:102720000A60281D0A6822F480720A6002684FF667
:10273000F873E4699A4342EAC40202600868B9F196
:10274000000F40F480720A6011D00868B9F1010FDF
:1027500011D040F080700860D8F80000444640F086
:102760008050C8F80000FDF7B7FF05460DE0086887
:1027700040F48000EFE740F40000ECE7FDF7ACFF29
:10278000401B022801D903208DE720688000F5D581
:10279000504688E728440258012001F02BFAFBE755
:1027A000502010B580F31188BFF34F8FBFF36F8FA8
:1027B00002F058FC18B104494FF080500860002026
:1027C00080F3118810BD000004ED00E030B5CBB0FF
:1027D0004C212FA8FDF726FE202142A8FDF722FE5E
:1027E000BC216846FDF71EFE0220FEF707F92449CA
:1027F00024480A6822F001020A600968016800247E
:1028000041F440410160016801F440414A9101688E
:102810008904FCD520230122359222212F91CDE974
:10282000322338AB0220082583E831006421CDE94A
:102830003B103EA93D900C2281E815002FA8419441
:10284000FFF7FAF840203F210301CDE9455003226C
:10285000CDE9470342AB499042A883E81600022124
:10286000FEF7C4FE08484FF440111D9421910090DA
:102870006846FEF75FFAFEF7E9F84BB030BD00009E
:102880002C0400581848025802000400214A30B5B0
:10289000214914680020204B44F470041460103364
:1028A0000A681E4D42F001020A6018600A681A4B5D
:1028B0002A400A6018331C1D251D174A186028324B
:1028C0002060131D28601C1D251D10602A1D186026
:1028D000131D20601C1D2860251D106018602060DD
:1028E00028600A680C4B0E4C22F4802260330A6088
:1028F000186020686FF30F00B0F1005F03D2094940
:102900000120C1F808014FF00060024980390860D9
:1029100030BD000088ED00E0004402587FEDF6EA8B
:102920000010005C008000510148FFF716BB00005A
:10293000B00500202DE9F047274B4FF0804A274D86
:1029400002689842264E274F274C09D0504507D0A1
:10295000A84205D0B04203D0B84201D0A04205D170
:10296000D1F804C022F070024CEA0202DFF87CC009
:10297000DFF87C809842DFF87C900FD050450DD076
:10298000A8420BD0B04209D0B84207D0A04205D02F
:10299000604503D0404501D0484503D1CD6822F4BD
:1029A00040722A434D6922F080022A430260984215
:1029B0008A68C2620A68826207D0A04205D0604578
:1029C00003D0404501D0484501D109690163012187
:1029D0004161BDE8F08700000000014000040040B4
:1029E00000080040000C004000040140004001408D
:1029F00000440140004801403FB514A1D1E9002343
:102A000014A1CDE90023D1E90021CDE90221416ED5
:102A1000B9B1016802AC8A688968C2F34262490FA1
:102A20001DF80150615CED00B5FBF1F1A0F86A10F2
:102A30001DF80210A25CC900B1FBF2F1A0F8681009
:102A40003FBD0121A0F86A10F8E700000101010371
:102A500007010000080402040801010190F8281091
:102A6000C90706D00168C36A4A6822F400321A43D3
:102A70004A6090F82810890706D50168036B4A68F8
:102A800022F480321A434A6090F82810490706D58C
:102A90000168436B4A6822F480221A434A6090F826
:102AA0002810090706D50168836B4A6822F40042A2
:102AB0001A434A6090F82810C90606D50168C36B0E
:102AC0008A6822F480521A438A6090F82810890696
:102AD00006D50168036C8A6822F400521A438A60A2
:102AE00090F82810490611D50168436C4A6822F411
:102AF00080121A434A60416CB1F5801F06D101680B
:102B0000836C4A6822F4C0021A434A6090F8281085
:102B1000090606D50168C26C486820F400201043FD
:102B200048607047F8B500260446C0F88860FDF795
:102B3000D3FD054620686FF07E470068000708D582
:102B400000222B464FF400112046009700F022FE91
:102B500060B92068006840070AD500222B464FF470
:102B600080012046009700F015FE08B10320F8BD53
:102B70002020C4F8800084F87C60C4F88400002021
:102B8000F8BD00002DE9F04F04468068F94E87B08B
:102B90002168D4E90457E269636E28430D6817433E
:102BA0003843F54A03434FF0000835401D430D609C
:102BB0002068E368416821F440511943416023686B
:102BC000A069934201D0216A08439D68EB4FEC4E07
:102BD000EC493D4005439D602068656AC36A23F067
:102BE0000F032B43C3622068B0420ED1096801F085
:102BF0003801182973D047DCB9B3082979D01029D6
:102C00006FD178E028297ED17BE0DF4B984209D153
:102C1000096801F00701062975D2DFE801F0546A5E
:102C20006C6E7072D94B984209D1096801F00701A6
:102C3000062968D2DFE801F0475D5F616365D44B28
:102C4000984209D1096801F0070106295BD2DFE843
:102C500001F03A5052545658CE4B98420BD1096865
:102C600001F0070106294ED200E010E0DFE801F094
:102C70002B4143454749C84B98420AD1096801F0A6
:102C80003801182939D0B7DD2029BBD137E0012719
:102C90003AE0C24B984209D1096801F007010629C0
:102CA00031D2DFE801F01026282A2C2EBC4B9842A6
:102CB0000BD1096801F00701062924D2DFE801F0F1
:102CC00003191B1D1F2100271EE090421BD1AD4997
:102CD000091D096801F00701062914D202E00CE081
:102CE00007E010E0DFE801F0030507090B0D0227FC
:102CF0000AE0042708E0082706E0102704E0202760
:102D000002E0402700E08027DFF898A2DFF898B2C1
:102D100090424FF480754FF000097AD1102F51D0B6
:102D200006DC022F09D0042F27D0082F72D12DE006
:102D3000202F70D0402F6DD1F0E0FDF7A5FE0146A9
:102D4000606A1FE0012827D0022827D0032827D057
:102D5000042827D0052827D0062827D0072827D0E1
:102D6000082827D0092827D00A2827D00B2827D0C1
:102D70000AE000BFB1FBF0F07EE06846FDF796FE8A
:102D8000606A01990028DDD10120F3E703A8FDF76F
:102D90002FFF606A0499F5E70220EBE70420E9E7DA
:102DA0000620E7E70820E5E70A20E3E70C20E1E753
:102DB0001020DFE72020DDE74020DBE78020D9E797
:102DC0002846D7E7DBF8000059468006606A39D507
:102DD0000968C1F3C1012AFA01F2A8B101281BD088
:102DE00002281BD003281BD004281BD005281BD089
:102DF00006281BD007281BD008281BD009281BD069
:102E00000A281BD00B281BD05FF00100B2FBF0F0AA
:102E100032E033E2A2E050E00220F7E70420F5E7D9
:102E20000620F3E70820F1E70A20EFE70C20EDE7A2
:102E30001020EBE72020E9E74020E7E78020E5E7E6
:102E40002846E3E7A8B1012821D0022821D0032891
:102E500021D0042821D0052821D0062821D00728F8
:102E600021D0082821D0092821D00A2821D00B28D8
:102E700021D00120BAFBF0F000286ED0666806EB86
:102E8000460181426AD8B0EB063F67D89DE0022038
:102E9000F0E70420EEE70620ECE70820EAE70A2046
:102EA000E8E70C20E6E71020E4E72020E2E74020F6
:102EB000E0E78020DEE72846DCE7606AA8B1012869
:102EC00016D0022816D0032816D0042816D00528BC
:102ED00016D0062816D0072816D0082816D009289C
:102EE00016D00A2816D00B2816D001202F4941E70A
:102EF0000220FBE70420F9E70620F7E70820F5E7C2
:102F00000A20F3E70C20F1E71020EFE72020EDE79F
:102F10004020EBE78020E9E72846E7E7606AA8B1B0
:102F2000012818D002281AD003281AD004281AD051
:102F300005281AD006281AD0072839D0082839D0F1
:102F4000092839D00A2839D00B2839D05FF0010080
:102F50004FF400410EE70220FAE77CE232E0042061
:102F6000F6E70620F4E70820F2E70A20F0E70C2055
:102F7000EEE70000F369FFCF000C0058FFF4FF11EB
:102F800000100140544402580044004000480040F2
:102F9000004C004000500040001401400078004008
:102FA000007C00400090D0030044025800093D001E
:102FB0001020CDE72020CBE74020C9E78020C7E7DD
:102FC0002846C5E74FF0010845E2102F7FD023DCEB
:102FD000022F4ED0042F75D0082FF3D103A8FDF790
:102FE00007FE0499606AA8B1012846D0022846D09D
:102FF000032846D0042846D0052846D0062846D0C7
:10300000072846D0082846D0092846D00A2846D0A6
:103010000B2845D0012543E0202F7DD0402FD1D172
:10302000606AA8B1012878D0022877D0032876D02A
:10303000042875D0052874D0062873D0072872D0CC
:10304000082871D0092870D00A286FD00B2800D02A
:1030500001254F4600232A464FF400400021FDF78A
:1030600097F902467008130E1202101843EA012164
:103070006AE0FDF709FD0146B4E7022510E00425EA
:103080000EE006250CE008250AE00A2508E00C25DC
:1030900006E0102504E0202502E0402500E0802520
:1030A0004E4600232A4608461946FDF771F9626824
:1030B0000902030241EA106150081818714145E005
:1030C00005E0FFE76846FDF7F1FC01998AE7DBF8C8
:1030D00000105846890656D50068C0F3C1002AFA88
:1030E00000F1606AA8B1012839D0022839D003283C
:1030F00039D0042839D0052839D0062839D00728F6
:1031000039D0082839D0092839D00A2839D00B28D5
:1031100000D001252A460AE067E099E09AE09BE0AA
:103120009CE09DE09EE09FE0A0E0A1E0A2E0002303
:103130004F4608461946FDF72BF909020346720867
:103140000002801841EA1361324679410023FDF7FD
:103150001FF9FA49A0F540728A426ED932E702257A
:10316000D8E70425D6E70625D4E70825D2E70A25BF
:10317000D0E70C25CEE71025CCE72025CAE740256F
:10318000C8E78025C6E7606AA8B1012819D00228DF
:1031900019D0032819D0042819D0052819D00628D9
:1031A00019D0072819D0082819D0092819D00A28B9
:1031B00019D00B2800D001254F4600232A4650463F
:1031C0004CE70225F8E70425F6E70625F4E708258D
:1031D000F2E70A25F0E70C25EEE71025ECE72025BD
:1031E000EAE74025E8E78025E6E7606AA8B101281C
:1031F00019D0022819D0032819D0042819D005287D
:1032000019D006281AD007281AD008281AD0092859
:103210001AD00A281AD00B2800D00125C84800234C
:103220004F462A461AE70225F8E70425F6E7062561
:10323000F4E70825F2E70A25F0E71DE00C25EDE7A5
:103240001025EBE72025E9E74025E7E78025E5E7BE
:103250000225FEE60425FCE60625FAE60825F8E642
:103260000A25F6E60C25F4E61025F2E62025F0E620
:103270004025EEE68025ECE62168EBE0E0694FF4BE
:1032800000414FF6EF7688426FD1082F65D00BDCF6
:103290006FB3012F5CD0042F7FF460AF6846FDF759
:1032A00005FC606A01995DE0102F5FD0202F7DD072
:1032B000402FF1D1606AA8B1012878D0022877D0D8
:1032C000032876D0042875D0052874D0062873D03A
:1032D000072872D0082871D0092870D00A286FD02A
:1032E0000B2800D001256068B1FBF5F1A0E0FEF7E6
:1032F000E3FA2FE0012815D0022815D0032815D0B5
:10330000042815D0052815D0062815D0072815D073
:10331000082815D0092815D00A2815D00B2814D054
:10332000012512E0022510E004250EE006250CE040
:1033300008250AE00A2508E00C2506E0102504E02F
:10334000202502E0402500E08025B1FBF5F13EE0BC
:10335000FEF7C4FA0146606A04E003A8FDF748FCE2
:10336000606A04990028DBD0C4E7D8E0DBF80000ED
:1033700059468006606A40D50968C1F3C1012AFA3E
:1033800001F208B3012824D0022824D0032824D035
:10339000042824D0052824D0062824D0072824D0A7
:1033A000082824D0092824D00A280AE074E0A2E0E2
:1033B000A3E0A4E0A5E0A6E0A7E0A8E0A9E0AAE0D9
:1033C000ABE018D00B2800D00125B2FBF5F1606806
:1033D0002EE00225F9E70425F7E70625F5E708259D
:1033E000F3E70A25F1E70C25EFE71025EDE72025A7
:1033F000EBE74025E9E78025E7E7A8B1012837D0CA
:10340000022837D0032837D0042837D0052837D0F2
:10341000062837D0072837D0082837D0092837D0D2
:103420000A2837D00B2800D001256068BAFBF5F1D7
:10343000490001EB5001B1FBF0F080B2A0F11001A6
:10344000B1423FF68BAE4FF6F0732168C0F34202F3
:1034500018401043C8600121A4F86A104046A4F83F
:103460006810C4F86C90C4F8709007B0BDE8F08F95
:103470000225DAE70425D8E70625D6E70825D4E7AC
:103480000A25D2E70C25D0E71025CEE72025CCE78A
:103490004025CAE78025C8E7606AA8B1012816D090
:1034A000022816D0032816D0042816D0052816D0D6
:1034B000062816D0072816D0082816D0092816D0B6
:1034C0000A2816D00B2800D001251D490BE702253C
:1034D000FBE70425F9E70625F7E70825F5E70A25C0
:1034E000F3E70C25F1E71025EFE72025EDE7402570
:1034F000EBE78025E9E70225F5E60425F3E6062556
:10350000F1E60825EFE60A25EDE60C25EBE61025A9
:10351000E9E62025E7E64025E5E68025E3E6082FF5
:103520006AD00FDC8FB3012F61D0042F7FF416AE69
:103530006846FDF7BBFA606A019962E0FFFC0F0084
:1035400000093D00102F5FD0202F7DD0402FEDD1FE
:10355000606AA8B1012878D0022877D0032876D0F5
:10356000042875D0052874D0062873D0072872D097
:10357000082871D0092870D00A286FD00B2800D0F5
:1035800001256068B1FBF5F1A0E0FFE7FEF794F9D3
:103590002FE0012815D0022815D0032815D00428C3
:1035A00015D0052815D0062815D0072815D00828CD
:1035B00015D0092815D00A2815D00B2814D00125BC
:1035C00012E0022510E004250EE006250CE0082597
:1035D0000AE00A2508E00C2506E0102504E0202575
:1035E00002E0402500E08025B1FBF5F13DE0FEF76B
:1035F00075F90146606A04E003A8FDF7F9FA606A0C
:1036000004990028DBD0C4E7DBF8000059468006A7
:10361000606A40D50968C1F3C1012AFA01F208B312
:10362000012824D0022824D0032824D0042824D020
:10363000052824D0062824D0072824D0082824D000
:10364000092824D00A280AE05FE08DE08EE08FE0B0
:1036500090E091E092E093E094E095E096E018D05D
:103660000B2800D00125B2FBF5F160682EE00225A1
:10367000F9E70425F7E70625F5E70825F3E70A2526
:10368000F1E70C25EFE71025EDE72025EBE74025D6
:10369000E9E78025E7E7A8B1012822D0022822D057
:1036A000032822D0042822D0052822D0062822D0A0
:1036B000072822D0082822D0092822D00A2822D080
:1036C0000B2800D001256068BAFBF5F101EB500131
:1036D000B1FBF0F080B2A0F11001B1427FF6CCADA9
:1036E00070E40225EFE70425EDE70625EBE7082562
:1036F000E9E70A25E7E70C25E5E71025E3E72025BC
:10370000E1E74025DFE78025DDE7606AA8B1012811
:1037100016D0022816D0032816D0042816D0052863
:1037200016D0062816D0072816D0082816D0092843
:1037300016D00A2816D00B2800D00125144920E7FE
:103740000225FBE70425F9E70625F7E70825F5E755
:103750000A25F3E70C25F1E71025EFE72025EDE733
:103760004025EBE78025E9E702250AE7042508E77D
:10377000062506E7082504E70A2502E70C2500E7E9
:103780001025FEE62025FCE64025FAE68025F8E631
:1037900000093D002DE9F0479A4617460E460446BB
:1037A000089D4FF000094FF0200839E0681C37D021
:1037B000FCF792FFA0EB0A00A84222D80DB32068C4
:1037C000016849072CD5C069C043000528D4236887
:1037D0004FF40061196221680B6823F4D0730B6009
:1037E00021688B6823F001038B60C4F88080C4F8E3
:1037F0008480C4F8888000BF032084F87C90BDE8F2
:10380000F08721680B6823F4D0730B6021688B6804
:1038100023F001038B60C4F88080C4F88480EBE758
:103820002068C06936EA000004D00020B842BDD04C
:103830000020E4E70120F9E770B5044606990A9EE6
:10384000049D01290D9816D0E06840F04000E0602A
:10385000204600F02DF8A16B26B321F48031A1633E
:10386000012D07D1A16841F00801A160A16841F0D4
:103870002001A16070BDA26B01280C4922F48030A8
:10388000A063E06800EA0100E060E06820F4401016
:10389000E06003D1E06840F48010E060204600F072
:1038A00007F8DDE741F48031D9E70000BFFFBDFF35
:1038B0000C49012202E0521C8A420BD80369002BFA
:1038C000F9DA0369012243F00103036104E0521CA9
:1038D0008A4201D9032070470369DB07F7D1002032
:1038E00070470000400D030010B5D0F8041841F0F7
:1038F0000201C0F804180320FCF7D2FD002010BD1F
:103900002DE9F04F0E4604460021DDE90B2BDDF8D2
:1039100040800D46099F084604EB800CCCF804114A
:10392000401C0F28F8D32046A06BB8F1000F13D02D
:1039300040F4001CC4F838C089460846C4F8000E9C
:103940002046D4F80018012AC4F8001813D0D0F883
:10395000001841F0030113E020F4001CC4F838C043
:10396000206840F0400CC4F800C0206840F0800C93
:10397000C4F800C0E0E7D0F800180BB141F0010135
:10398000C0F80018102100F095F800B1012520467C
:1039900000F080F800B1012548464FF0006C4FF66A
:1039A0007F334FF0904AC4F81098C4F81498C4F8C4
:1039B0001C980021994613E004EB4112D2F800391B
:1039C000002B06DA11B1C2F800A904E0C4F800C95E
:1039D00001E0C2F80009C2F81009C2F80899491CB0
:1039E0008E42E9D8002113E004EB4112D2F8003BEB
:1039F000002B06DA11B1C2F800AB04E0C4F800CB2A
:103A000001E0C2F8000BC2F8100BC2F8089B491C79
:103A10008E42E9D8D4F81018012F21F48072214683
:103A2000C4F8102808D1144B144AC1F83038D1F822
:103A300030181143C4F830186FF08041A061616103
:103A40001FB9A06940F01000A061A069BBF1000F90
:103A50000B4A40EA0200A06103D0A06940F00800D0
:103A6000A061B8F1010F03D1A06906490843A06124
:103A70002846BDE8F08F000000018000030001002F
:103A800000383C8004000040816821F00101816021
:103A900000207047064A102101610021491C914213
:103AA00001D9032070470369DB06F7D40020704773
:103AB000400D03002023074A43EA811303610021DC
:103AC000491C914201D90320704703699B06F7D432
:103AD00000207047400D030010B5C268012922F094
:103AE000C042C26002D029B1012010BDC16841F0BE
:103AF000005102E0C16841F08041C1603220FCF712
:103B0000CFFC002010BDFEE7090700284FEA116135
:103B100004DB00F1E02080F80014704700F00F0093
:103B200000F1E02080F8141D704702E008C8121F61
:103B300008C1002AFAD170477047002001E001C196
:103B4000121F002AFBD17047A4B0FCF7D3FDFEF78B
:103B50003DFEFEF707FCFEF7BDFCFEF7E1FCFEF7BD
:103B600093FC1D48012244F28101FCF7A9FD00F0FD
:103B70005BF81A4924226846FCF73BFC18480021F0
:103B80006A4600F08DF8174C242214492431206035
:103B900009A8FCF72EFC1448002109AA00F080F8BF
:103BA0000E492422206012A84831FCF722FC0F485D
:103BB000002112AA00F074F80849242220601BA8F2
:103BC0006C31FCF716FC0A4800211BAA00F068F8CB
:103BD000206000F045F8FEE700040258A4530008F6
:103BE0009927000800000020E12200080D230008AA
:103BF0003923000810B5EFF3058149B9EFF31081BF
:103C000031B908490968022905D1EFF3118111B1D1
:103C10006FF0050404E04FF0000408B100F0F0FD7F
:103C2000204610BD68000020EFF3058058B9EFF37F
:103C3000108040B909490868022801D030B109E074
:103C4000EFF3118030B16FF00500704701220A6078
:103C5000002070474FF0FF307047000068000020E0
:103C600010B5EFF3058060B9EFF3108048B90B4849
:103C70000168022902D0012906D00BE0EFF3118080
:103C800040B16FF0050010BD0221016000F020FE80
:103C9000002010BD4FF0FF3010BD00006800002074
:103CA000F0B585B04FEA01034FF00004EFF3058152
:103CB0000394B1BBEFF3108199BB22490968022933
:103CC00002D1EFF3118161BB58B304AD4FF0800610
:103CD0004FF018018DF8104042B3176807B13D4608
:103CE00097691FB139467F1E382F02D21779FF0717
:103CF00002D0002005B0F0BD576907B1BE08D2F868
:103D000008C0BCF1000F0DD0D4685C2C18D3126928
:103D10003AB137B18DE806103246294601F063F911
:103D200003900DE0D7685FB912694AB903AACDE9DB
:103D30000012B2B2294601F029F9012800D00394FB
:103D40000398D7E7680000202DE9F041134C0F4697
:103D5000054666692068001D00F020FC681C07D13C
:103D600037B12168BDE8F0410D48091D00F068BC7D
:103D700020683544B5424560216805D2A068091D18
:103D8000BDE8F04100F044BC6068091D00F040FC53
:103D9000206B854200D22563BDE8F0811800002029
:103DA000E00A00202DE9F041054600F055FC2D4CBD
:103DB0002D4F2069401C2061206810B1E06930B3AC
:103DC0002BE025602069012827D1002606EB86001C
:103DD00007EB800000F00EFC761C382EF6D323484B
:103DE00000F008FC2148143000F004FC1F48283083
:103DF00000F000FC1D483C3000F0FCFB1B4850303C
:103E000000F0F8FB194860601430A06005E0E86A33
:103E10002168C96A814200D82560E06A401CE062DE
:103E20006864E86AA169884200D9A06100EB80005B
:103E3000291D07EB800000F003FC00F02DFCE06979
:103E400000280CD02068E96AC06A884207D2084975
:103E50004FF080500860BFF34F8FBFF36F8FBDE806
:103E6000F08100001800002030060020900A002099
:103E700004ED00E038B500F0EFFB104CA068C8B9C5
:103E80000F4800F0B7FB0E48143000F0B3FB0C49AC
:103E9000002021601431616001F11403009001F1F0
:103EA000640210210A2000F00BFEA06010B105A1F1
:103EB00000F070FCBDE8384000F0EEBB540000207C
:103EC000F40A0020546D72510000000030B4026CFE
:103ED0000B46002A0BD0C16844681144C160A1425E
:103EE00001D30168C160184630BCFCF782BA30BC0F
:103EF00070472DE9F041856B1746026C0446002699
:103F000082B1C7B1E068FCF774FAE168206C2268FE
:103F1000091AE160914202D26168081AE060022F3A
:103F200016D017E02068A8B9606801F0FFF80646CF
:103F3000002060600EE0A068FCF75BFAD4E9011095
:103F4000226C1044A060884204D32068A06001E085
:103F500005B16D1E6D1CA5633046BDE8F08110B53E
:103F6000044690F8590058B101280CD002280FD00F
:103F7000502080F31188BFF34F8FBFF36F8FFEE7A0
:103F8000206B00F09DFB2046BDE8104000F098BB80
:103F900010BD000011484FF4705110B5420706D013
:103FA0000E49C01D20F00700411AC1F570510C4C9C
:103FB000002301440839A4F1100221F00701C4E9EB
:103FC00000030C1A11604B600B60C0E90014946090
:103FD0004FF000415460D16010BD0000C4120020B9
:103FE0007C000020144E4FF08058144CDFF85090A5
:103FF000A6F29C4712E000BF00F02EFBF068C568F7
:10400000281D00F0CBFA2069401E2061E068401EA8
:10401000E06000F041FB2846FFF7A1FFE0680028C0
:10402000EAD138680128F9D9C9F80080BFF34F8F69
:10403000BFF36F8FF2E70000CC0A002018000020C9
:1040400004ED00E070B51D46049C51B1C4F8002099
:10405000C4E90F010121204600F066FD84F84C50B0
:1040600070BD2460F4E72DE9F0470E4699469100B3
:104070001746DDE90984089DA5228246206BFCF7DE
:10408000CAF9206B6FF0030101EB8701084420F0AF
:104090000707780707D0502080F31188BFF34F8FB0
:1040A000BFF36F8FFEE72218315C82F83410315C69
:1040B00011B1401C1028F6D3002684F84360382D37
:1040C00000D33725E562201DC4E9135600F09DFAA0
:1040D00004F1180000F099FA6665C5F13800A06196
:1040E00084F858604A46246151463846646200F0BC
:1040F0003DFAB8F1000F206001D0C8F80040BDE8DB
:10410000F087000030B5114900E011460A6882428C
:10411000FBD34B685C18844203D1446808462344AF
:104120004B6043681D18954209D1084C103C246827
:10413000A24209D052681A4442600A6812680260BA
:10414000814200D0086030BD0460F9E77C000020A7
:1041500070B50D4D914241604FF00004006106D8EA
:104160008169D21A8A4206D2011D686807E09A4224
:1041700003D2994201D3012403E0011D286800F015
:1041800047FA204670BD00005400002010B50446D8
:1041900000F062FAA06B28B15FF0000400F07CFA36
:1041A000204610BD0124F9E730B5314D89B055E006
:1041B0000498002806DA059ADDE90601904704987C
:1041C00000284BDB069C606910B1201D00F0E6F969
:1041D00002A800F0B9F8024604980A283ED2DFE8A7
:1041E00000F00505053D263705053D260598A16922
:1041F000034601442046FFF7ABFF00B3616A204647
:104200008847E069012829D1002000900598002303
:10421000A16942181946204601F090F878B950205B
:1042200080F31188BFF34F8FBFF36F8FFEE70598C0
:10423000A06128B1811813462046FFF789FF0DE0E1
:10424000502080F31188BFF34F8FBFF36F8FFEE7CD
:1042500094F82C0010B9204600F032FAA868002229
:1042600004A900F0B9FD0028A2D109B030BD0000BA
:10427000540000202DE9FC410F46054600F06CFB80
:1042800001A800F061F80446019818B100F0C4FFDD
:10429000BDE8FC81224EAFB170680068A8B300276A
:1042A000B068291B3A4600F089FA00F0B5FF0028F3
:1042B000EED11C494FF080500860BFF34F8FBFF321
:1042C0006F8FE5E7A542EBD800F0A6FF30682746E0
:1042D000C068C468201D00F061F9E069012810D1B0
:1042E000A0692B463A4641192046FFF731FF40B1FD
:1042F00000202A46034601460090204601F01EF8A1
:1043000020B1616A20468847C2E707E0502080F369
:104310001188BFF34F8FBFF36F8FFEE70127BFE711
:104320005400002004ED00E006484168096829B106
:104330004168C968C9684968016370474FF0FF3137
:10434000FAE700001800002070B5054600F084FE72
:10435000064E04463069844203D200F009F8012079
:1043600000E0002028602046346170BD5400002029
:10437000F8B5194D1FE0C068C4680668201D00F03C
:104380000DF9616A20468847E069012813D1A069C8
:104390003044B04206D92461211D6060286800F0D5
:1043A00037F908E0002032460346014600902046D7
:1043B00000F0C4FF38B1286801680029DBD16968C2
:1043C000C5E90010F8BD502080F31188BFF34F8F6E
:1043D000BFF36F8FFEE700005400002008484068DC
:1043E000401C4FF0500080F3118804D0BFF34F8F72
:1043F000BFF36F8FFEE7BFF34F8FBFF36F8FFEE703
:1044000084000020074C2068016841B1C068002189
:10441000D0F80000FFF72EFFFFF7C6FEF3E70121FB
:104420000020F7E7540000202DE9F041044600F099
:1044300013F994F9455004F1240609E0606A48B183
:10444000304600F0B1FE08B100F008FA6D1E6DB202
:10445000002DF3DC4FF0FF3684F8456000F01CF9C6
:1044600000F0FAF894F9445004F1100709E02069CB
:1044700048B1384600F098FE08B100F0EFF96D1E23
:104480006DB2002DF3DC84F84460BDE8F04100F02B
:1044900003B900002DE9F0410027044600F05CFA62
:1044A000314E306808B9FFF775FDF06804424BD112
:1044B000C4B3083460070ED004F00700C0F1080050
:1044C0000444600707D0502080F31188BFF34F8F5A
:1044D000BFF36F8FFEE72CB37068844234D8224854
:1044E000103001460D6801E028460D466968A1427A
:1044F00002D229680029F7D131688D4224D007689B
:104500002968016008376868011B10290FD928192C
:10451000420708D0502080F31188BFF34F8FBFF3BC
:104520006F8FFEE710E041606C60FFF7EBFD69689C
:104530007068401A7060B268904200D2B06000208B
:10454000F2681143C5E9000100F066FE780707D064
:10455000502080F31188BFF34F8FBFF36F8FFEE7BA
:104560003846BDE8F08100006C00002070B5041FE3
:10457000094E231F4FF0807521F0010125601C1F9B
:104580001960A0F120010B1F266044380A606FF00B
:1045900002051D6070BD0000DD430008D0E9013256
:1045A00001699A60D0E901235A604A68824201D1C8
:1045B00082684A60002202610868401E086008683C
:1045C0007047000010B5044C8023046004F15C00C7
:1045D0000860136010BD00000C0C002010B5044CE6
:1045E0004FF48073046004F15C000860136010BD38
:1045F000680E00204FF0FF3300F108010022C0E9EF
:1046000001130260C16001617047002101617047C0
:1046100030B50B685A1C02D000F1080202E00269B2
:1046200004E02246546825689D42FAD953684B60DD
:1046300099608A60516008610168491C016030BD61
:1046400042684A6093688B60936859609160086122
:104650000168491C01607047502080F31188BFF346
:104660004F8FBFF36F8F0A494868401C486001288C
:104670000CD10848006810F0FF0F07D0502080F3DD
:104680001188BFF34F8FBFF36F8FFEE770470000B5
:104690008400002004ED00E00849486828B1401E6D
:1046A000486001D180F311887047502080F3118851
:1046B000BFF34F8FBFF36F8FFEE700008400002031
:1046C00070B5002827D0144DA0F108046068E9688F
:1046D000084207D1502080F31188BFF34F8FBFF3FA
:1046E0006F8FFEE722683AB1502080F31188BFF344
:1046F0004F8FBFF36F8FFEE78843606000F02CF9A7
:1047000060686968084468602046FFF7FBFCBDE804
:10471000704000F081BD70BD6C0000204FF0E020C3
:10472000002101614FF47A7281610723034909680E
:10473000B1FBF2F1491E4161036170471000002096
:1047400010B5FBF70FFE114910280ED300F1E02041
:104750000A7890F8F003904207D2502080F3118835
:10476000BFF34F8FBFF36F8FFEE70948896800687A
:1047700000F4E060884207D9502080F31188BFF32D
:104780004F8FBFF36F8FFEE710BD00008400002045
:104790000CED00E0084B5FF0000210B553F832401A
:1047A0001CB1521C082AF9D310BD03EBC20443F814
:1047B0003210606010BD0000F005002070B5154695
:1047C0000E460446FFF748FF94F944100020491CA8
:1047D00001D184F8440094F94510491C01D184F8B2
:1047E0004500FFF759FFA06B28B904F124002A46C1
:1047F000314600F051F82046BDE87040FFF714BE86
:10480000020010B514D00F48806B38B1502080F3EF
:104810001188BFF34F8FBFF36F8FFEE700F09CF856
:1048200000211046FFF790FA00F0F6FC002807D1AF
:1048300005494FF080500860BFF34F8FBFF36F8F73
:1048400010BD00001800002004ED00E002498A6A53
:104850000260496941607047180000200149012049
:10486000486270471800002010B50C4650B1094945
:1048700009681831FFF7CCFE2046BDE81040012141
:10488000FFF762BA502080F31188BFF34F8FBFF358
:104890006F8FFEE71800002070B514460D4668B112
:1048A0000A4909681831FFF7CBFE0CB14FF0FF350C
:1048B00021462846BDE87040FFF746BA502080F3F5
:1048C0001188BFF34F8FBFF36F8FFEE718000020F2
:1048D00030B587B0002405AA04A9039403A8049462
:1048E000FFF770FEDDE9030100940023CDE901101C
:1048F000174815A1059A00F076FB164D002868634D
:104900001FD000F0EBFC012809D0401C19D1502029
:1049100080F31188BFF34F8FBFF36F8FFEE75020F6
:1049200080F31188BFF34F8FBFF36F8F01214FF0DA
:10493000FF302863E9616C6107B0BDE8304000F0EA
:1049400045B807B030BD000049444C4500000000A8
:10495000E53F0008180000200248816B491C816374
:104960007047000018000020164810B5816B11B187
:104970000121416210BD00214162134A816901E0B9
:10498000B9B1491E01EB810352F82330002BF7D057
:1049900001EB810302EB830202F1080453685B68B8
:1049A0005360A34201D15B685360DA6802608161A1
:1049B00010BD502080F31188BFF34F8FBFF36F8F6E
:1049C000FEE70000180000203006002037481CB524
:1049D000374902688A4207D1502080F31188BFF31B
:1049E0004F8FBFF36F8FFEE731490068491E884241
:1049F00007D1502080F31188BFF34F8FBFF36F8F23
:104A0000FEE72C49FF200A780192087008788DF89B
:104A100000009DF800209DF8000002F0F0028242A4
:104A200007D0502080F31188BFF34F8FBFF36F8FF3
:104A3000FEE79DF8002007201F4C02F05002227074
:104A4000A06005E09DF8002052008DF80020401E77
:104A50009DF800201206F5D40328A06007D050204E
:104A600080F31188BFF34F8FBFF36F8FFEE74FF4D2
:104A70004070A060019808700C482030016841F433
:104A800070010160016841F070410160FFF746FE6E
:104A900000206060FBF72EFC0848016841F04041AF
:104AA0000160FBF713FC00201CBD000000ED00E0DE
:104AB00071C20F4100E400E08400002034EF00E008
:104AC000F8B5069D18B153B1CAB181B120E05020AC
:104AD00080F31188BFF34F8FBFF36F8FFEE7502035
:104AE00080F31188BFF34F8FBFF36F8FFEE7502025
:104AF00080F31188BFF34F8FBFF36F8FFEE739B19B
:104B0000502080F31188BFF34F8FBFF36F8FFEE704
:104B100050241C46012683F8466000932B46FFF77D
:104B200091FA2046F8BD00002DE9F04704008A46BE
:104B300029D0FFF791FD21680025D4E90F23D4F88F
:104B400040C004F1100810460E46401E4FF0FF39D9
:104B500002FB031200FB0C10BAF1000FA563A66064
:104B600084F8449084F845906260E06013D0404639
:104B7000FFF740FD04F12400FFF73CFDFFF78CFD3B
:104B80000120BDE8F087502080F31188BFF34F8FDC
:104B9000BFF36F8FFEE720690028EFD0404600F09A
:104BA00003FB0028EAD004494FF080500860BFF3AF
:104BB0004F8FBFF36F8FE1E704ED00E02DE9FF4772
:104BC00004001D4682B08A464FF0000803D0BAF1B7
:104BD000000F08D011E0502080F31188BFF34F8FF1
:104BE000BFF36F8FFEE7206C38B1502080F311883F
:104BF000BFF34F8FBFF36F8FFEE7022D0AD1E06B3B
:104C0000012807D0502080F31188BFF34F8FBFF3E6
:104C10006F8FFEE700F012FA3F4F4FF080564FF0D3
:104C2000000948B9049838B1502080F31188BFF3C7
:104C30004F8FBFF36F8FFEE7FFF70EFDA06BE16BA9
:104C4000884207D3022D05D00498D0B1B8F1000FE7
:104C50001AD01EE02A4651462046FFF74AF9616AFB
:104C600019B104F1240000F09FFA20B13E60BFF3B7
:104C70004F8FBFF36F8FFFF70FFD012006B0BDE828
:104C8000F087FFF709FD22E06846FFF7DFFD4FF0F0
:104C90000108FFF701FDFFF75FFEFFF7DDFC94F968
:104CA0004400401C01D184F8449094F94500401C14
:104CB00001D184F84590FFF7EFFC04A9684600F0A5
:104CC00029F930B12046FFF7AFFB00F0A5FA00202C
:104CD000D4E7FFF7C1FCA06BE16B884213D1FFF76B
:104CE000DBFC049904F11000FFF7BEFD2046FFF73E
:104CF0009BFB00F091FA00289ED13E60BFF34F8FDE
:104D0000BFF36F8F98E7FFF7C7FC2046FFF78CFBD8
:104D100000F082FA90E7000004ED00E02DE9F04792
:104D200004001F469046894603D0B9F1000F08D011
:104D300011E0502080F31188BFF34F8FBFF36F8FC6
:104D4000FEE7206C38B1502080F31188BFF34F8FFD
:104D5000BFF36F8FFEE7022F0AD1E06B012807D067
:104D6000502080F31188BFF34F8FBFF36F8FFEE7A2
:104D7000FFF7E6FC5020EFF3118680F31188BFF3B4
:104D80004F8FBFF36F8FA06BE16B884206D3022F6A
:104D900004D0002086F31188BDE8F08794F94550CF
:104DA0003A4649462046FFF7A4F8681C04D06D1C1B
:104DB00084F845500120EDE7606A0028FAD004F13C
:104DC000240000F0F1F90028F4D0B8F1000FF1D080
:104DD0000121C8F80010EDE72DE9F74704008A46E5
:104DE00083B04FF0000603D0BAF1000F08D011E0F5
:104DF000502080F31188BFF34F8FBFF36F8FFEE712
:104E0000206C38B1502080F31188BFF34F8FBFF36F
:104E10006F8FFEE700F012F9DFF8F4804FF0805753
:104E20004FF0000948B9059838B1502080F3118837
:104E3000BFF34F8FBFF36F8FFEE7FFF70DFCA56B3E
:104E4000C5B151462046FFF741F86D1EA5632069A4
:104E500050B104F1100000F0A7F928B1C8F80070B3
:104E6000BFF34F8FBFF36F8FFFF716FC012006B023
:104E7000BDE8F087059808B11EB106E0FFF70CFC0D
:104E800027E06846FFF7E2FC0126FFF705FCFFF785
:104E900063FDFFF7E1FB94F94400401C01D184F865
:104EA000449094F94500401C01D184F84590FFF7E7
:104EB000F3FB05A9684600F02DF8002820460AD02B
:104EC000FFF7B2FA00F0A8F92046FFF75FF90028D3
:104ED000B3D00020CBE7FFF759F990B1059904F161
:104EE0002400FFF7C1FC2046FFF79EFA00F094F97A
:104EF0000028A2D1C8F80070BFF34F8FBFF36F8FA7
:104F00009BE72046FFF790FA00F086F995E700004E
:104F100004ED00E02DE9F04105000C4612D0CCB1C3
:104F2000FFF79AFB184E20687269471C6B68A2EB6A
:104F3000030117D02F68B66AB74215D0934213D831
:104F400001251CE0502080F31188BFF34F8FBFF381
:104F50006F8FFEE7502080F31188BFF34F8FBFF3B0
:104F60006F8FFEE700250AE0884205D9401A2060CD
:104F70002846FFF76BFCF5E7002020600125FFF7CE
:104F80008BFB2846BDE8F081180000202DE9FF5F6B
:104F9000994616468A4683469000DDE90E87FFF75C
:104FA00079FA05001CD05C20FFF774FA040014D0D5
:104FB0000020256384F859004B46CDE90087CDE9F0
:104FC0000240324651465846FFF74DF82046FEF75C
:104FD000E9FE012004B0BDE8F09F2846FFF770FB12
:104FE0004FF0FF30F6E7F0B585B0DDE90B740A9DB0
:104FF000A7B1DCB15C262763022684F8596000273C
:1050000003970DF1100C0095CDE901C4FFF72BF8C3
:105010002046FEF7C7FE049805B0F0BD502080F38F
:105020001188BFF34F8FBFF36F8FFEE7502080F3DF
:105030001188BFF34F8FBFF36F8FFEE70548C1693B
:1050400019B1806B18B10020704701207047022011
:1050500070470000180000200148406970470000B8
:10506000180000202DE9F0412E4CA06B002740B124
:10507000206A401C2062606A00B101273846BDE802
:10508000F0816669761C666113D16068006838B18A
:10509000502080F31188BFF34F8FBFF36F8FFEE76F
:1050A0006068A1686160A060A06A401CA062FFF710
:1050B0003BF9DFF87480206B864209D36068006892
:1050C00080B16068C068C568686886420DD2206398
:1050D0002068C06A00EB800158F821000128CAD975
:1050E0000127C8E74FF0FF30F1E7281DFFF756FA18
:1050F000A86A18B105F11800FFF750FAE86AA1692B
:10510000884200D9A06100EB800108EB8100291DD5
:10511000FFF796FA2068E96AC06A8142CED3012778
:10512000CCE70000180000203006002070B50446CF
:105130004FF0000190B31A4D2868844207D05020E8
:1051400080F31188BFF34F8FBFF36F8FFEE7206DA1
:1051500038B1E36C401EE26A20659A421ED040B12D
:105160001CE0502080F31188BFF34F8FBFF36F8F87
:10517000FEE7201DFFF712FAE06CC0F13801A161D3
:10518000E062A969884200D9A86100EB8000054966
:1051900001EB8000211DFFF753FA0121084670BD85
:1051A000180000203006002070B5C068C46854B1F3
:1051B00004F118000646FFF7F1F9144DA86B50B141
:1051C0001348314615E0502080F31188BFF34F8F0C
:1051D000BFF36F8FFEE7201DFFF7E0F9E06AA969D2
:1051E000884200D9A86100EB80000A4901EB8000E9
:1051F000211DFFF725FAE06A2968C96A884203D9A8
:1052000001216962084670BD002070BD18000020B1
:10521000B80A0020300600202DE9F0472C4DA86B7D
:105220000024274638B1FFF717FAA86B401EA86381
:10523000A86B40B147E0502080F31188BFF34F8F37
:10524000BFF36F8FFEE7234E01202969D9B3A6F57E
:10525000916980463068E0B1F068C46804F11800D4
:10526000FFF79CF9201DFFF799F9E06AA9698842C8
:1052700000D9A86100EB800109EB8100211DFFF737
:10528000DFF9E06A2968C96A8842E3D3C5F8248057
:10529000E0E70CB1FFF748F82C6A4CB14FEA08067A
:1052A000FFF7E0FE00B16E62641EF9D100202862B3
:1052B000686A40B1084901274FF080500860BFF389
:1052C0004F8FBFF36F8FFFF7E7F93846BDE8F087E0
:1052D00018000020B80A002004ED00E010B586B0E8
:1052E000FEF7C8FD114CA068B8B10020039005AAD4
:1052F000049004A903A8FFF771F9DDE90321022056
:1053000000238DE807000C4809A1059AFFF76BFE02
:10531000E06010B106B0012010BD502080F311886C
:10532000BFF34F8FBFF36F8FFEE7000054000020E4
:10533000546D722053766300054400082DE9FF4147
:105340001E46134602004FF000000A9D16D0144C72
:10535000A768002F0FD006290292CDE9001317DAB3
:10536000FFF76CFE02284FF000030FD00022A06868
:105370006946FFF723FC04B0BDE8F081502080F3BC
:105380001188BFF34F8FBFF36F8FFEE72A46EEE71A
:105390000023324669463846FFF7C0FCEBE70000C1
:1053A00054000020685400080000000000000000C5
:1053B0000000000000000000800000001800000055
:1053C000000000000000000044540008000000003D
:1053D00000000000000000000000000000010000CC
:1053E00018000000000000000000000050540008F9
:1053F00000000000000000000000000000000000AD
:105400000001000018000000000000000000000083
:105410005C540008000000000000000000000000D4
:105420000000000000010000180000000000000063
:105430000000000000000000010203040102030458
:10544000060708094C44315F5461736B000000008B
:105450004C44325F5461736B000000004C44335F76
:105460005461736B0000000064656661756C745470
:1054700061736B009454000800000020900000004D
:105480002A3B0008245500089000002038520000F4
:105490003A3B00080000000001000000100000007E
:1054A000000000000090D0030090D0030000000036
:1054B00000000000000000000000000000000000EC
:1054C00000000000000000000000000000000000DC
:1054D00000000000000000000000000000000000CC
:1054E00000000000000000000000000000000000BC
:1054F00000000000000000000000000000000000AC
:10550000000000000000000000000000000000009B
:10551000000000000000000000000000AAAAAAAAE3
:045520000000000087
:040000050800029954
:00000001FF
