:020000040800F2
:1000000028040020450100081F0A00081B0A0008F8
:100010001D0A00088D010008B10B00080000000057
:10002000000000000000000000000000430A00087B
:100030008F01000800000000410A0008450A00087E
:100040005F0100085F0100085F0100085F01000810
:100050005F0100085F0100085F0100085F01000800
:100060005F0100085F0100085F0100085F010008F0
:100070005F0100085F0100085F0100085F010008E0
:100080005F0100085F0100085F0100085F010008D0
:100090005F0100085F0100085F0100085F010008C0
:1000A0005F0100085F0100085F0100085F010008B0
:1000B0005F0100085F0100085F0100085F010008A0
:1000C0005F0100085F0100085F0100085F01000890
:1000D0005F0100085F0100085F0100085F01000880
:1000E0005F0100085F0100085F0100085F01000870
:1000F0005F0100085F0100085F0100085F01000860
:100100005F0100085F0100085F0100085F0100084F
:100110005F0100085F0100085F0100085F0100083F
:100120005F0100085F0100085F0100085F0100082F
:10013000DFF80CD000F018F800480047D10B000899
:10014000280400200648804706480047FEE7FEE7EF
:10015000FEE7FEE7FEE7FEE7FEE7FEE7FEE7FEE777
:10016000BD0A000831010008064C074D06E0E068B2
:1001700040F0010394E8070098471034AC42F6D3EE
:10018000FFF7DAFF440C0008640C0008FEE7704734
:100190002DE9F84FDFF8B8A100220AF1040B14464C
:1001A00001274FF00F090BF1040E00BF0B6807FA8F
:1001B00004F52B40AB4274D1DFF898C14E68A6EB32
:1001C0000C0866452BD00DDC032E34D005DC36B38D
:1001D000012E19D0022E2FD11BE0112E16D0122E77
:1001E0002AD119E0B8F5881F19D006DCB8F5803F90
:1001F00015D0B8F5801F1FD111E0B8F5001F0ED043
:10020000B8F5041F18D10AE0CA6815E0CA68121DC3
:1002100012E0CA6808320FE0CA680C320CE08A6843
:100220002AB1012A4FF0080203D0456104E00422FC
:1002300002E0056100E00022FF2B01D8064601E044
:1002400000F104064FEA840501D9A5F12005D6F88E
:1002500000C009FA05F82CEA080C02FA05F54CEA88
:10026000050CC6F800C04D68ED006AD53A4DAE6980
:1002700046F00106AE61AD6924F0030605F0010504
:100280000095364D06EB050CDCF80850A6074FEA42
:10029000167809FA08F6B543314EB04202D100266D
:1002A0001AE04EE02F4EB04201D1012614E02E4E4E
:1002B000B04201D102260FE02C4EB04201D10326FC
:1002C0000AE02B4EB04201D1042605E0294EB0428F
:1002D00001D1052600E0062606FA08F62E43CCF8E2
:1002E00008604D68DAF80060ED03554601D51E43FD
:1002F00000E09E432E604D68AD0305D5DBF800603D
:100300001E43CBF8006004E0DBF800509D43CBF8BF
:1003100000504D68DEF80060ED02754601D51E43C1
:1003200000E09E432E604D68AD0205D5084D0C35AA
:100330002E681E432E6004E0054E0C3635689D4342
:100340003560641C102CFFF431AFBDE8F88F00005D
:1003500000040140000011100010024000000140A4
:1003600000080140000C0140001001400014014051
:1003700000180140001C01400AB1016170470904E6
:10038000FBE7000001488068704700000C00002077
:100390000248816802781144816070470C00002097
:1003A000074810B5016841F010010160032000F01A
:1003B00089F8002000F006F800F024F8002010BDB5
:1003C0000020024070B50D4D04464FF47A71287834
:1003D000B1FBF0F00A490968B1FBF0F000F005FB51
:1003E00048B9102C07D200222146501E00F04AF8CE
:1003F00000206C6070BD012070BD00000C0000206A
:10040000080000201D4808B5816941F001018161A3
:10041000806900F001000090032000F053F80022F2
:1004200011466FF00B0000F02DF8002211466FF01E
:100430000A0000F027F8002211466FF0090000F0D2
:1004400021F800221146501F00F01CF8002211462E
:10045000101F00F017F800221146901E00F012F84D
:1004600000221146501E00F00DF80548416821F0A9
:10047000E06141F00071416008BD000000100240E1
:1004800000000140F0B40E4B1B680C46C3F302237E
:10049000C3F10705042D00D90425191D072901D230
:1004A000002300E0DB1E012606FA05F1491E21406B
:1004B00099409E40761E16403143F0BC00F0B0BA21
:1004C0000CED00E0064900F0070208684FF6FF0354
:1004D000184040EA0220034A1043086070470000B9
:1004E0000CED00E00000FA052DE9F047DFF854813B
:1004F00005460E46D8F8000000F00700B0420CD2C6
:10050000D8F8001021F007013143C8F80010D8F8DE
:10051000000000F00700B0426FD128684A4C810704
:1005200012D5400703D5606840F4E0606060287829
:10053000000703D5606840F4605060606068A96897
:1005400020F0F000084360602878C00744D0686855
:10055000012816D02168022816D0890700294CDA14
:10056000616821F0030101436160FFF70BFF6968D7
:10057000074641F2883001290ED00229814618D061
:1005800026E021688903E9E78901E7E7FFF7FAFE3A
:10059000C11B494501D918E081466068C0F381005C
:1005A0000128F3D118E000BFFFF7ECFEC11B49455D
:1005B0000BD86068C0F381000228F5D10CE000BFC1
:1005C000FFF7E0FEC11B494502D90320BDE8F087D3
:1005D000606810F00C0FF3D1D8F80010404601F01D
:1005E0000701B1420BD9016821F0070131430160D5
:1005F000006800F00700B04201D00120E6E728784B
:10060000400705D56068E96820F4E0600843606051
:100610002878000706D56068296920F4605040EA10
:10062000C100606000F01CF86168084AC1F3031162
:10063000515CC840064908600020FFF7C3FE002057
:10064000C4E700000020024000100240340C000803
:1006500008000020014800687047000008000020E2
:1006600012A185B00FC98DE80F0014A0144A0068CC
:1006700004905168134801F00C03042B10D0082B90
:100680000ED1C1F38343C9031DF803000AD5516895
:1006900004AAC1F34041515C0A4A5043B0FBF1F057
:1006A00005B0704708494843FAE700000203040513
:1006B000060708090A0B0C0D0E0F101001020000AE
:1006C0000010024000127A0000093D002DE9F84FA9
:1006D00004460078B94DC00748D06868C0F381006F
:1006E000012807D06868C0F38100022809D1686832
:1006F000C00306D52868800338D5606800286FD00D
:1007000034E06068B0F5803F0BD010B1B0F5A02F99
:1007100011D0286820F480302860286820F48020D8
:1007200002E0286840F480302860606888B1FFF7F4
:1007300029FE064609E0286840F480202860F0E79A
:10074000FFF720FE801B642875D828688003F7D542
:100750000CE0FFF717FE064605E000BFFFF712FEAC
:10076000801B6428F0D828688003F7D42078944E42
:1007700080074FF001094FF000083BD5686810F082
:100780000C0F07D06868C0F38100022809D168689F
:10079000C00306D42868800714D5206901281FD11A
:1007A00010E02069B0B1C6F80090FFF7EBFD0746F6
:1007B00005E000BFFFF7E6FDC01B0228C4D828688B
:1007C0008007F7D52868616920F0F80040EAC10089
:1007D00028600FE0C6F80080FFF7D4FD074606E06A
:1007E000E9E000BFFFF7CEFDC01B022823D8286830
:1007F0008007F7D4207800072CD57248A169D9B1B9
:10080000C0F80090FFF7BEFD074604E0FFF7BAFD11
:10081000C01B02280FD8686A8007F7D56A484FF4D2
:10082000FA510068B0FBF1F0009000BF0098411E43
:100830000091FAD20EE080E0C0F80080FFF7A2FD40
:10084000074604E0FFF79EFDC01B022875D8686AC2
:100850008007F7D42078400760D5E8690027C000FA
:1008600008D4E86940F08050E861E869012700F0A9
:100870008050009055480168C90513D4016883462B
:1008800041F480710160FFF77DFD824606E000BF04
:10089000FFF778FDA0EB0A0064284ED8DBF80000D3
:1008A000C005F5D5E06801280AD008B1052813D0A5
:1008B000286A20F001002862286A20F0040002E083
:1008C000286A40F001002862E06841F2883B98B154
:1008D000FFF758FD82460BE0286A40F004002862CA
:1008E000EEE700BFFFF74EFDA0EB0A0159455AD8CD
:1008F000286A8007F6D50CE0FFF744FD824605E044
:10090000FFF740FDA0EB0A0159454CD8286A800743
:10091000F6D41FB1E86920F08050E861E06988B33F
:100920006968C1F38101022945D00228C6F86080B8
:1009300004D0FFF727FD044638E034E0FFF722FD3E
:10094000074604E0FFF71EFDC01B02282BD82868CD
:100950008001F7D4206AB0F5803F05D16868A168AE
:1009600020F4003008436860D4E90801084369684E
:1009700021F4741108436860C6F86090FFF702FD27
:10098000044606E015E000BFFFF7FCFC001B022850
:1009900009D828688001F7D50BE000BFFFF7F2FC0B
:1009A000001B022802D90320BDE8F88F28688001C7
:1009B000F4D40020F8E70120F6E700000010024020
:1009C00000004242800442420800002000700040C3
:1009D0004FF0E0210428086903D020F004000861EA
:1009E000704740F00400FAE7704710B5401EB0F1C0
:1009F000807F01D3012010BD4FF0E02460610F2102
:100A0000601700F00DF80020A06107202061002091
:100A100010BD10B5FFF7E8FF10BDFEE7FEE7704719
:100A20000907090E002806DA00F00F0000F1E020A7
:100A300080F8141D704700F1E02080F80014704722
:100A40007047704710B5FFF7A3FCBDE81040FFF7F3
:100A5000E0BF30B58FB001210804CDE900100024BB
:100A6000029402250491CDE907504FF4E01009905B
:100A70006846FFF72BFE00B1FEE70F20CDE90A051F
:100A80004FF48060CDE90C4002210AA80E94FFF7D4
:100A90002BFD00B1FEE7FFF7DDFD4FF47A71B0FBEF
:100AA000F1F0FFF7A2FF0420FFF792FF00221146AA
:100AB000501EFFF7E7FC0FB030BD00000D48016885
:100AC00041F00101016041680B4A11404160016839
:100AD0000A4A11400160016821F4802101604168E7
:100AE00021F4FE0141604FF41F0181600449C003FD
:100AF00008607047001002400000FFF8FFFFF6FE9C
:100B000008ED00E02DE9F0411A48007880071DD576
:100B1000194C1A4D022722782868AAB1F901184EFB
:100B20004FF40078022A13D0042A0FD16268801A89
:100B300064280BD301223046FFF71EFC00224146F9
:100B40003046FFF719FC286860602770BDE8F08127
:100B50006268801A6428F9D300223046FFF70CFC43
:100B6000012241463046FFF707FC286860600420F8
:100B70002070EBE718000020000000201400002087
:100B8000001C014010B5084C012211022046FFF75D
:100B9000F3FB012251022046FFF7EEFB03480168F8
:100BA00041F00201016010BD001C0140180000204E
:100BB000FEE702E008C8121F08C1002AFAD17047F8
:100BC0007047002001E001C1121F002AFBD17047CD
:100BD00086B0FFF7E5FBFFF73CFF1448816941F061
:100BE00080018161816901F080010491816941F096
:100BF0000401816180690E4D00F004004FF44074DF
:100C00000490002221462846FFF7B6FB0120CDE9DB
:100C100000400220039069462846FFF7B9FAFFF723
:100C2000B1FF00BFFFF76EFFFCE7000000100240BD
:100C3000001C01400000000000000000010203044D
:100C400006070809640C00080000002018000000D6
:100C5000B20B00087C0C00081800002010040000F3
:100C6000C20B0008000000000000000000A24A04BF
:0C0C700001000000100000000000000067
:0400000508000131BD
:00000001FF
