:020000040800F2
:1000000050060020AD020008F31D0008A71C0008E0
:10001000F11D0008A3030008BD0200080000000055
:10002000000000000000000000000000BF02000807
:10003000A503000800000000F51D0008F11F0008DE
:10004000C7020008C7020008C7020008C70200086C
:10005000C7020008C7020008C7020008C70200085C
:10006000C7020008C7020008C7020008C70200084C
:10007000C7020008C7020008C7020008C70200083C
:10008000C7020008C7020008C7020008C70200082C
:10009000C7020008C7020008C7020008C70200081C
:1000A000C7020008C7020008C7020008C70200080C
:1000B000C7020008C7020008C7020008C7020008FC
:1000C000C7020008C7020008C7020008C7020008EC
:1000D000C7020008C7020008D52A0008C7020008A6
:1000E000C7020008C702000800000000C70200089D
:1000F000C7020008C7020008C7020008C7020008BC
:10010000C7020008C7020008C7020008C7020008AB
:10011000C7020008C7020008C7020008C70200089B
:10012000C7020008C7020008C7020008C70200088B
:10013000C7020008C7020008C7020008C70200087B
:1001400000000000000000000000000000000000AF
:10015000C7020008C7020008C7020008C70200085B
:10016000C7020008C7020008C7020008C70200084B
:10017000C7020008C7020008C7020008000000000C
:10018000C7020008C7020008C7020008C70200082B
:10019000C7020008C7020008C7020008C70200081B
:1001A000C7020008C7020008C7020008C70200080B
:1001B000C7020008C7020008C7020008C7020008FB
:1001C000C7020008C7020008C7020008C7020008EB
:1001D000C7020008C7020008C7020008C7020008DB
:1001E000C7020008C7020008C7020008C7020008CB
:1001F000C7020008C7020008C7020008C7020008BB
:10020000C7020008C7020008C7020008C7020008AA
:10021000C7020008C7020008C7020008C70200089A
:10022000C7020008C7020008C7020008000000005B
:10023000C7020008C702000800000000C70200084B
:10024000C7020008C7020008C7020008C70200086A
:10025000C7020008C7020008C7020008C70200085A
:10026000C7020008C7020008C7020008C70200084A
:10027000C7020008C7020008C7020008000000000B
:10028000C702000800000000C702000800000000CC
:1002900000000000C7020008DFF80CD000F068F88A
:1002A00000480047712B0008500600200648804790
:1002B00006480047FEE7FEE7FEE7FEE7FEE7FEE74B
:1002C000FEE7FEE7FEE7FEE7BD2000089902000812
:1002D0002DE9F05F0546002092469B46884606467B
:1002E000814640241BE0284641464746224600F00E
:1002F0002FF853465A46C01A914110D3114618465A
:10030000224600F016F82D1A67EB01084F462246E8
:100310000120002100F00DF817EB00094E41201ECE
:10032000A4F10104DFDC484631462A464346BDE8D5
:10033000F09F202A04DB203A00FA02F100207047E7
:100340009140C2F1200320FA03F319439040704713
:10035000202A04DB203A21FA02F00021704721FA1A
:1003600002F3D040C2F12002914008431946704781
:10037000064C074D06E0E06840F0010394E80700F2
:1003800098471034AC42F6D3FFF78AFFEC2B0008F5
:100390000C2C000810B501F0A1FFBDE8104002F0E0
:1003A00001B8FEE7704700002DE9F84F6F4D0022BD
:1003B0004FF001094FF0030E4FF00F0B0B6809FAD5
:1003C00002F803EA0803434574D14C68022C01D0BB
:1003D000122C0FD1D4080E69570700EB8404A246F3
:1003E000246AFF0E0BFA07FCBE4024EA0C042643E5
:1003F000CAF820600F79540006680EFA04FC07F072
:10040000030726EA0C06A740374307604E68012E13
:1004100005D0022E03D0112E01D0122E0FD18668E6
:10042000CF6826EA0C06A7403743876046680F79F5
:1004300026EA0806C7F30017974037434760C768A6
:100440008E6827EA0C07A6403E43C6604C68E4006D
:1004500030D5474C266846F002062660246822F014
:10046000030606F1B04604F0020400949407270F37
:10047000D6F80844DFF8FC800BFA07FC404524EA74
:100480000C0402D14FF0000C41E0DFF8ECC06045F5
:1004900002D14FF0010C3AE0DFF8E0C0604502D134
:1004A0004FF0020C33E0DFF8D8C0604503D14FF0C5
:1004B000030C2CE053E0DFF8CCC0604502D14FF0D4
:1004C000040C24E0DFF8C0C0604502D14FF0050CF9
:1004D0001DE0DFF8B8C0604502D14FF0060C16E011
:1004E000DFF8ACC0604502D14FF0070C0FE0DFF839
:1004F000A4C0604502D14FF0080C08E0DFF898C0B6
:10050000604502D14FF0090C01E04FF00A0C0CFAE3
:1005100007FC4CEA040CC6F808C42C684E6824EAB0
:100520000304F60300D51C432C606C684E6824EA73
:100530000304B60300D51C436C604FF0B0444F6811
:100540002668FF0226EA030600D51E4326604F6890
:100550006668BF0226EA030600D51E436660521C89
:10056000102AFFF42BAFBDE8F88F00008000005880
:10057000F4440258000002580004025800080258CF
:10058000000C0258001002580014025800180258BB
:10059000001C025800200258002402580AB10183AE
:1005A0007047418370470000014880687047000031
:1005B0003000002002488168027811448160704751
:1005C00030000020032010B500F090F8002000F06B
:1005D00007F808B1012010BD00F022F8002010BD7E
:1005E00070B50D4D04464FF47A700C4A29781268A4
:1005F000B0FBF1F0B2FBF0F001F063FA48B9102C57
:1006000007D200222146501E00F050F800206C60F6
:1006100070BD012070BD00003000002028000020C7
:100620001A4808B5016841F002010160006800F055
:1006300002000090032000F059F800226FF00B0038
:10064000114600F033F800226FF00A00114600F066
:100650002DF800226FF00900114600F027F8002263
:10066000501F114600F022F80022101F114600F022
:100670001DF80022901E114600F018F80022BDE877
:100680000840501E114600F011B80000F444025812
:10069000002809DB410900F01F028900012001F157
:1006A000E0219040C1F80001704700000E4BF0B40B
:1006B0001B680D46C3F30223C3F10706042E00D9BD
:1006C0000426191D072901D2002300E0DB1E0124A6
:1006D00004FA06F19C40491E2940641E99401440CA
:1006E0002143F0BC02F006BA0CED00E0064900F030
:1006F000070210B54FF6FF040868044B204040EA9B
:1007000002201843086010BD0CED00E00000FA055F
:1007100010B500F0DDFE08494FF480730A6893FAC3
:10072000A3F3064902F47062B3FA83F3DA40044B90
:100730009A5CD040086010BD184402582800002080
:10074000C42B000810B500F07DFE0749102209688F
:1007500092FAA2F201F07001B2FA82F2D140034A99
:10076000515CC84010BD000020440258C42B000852
:10077000424A30B5414D141D13681435DFED400A6F
:100780001268291FB7EE001A24682D6813F00303BE
:1007900004F01004C2F30532C5F3CC0515FB04F4D4
:1007A00000EE104AB8EE400A05D0364C012B5DD061
:1007B000022B5BD159E0314C334B283C2568AD0608
:1007C00015D525680C68C5F3C105C4F30804EB40D2
:1007D00001EE904AB3FBF2F2F8EE611A40EE201AF5
:1007E00000EE102A71EE810AB8EE400A10E00C68A3
:1007F000B3FBF2F2C4F3080401EE904AB8EE612AAA
:1008000001EE902A00EE202AB8EE610A72EE010A8B
:100810000A6820EE200AC2F34622521C00EE902AFB
:10082000F8EE600A80EE201AFCEEC10AC0ED000A64
:100830000A68C2F30642521C00EE902AF8EE600AE3
:1008400080EE201AFCEEC10AC0ED010A0968C1F36E
:100850000661491C00EE901AF8EE600A80EE201A3C
:10086000BCEEC10A80ED020A30BD084C0B68B4FB37
:10087000F2F2C3F3080301EE903ABFE728440258AE
:100880000000003900093D000090D00340787D0150
:10089000424A30B5414D141D13681C35DFED400A46
:1008A0001268291FB7EE001A24682D6813F003039D
:1008B00004F48074C2F30552C5F3CC0515FB04F4AF
:1008C00000EE104AB8EE400A05D0364C012B5DD040
:1008D000022B5BD159E0314C334B283C2568AD06E7
:1008E00015D525680C68C5F3C105C4F30804EB40B1
:1008F00001EE904AB3FBF2F2F8EE611A40EE201AD4
:1009000000EE102A71EE810AB8EE400A10E00C6881
:10091000B3FBF2F2C4F3080401EE904AB8EE612A88
:1009200001EE902A00EE202AB8EE610A72EE010A6A
:100930000A6820EE200AC2F34622521C00EE902ADA
:10094000F8EE600A80EE201AFCEEC10AC0ED000A43
:100950000A68C2F30642521C00EE902AF8EE600AC2
:1009600080EE201AFCEEC10AC0ED010A0968C1F34D
:100970000661491C00EE901AF8EE600A80EE201A1B
:10098000BCEEC10A80ED020A30BD084C0B68B4FB16
:10099000F2F2C3F3080301EE903ABFE7284402588D
:1009A0000000003900093D000090D00340787D012F
:1009B0002DE9FC5F044650F8241B002500902E46CC
:1009C0000801FE4FDFF8F8931DD5606E50B1B0F509
:1009D000801F0CD0B0F5001F0ED0B0F5401F1DD009
:1009E00001250FE0386840F40030386016E002213D
:1009F000201D01F001FA03E00098022101F07AFACB
:100A000005000BD02E462088C00523D5606D052833
:100A10001ED2DFE800F00C11161B1B00626ED9F825
:100A2000001021F440111143C9F80010EBE73868B9
:100A300040F40030386009E00021201D01F0DCF9AD
:100A400003E00098002101F055FA05466DB100E081
:100A500001252E432088800528D5A06D80281ED032
:100A60000CDC90B140280ED114E0626DD9F8001072
:100A700021F007011143C9F80010EBE7C02813D09B
:100A8000B0F5807F10D001250FE0386840F40030C9
:100A9000386009E00021201D01F0AEF903E0009864
:100AA000002101F027FA054695B12E432088DFF892
:100AB0001083400508F108082CD5D4F8A400B0F53F
:100AC000800F20D00DDCA0B1B0F5001F0FD115E0D4
:100AD000A26DD9F8001021F4E0711143C9F800109B
:100AE000E4E7B0F5C00F13D0B0F5000F10D001252A
:100AF0000FE0386840F40030386009E00021201D24
:100B000001F07AF903E00098002101F0F3F90546BD
:100B100075B12E43208800052DD5D4F8A800B0F17A
:100B2000007F21D00EDCA8B1B0F1807F10D116E09B
:100B3000D4F8A420D8F8001021F460011143C8F8BB
:100B40000010E7E7B0F1407F13D0B0F1806F10D014
:100B500001250FE0386840F40030386009E00021DA
:100B6000201D01F049F903E00098002101F0C2F9CD
:100B700005466DB12E43206880011FD5A06CD8B109
:100B800010280FD0202812D0302815D0012514E0CD
:100B9000D4F8A820D8F8001021F0E0611143C8F87B
:100BA0000010E8E7386840F40030386004E00221C3
:100BB000201D01F021F905466DB12E432088C004A7
:100BC0002BD5E06DB0F5005F20D00DDCA0B1B0F505
:100BD000805F0FD115E07A48A26C001F016821F0F8
:100BE000300111430160E9E7B0F5405F13D0B0F583
:100BF000804F10D001250FE0386840F40030386095
:100C000009E00021201D01F0F7F803E00098002121
:100C100001F070F9054685B12E432088800429D55E
:100C2000206EB0F5403F23D010DC08B3B0F5803F14
:100C300014D0B0F5003F0FD115E0E26DD9F80010E7
:100C400021F4E0411143C9F80010E6E7B0F5802F28
:100C50000ED0B0F5A02F0BD001250AE00121201DF8
:100C600001F0CAF803E00098012101F043F90546BC
:100C70008DB12E43208840042AD5D4F8AC00B0F1C1
:100C8000405F23D010DC08B3B0F1805F14D0B0F126
:100C9000005F0FD115E0226ED9F8001021F4E02199
:100CA0001143C9F80010E5E7B0F1804F0ED0B0F164
:100CB000A04F0BD001250AE00121201D01F09CF876
:100CC00003E00098012101F015F905466DB12E43AE
:100CD000208800041FD5E06ED8B1B0F1805F0ED03F
:100CE000B0F1005F10D0012514E0D4F8AC20D8F8A2
:100CF000001021F0E0411143C8F80010E8E738681F
:100D000040F40030386004E00121201D01F074F847
:100D100005466DB12E432068C0011ED5606CD0B170
:100D200001280ED0022811D0032814D0012513E089
:100D3000E26ED9F8001021F040511143C9F80010BB
:100D4000E9E7386840F40030386004E00221201DF3
:100D500001F052F8054685B12E432068DFF85CB0FB
:100D60004002ABF11C0B1FD51648016841F480719D
:100D70000160FFF719FC824610E01148626C001F09
:100D8000016821F0030111430160E6E7FFF70CFC65
:100D9000A0EB0A00642801D9032504E00948006893
:100DA000C005F3D5C5B12E432078DFF814A0C007E5
:100DB0000AF1040A79D0A06F182805E02C440258E3
:100DC00050440258004802586DD05BDCC0B308287C
:100DD0005ED010285AD161E0DFF880A4B4F8B010DA
:100DE000DAF8000001F4407100F44070884211D03C
:100DF000DAF80010DAF8002021F4407142F4803271
:100E0000CAF80020DAF8002022F48032CAF8002064
:100E1000CAF80010D4F8B000B0F5807F15D1FFF704
:100E2000C3FB01900DE000BFFFF7BEFB0199411A23
:100E300041F28830814204D9032546F00306B3E726
:100E400031E0DAF800008007EED5D4F8B010C1F335
:100E50000120032858460DD0016821F47C5101601F
:100E6000B4F8B020DAF80010C2F30B021143CAF84C
:100E7000001099E7FA4A036802EA111223F47C5140
:100E80001143ECE720280ED028280CD001250BE0D8
:100E90000121201D00F0B0FF04E006E000980121D0
:100EA00001F028F805465DB12E43207880071ED555
:100EB000606F062819D2DFE800F0160C111616161E
:100EC000A26FDAF8001021F038011143CAF80010BF
:100ED000EBE70121201D00F08FFF03E000980121C6
:100EE00001F008F8054675B100E001252E43207891
:100EF00040071FD5D4F89000062819D2DFE800F08B
:100F0000160C11161616626FDAF8001021F00701A0
:100F10001143CAF80010EAE70121201D00F06CFF20
:100F200003E00098012100F0E5FF05469DB100E0D7
:100F300001252E43207880062BD5D4F88C00B0F103
:100F4000405F24D011DC10B3B0F1805F15D0B0F158
:100F5000005F10D116E0D4F89020D8F8001021F0EE
:100F600007011143C8F80010E4E7B0F1804F0ED03C
:100F7000B0F1A04F0BD001250AE00021201D00F0A8
:100F80003BFF03E00098022100F0B4FF05468DB15D
:100F90002E43207840062BD5D4F89800B0F5406F4A
:100FA00024D011DC10B3B0F5806F15D0B0F5006F10
:100FB00010D116E0D4F88C20DAF8001021F0E041CE
:100FC0001143CAF80010E4E7B0F5805F0ED0B0F529
:100FD000A05F0BD001250AE00021201D00F00CFFCE
:100FE00003E00098022100F085FF05468DB12E43F5
:100FF000207800062BD5D4F89C00B0F5C04F24D043
:1010000011DC10B3B0F5005F15D0B0F5804F10D1F2
:1010100016E0D4F89820D8F8001021F4E0511143DC
:10102000C8F80010E4E7B0F5004F0ED0B0F5204F3F
:101030000BD001250AE00021201D00F0DDFE03E0B9
:101040000098022100F056FF054665B32E43207834
:1010500000070BD5D4F88010B1F5805F2DD0DAF8F9
:10106000002022F440520A43CAF800202078C0062B
:101070000BD5D4F89410B1F5807F24D0D8F8002097
:1010800022F440720A43C8F80020206800032CD5DF
:10109000D4F8A000E8B1B0F5803F1FD0B0F5003F14
:1010A00021D0012520E0D4F89C20D8F8001021F4AC
:1010B00060411143C8F80010C9E70098022100F010
:1010C00019FF0643D2E70098022100F013FF064300
:1010D000DBE70021201D00F08FFE03E000980221D5
:1010E00000F008FF054685B12E432068400322D555
:1010F000D4F88400B0F5801F11D0B0F5001F13D0D4
:10110000B0F5401F15D0012514E0D4F8A020D8F880
:10111000001021F440311143C8F80010E5E73868A9
:1011200040F40030386004E00098012100F0E2FE55
:10113000054655B12E432068C0031CD5E06C70B144
:10114000B0F5803F10D0012514E0D4F88420DAF8FF
:10115000001021F440111143CAF80010EBE7386881
:1011600040F40030386004E00221201D00F044FE0D
:101170000546C5B12E432068800004D500980221A1
:1011800000F0B8FE0643206880031BD5E06FB8B1BD
:10119000B0F5807F10D0B0F5007F11D0B0F5407F62
:1011A0000ED001250DE02D48E26C2438016821F4B1
:1011B000803111430160DEE7386840F40030386068
:1011C000F5B32E432068C00207D5226FD9F800106E
:1011D00021F000411143C9F800102068C00008D573
:1011E000D4F8B420DBF8001021F480411143CBF88F
:1011F00000102068800207D5A26ED9F8001021F0F7
:1012000080711143C9F80010206840000CD5DBF84C
:10121000001021F40041CBF80010DBF80010D4F8E6
:10122000B8201143CBF800102068002807DA0B48DB
:10123000226D2438016821F040511143016000E023
:1012400003E07EB10120BDE8FC9FE26FDAF80010F8
:1012500021F440711143CAF80010B3E770440258FA
:10126000CFFFFF000020EEE72DE9F047DFF8C49143
:1012700004460E46D9F8000000F00700B0420CD238
:10128000D9F8001021F007013143C9F80010D9F84E
:10129000000000F00700B04272D12078DFF898819A
:1012A000800707D5E268D8F8001021F00F0111433C
:1012B000C8F800102078C00767D05F49A368D8F845
:1012C0000020183922F470621A43C8F800206068C0
:1012D00002281CD003281DD0096801281DD0490709
:1012E000002963DA544D083D296821F007010143C4
:1012F0002960FFF759F96168074641F288300229F1
:1013000014D0032920D0012982462AD039E0096867
:101310008903E5E709688901E2E7C905E0E700BF5D
:10132000FFF742F9C11B514501D926E082462868E2
:10133000C0F3C2000228F3D127E000BFFFF734F961
:10134000C11B514501D918E082462868C0F3C2008C
:101350000328F3D119E000BFFFF726F9C11B51455F
:101360000BD82868C0F3C2000128F5D10DE000BFFA
:10137000FFF71AF9C11B514503D90320BDE8F087D7
:1013800014E0286810F0380FF2D1D9F80010484660
:1013900001F00701B1420BD9016821F00701314387
:1013A0000160006800F00700B04201D00120E5E7CD
:1013B0002078400707D52269D8F8001021F0700185
:1013C0001143C8F8001021781B48001D090705D5F6
:1013D0006269016821F07001114301602178C9063A
:1013E00005D5A269016821F4E0611143016020780C
:1013F000800607D51048E2690830016821F07001C5
:101400001143016000F064F8D8F800104FF48072C6
:1014100092FAA2F201F47061B2FA82F2D140074A64
:10142000515CC840064908600020FFF7D9F8002049
:10143000A4E700000020005218440258C42B000802
:101440002800002010B5FFF763F9084901230A6856
:1014500093FAA3F3064902F00F02B3FA83F3DA40DA
:10146000044B9A5CD040086010BD0000184402583C
:101470002C000020C42B000810B5FFF7E3FF07493C
:101480001022096892FAA2F201F07001B2FA82F217
:10149000D140034A515CC84010BD00001C440258B2
:1014A000C42B000810B5FFF7CDFF07494FF4807239
:1014B000096892FAA2F201F4E061B2FA82F2D14034
:1014C000024A515CC84010BD1C440258C42B00089D
:1014D0004749F0B547480968454B103B11F03804BF
:1014E00009D00111082C04D0434A102C0BD0182C21
:1014F0000BD00846F0BD19688906FBD51968C1F301
:10150000C101C840F0BD1046F0BD394CDFF8E0C065
:101510001834261D0CF1240C2768351D2468DFEDD6
:10152000370AB7EE001A3668DCF800C017F0030778
:1015300006F00106C4F30514CCF3CC0C1CFB06F634
:1015400000EE106AB8EE400A09D0012F01D0022F38
:101550003BD02868B1FBF4F1C0F308003AE0196809
:10156000890615D51A682968C2F3C102C1F30801BA
:10157000D04001EE901AB0FBF4F0F8EE611A40EEA4
:10158000201A00EE100A71EE810AB8EE400A0BE054
:101590002968B0FBF4F0C1F3080101EE901AB8EE2F
:1015A000612A01EE900A1BE020EE200A2868C0F3B1
:1015B0004620401C00EE900AF8EE600A80EE201AE9
:1015C000BCEEC10A10EE100AF0BD2868B2FBF4F1BF
:1015D000C0F3080001EE900AB8EE612A01EE901AFD
:1015E00000EE202AB8EE610A72EE010ADCE7000084
:1015F000104402580090D00340787D01000000396B
:101600002DE9F047FF4C05460078DFF8F883103CE1
:10161000FC4FC00708F118084CD03868C0F3C2006E
:1016200002281AD03868C0F3C200032805D1D8F8C0
:10163000000000F0030002280FD06868B0F5803F7A
:1016400012D010B1B0F5A02F18D0206820F480304F
:101650002060206820F4802009E02068800329D5DC
:101660006868002876D025E0206840F4803020604B
:10167000686890B1FEF798FF06460AE0206840F4DB
:1016800080202060F0E700BFFEF78EFF801B6428FB
:101690007ED820688003F7D50CE0FEF785FF06466C
:1016A00005E000BFFEF780FF801B6428F0D82068AB
:1016B0008003F7D42878D34E0C3E80075DD5386878
:1016C0004FF47C3A10F0380F13D03868C0F3C200E2
:1016D000032803D1D8F8000080070AD0E868C0B317
:1016E000216821F0190101432160FEF75DFF814669
:1016F00020E02068400702D5E8680028B2D0E968F9
:10170000206820F0190008432060FEF74DFF814655
:1017100006E000BFFEF748FFA0EB09000228B7D89B
:1017200020684007F6D508E0FEF73EFFA0EB090071
:101730000228ADD820684007F6D5286932689AFAA1
:10174000AAF1B1FA81F1884022F47C310143316081
:1017500013E000E0AAE0206820F001002060FEF71E
:1017600023FF814606E000BFFEF71EFFA0EB090045
:1017700002288DD820684007F6D42878C00649D5BD
:1017800038684FF0F84AC0F3C200012817D000E0D3
:10179000DAE03868C0F3C200032805D1D8F80000A9
:1017A00000F0030001280AD0E8690028206822D050
:1017B00040F080002060FEF7F7FE81460CE02068D4
:1017C000C0050CD5E869802870D108E0FEF7ECFE72
:1017D000A0EB09000228A2D82068C005F6D5286A27
:1017E00032689AFAAAF1B1FA81F1884022F0F84100
:1017F000014331600EE020F080002060FEF7D4FE4F
:10180000064604E0FEF7D0FE801B022887D8206839
:10181000C005F7D42878000729D57A48696964306B
:1018200000298146016811D041F001010160FEF7F5
:10183000BBFE064605E000BFFEF7B6FE801B022891
:1018400097D8D9F800008007F6D510E021F0010103
:101850000160FEF7A9FE064605E000BFFEF7A4FE04
:10186000801B022870D8D9F800008007F6D42878A9
:10187000800625D5A8690028206810D040F4805043
:101880002060FEF791FE064605E000BFFEF78CFEE5
:10189000801B022858D820688004F7D510E020F477
:1018A00080502060FEF780FE064606E0D7E000BFCD
:1018B000FEF77AFE801B022846D820688004F7D401
:1018C000287840074FD5DFF84091D9F8001041F44F
:1018D0008071C9F80010FEF767FE064605E000BFFC
:1018E000FEF762FE801B64282ED8D9F80000C005E0
:1018F000F6D5444EA868603601280AD008B10528FC
:1019000013D0306820F001003060306820F004000F
:1019100002E0306840F001003060A86841F2883A87
:1019200098B1FEF741FE81460AE0306840F00400BD
:101930003060EEE7FEF738FEA0EB0901514503D811
:1019400030688007F6D50EE088E0FEF72DFE814670
:1019500006E000BFFEF728FEA0EB090151457DD847
:1019600030688007F6D4686AE8B33968C1F3C20109
:10197000032974D00228206820F08070206003D0F2
:10198000FEF712FE054685E0FEF70EFE064604E071
:10199000FEF70AFE801B022879D820688001F7D460
:1019A000EB6A40F2F332D8F800104FF4FE0755F816
:1019B000286F914341EA03113143C8F80010287B96
:1019C0004FF0FE4C0F4EB5F8088040022B8A2036AF
:1019D0002A7DA8F10108311DA0F5007080B25B1EC0
:1019E000C8F3080800E058E0521E07EA034340EA43
:1019F000080018434FF6F8730CEA02621043306097
:101A00000A6803E0104402580048025893FAA3F70A
:101A10002E6A24489A43B7FA87F7BE4032430A60D9
:101A20000168AA6921F00C01114301600168EA69AB
:101A300021F0020111430160016841F4803101602D
:101A4000016841F400310160016841F480210160C6
:101A5000016841F001010160206801E017E01EE02B
:101A600040F080702060FEF79FFD054605E000BF56
:101A7000FEF79AFD401B022809D820688001F7D59F
:101A80000BE000BFFEF790FD401B022802D90320A7
:101A9000BDE8F08720688001F4D40020F8E7012039
:101AA000F6E700002C44025804284FF0E0200169BA
:101AB00003D021F004010161704741F00401FAE70D
:101AC0007047401EB0F1807F10B501D3012010BDDA
:101AD0004FF0E02460610F21601701F00BF8002047
:101AE000A0610721216110BD10B5FFF7E9FF10BD0E
:101AF00010B50068C169890613D50A4C818C0A4B60
:101B0000A088421C195490B2A080802801D30020E4
:101B1000A080FEF749FDE0600448018841F008011B
:101B2000018010BD180000204C010020C0000020E2
:101B300010B5040003D094F8790010B107E001203B
:101B400010BD002084F87800204600F027F82420FB
:101B500084F879002068016821F0010101602046C5
:101B600000F012FD0128EBD0606B10B1204600F0B0
:101B700078FC2068416821F49041416020688168C8
:101B800021F02A0181602068016841F001010160B3
:101B90002046BDE8104000F0C8BC000010B5006849
:101BA00086B0104988421BD10F48016841F40031CA
:101BB000016000680221012200F4003005900C2031
:101BC000002307248DE81F0008486946FEF7ECFB58
:101BD000002226201146FEF769FD2620FEF758FD5B
:101BE00006B010BD00440040E8440258000002580E
:101BF0002DE9F843044690F879001F4616460D4635
:101C000020284ED1C5B1BEB194F87800012848D043
:101C1000012284F8782021214FF00008C4F87C804C
:101C200084F879106034FEF7BFFC26808146668018
:101C3000603C4FF4805619E00120BDE8F88300BFF6
:101C4000B4F86200401EA4F8620000224B468021D6
:101C50002046009700F00CFFA0B9A068B04201D167
:101C6000206988B115F8010B21680885B4F8620075
:101C70000028E5D100224B4640212046009700F085
:101C8000F7FE38B10320D8E735F8020B2168C0F31E
:101C90000800EAE7202184F87910002084F8788091
:101CA000CBE70220C9E7FEE73A4870B586B0016885
:101CB00041F004010160016801F00401059101682F
:101CC00041F080010160016801F080010591016827
:101CD00041F001010160016801F001010591016815
:101CE00041F002010160016801F002010591016803
:101CF00041F008010160016801F0080105910168E7
:101D000041F04001016000680024234900F04000D8
:101D100005904FF400508DE8130020486946FEF707
:101D200043FB44F28100009001251D48CDE9015498
:101D300069460394FEF738FB072102264FF44070F2
:101D40000090CDE90164CDE9034116486946FEF7EC
:101D50002BFB40200090CDE90154134D69460394BC
:101D60002846FEF721FB80206946CDE9000428467D
:101D70000294FEF719FB0A214FF4E8500090CDE9D8
:101D80000164CDE9034109486946FEF70DFB06B041
:101D900070BD0000E0440258000011110008025814
:101DA00000040258000C02580018025800000258A3
:101DB0000E48002110B50C4C0C224FF4E1330460A6
:101DC000C0E90131C160C0E904128161C1610162F1
:101DD00041628162C16201634163FFF7A9FE00288D
:101DE00000D0FEE710BD000000440040400000208D
:101DF000FEE77047704700002DE9F0473C4E04466F
:101E000089464FF0000A3068C04380070AD0384D39
:101E1000283D286820F080602860FEF7C5FB074653
:101E2000A84608E00120BDE8F08700BFFEF7BCFB34
:101E3000C01B022855D8D8F800000001F6D420684D
:101E400031684FF4FE0C4FF0FE4721F47C3141EA3B
:101E500000303060207AA688A3894002244D761E87
:101E600023495B1E227C1035091DA0F5007080B24D
:101E7000521EC6F3080630430CEA0343184307EA30
:101E80000262104328600868626920F0C0001043B5
:101E900008600868A26920F0200010430860B9F1CA
:101EA000000F11D00868B9F1010F11D040F40010F3
:101EB0000860D8F80000444640F08060C8F8000090
:101EC000FEF772FB05460EE0086840F40020EFE7DD
:101ED00040F48010ECE700BFFEF766FB401B0228D1
:101EE00001D903209FE720680001F5D550469AE705
:101EF000284402582DE9F0473C4E044689464FF0ED
:101F0000000A3068C04380070AD0384D283D286851
:101F100020F080502860FEF747FB0746A84608E0FF
:101F20000120BDE8F08700BFFEF73EFBC01B022882
:101F300055D8D8F800008000F6D4208831684FF4D6
:101F4000FE0C4FF0FE4721F07C7141EA00503060FA
:101F5000207AA688A3894002244D761E23495B1E61
:101F6000227C1835091DA0F5007080B2521EC6F300
:101F7000080630430CEA0343184307EA02621043A1
:101F800028600868626920F44060104308600868AF
:101F9000A26920F4007010430860B9F1000F11D05D
:101FA0000868B9F1010F11D040F080700860D8F8CE
:101FB0000000444640F08050C8F80000FEF7F4FAF4
:101FC00005460EE0086840F48000EFE740F40000AA
:101FD000ECE700BFFEF7E8FA401B022801D9032016
:101FE0009FE720688000F5D550469AE728440258BC
:101FF00010B5FEF7DFFABDE81040FFF775BD000031
:102000002C4870B5CCB0016821F00401016029486A
:102010000C300024016841F440410160016801F482
:1020200040414A9101688904FCD53AAE02252F95BA
:10203000102133910120329004223223CDE938540B
:1020400086E82C000C203D953E95CDE93F042FA855
:102050004194FFF7D5FA00B1FEE7402008230601BE
:10206000CDE9453042ABCDE9470649903F210322F7
:1020700083E81600022142A8FFF7F6F800B1FEE758
:10208000684600951D94FEF793FC00B1FEE70A49EF
:102090004FF47A700968B1FBF0F0FFF712FD0420ED
:1020A000FFF702FD0022501E1146FEF7FFFA4CB06A
:1020B00070BD00000C480258280000201D4AF0B5F1
:1020C0001D49146800201C4B44F470041460103344
:1020D0000A681A4C42F001020A6018600D68164A3C
:1020E00025400D601832131D1C1D134D106028353E
:1020F00018602A1D2060131D1C1D2860251D1060FE
:102100002A1D1860131D20601C1D286010601860B7
:1021100020600A680124084B064FE606084D60332C
:10212000803F22F480220A601860C5F808413E60B2
:10213000F0BD000088ED00E0004402587FEDF6EAB3
:10214000008000512DE9F0412C4E3078C00727D097
:102150002B4C0A2742F2107520780A2828D00DDC73
:1021600000B302281CD1FEF71FFA6168401AA8428A
:1021700016D3308840F0020030800DE00C2824D0C7
:102180000E280DD1FEF710FA6168401AA84207D355
:1021900005211CA000F058F9FEF706FA60602770D0
:1021A000BDE8F081FEF7F6F8FEF7FEF9022121E026
:1021B000FEF7FAF96168401AA842F1D313A000F0C3
:1021C00091FCFEF7F1F90C2114E0FEF7EDF96168DE
:1021D000401AA842E4D30A49C8230E48062208310F
:1021E000FFF706FD18B145210BA000F079FCFEF7C2
:1021F000DBF90E2160602170D2E70000C0000020F2
:1022000000000020476F6F640A0000004170706C8E
:10221000650A0000400000202E2E5C5372635C743F
:1022200061736B5F626F6F742E6300000248002160
:1022300001704160704700000000002024482DE933
:10224000F0410078800725D5224C02262078E8B19D
:10225000214D02284FF4804841F288371CD00428D1
:1022600018D1FEF7A1F96168401AB84212D30022D2
:1022700028460121FEF792F9002228468021FEF728
:102280008DF9002241462846FEF788F9FEF78CF9C1
:1022900060602670BDE8F081FEF786F96168401A3B
:1022A000B842F7D3012228461146FEF777F90122FA
:1022B00028468021FEF772F9012241462846FEF7A2
:1022C0006DF9FEF771F9606004212170E2E700000A
:1022D000C0000020100000200004025810B50B4C74
:1022E000002201212046FEF759F9002220468021D4
:1022F000FEF754F9002220464FF48041FEF74EF9D4
:102300000348018821F00201018010BD0004025839
:10231000C0000020044810B500F06CF800F006F88A
:10232000BDE8104000F050B8400000202DE9F04119
:10233000194D0026194C287800070ED5FEF734F900
:10234000E168401AC82808D328882188618020F0D5
:102350000800268040F010002880A188E088814293
:1023600017D02978C90614D40D490D4F803F0A5C57
:10237000401C81B22088431C80293A54E18023808C
:1023800000D3E680FEF710F9E060288840F00800EE
:102390002880BDE8F0810000C00000201800002067
:1023A0004C01002006480021064A018141818180BC
:1023B000C1800180C160108820F018001080704733
:1023C00018000020C000002010B5074C2078C0067F
:1023D00008D506484188064800F036F8208820F0E5
:1023E0001000208010BD0000C00000201800002058
:1023F000CC00002009490B894A8993420DD000681E
:10240000C3695B0609D5064B9B5C521C92B20385DF
:10241000802A4A8101D3002048817047180000209B
:10242000CC010020064910B5064C0A89531C9BB20A
:10243000A054802B0B8101D30020088110BD000027
:1024400018000020CC01002070B500240D4606467F
:1024500004E0305DFFF7E6FF641CA4B2AC42F8D3A1
:1024600070BD90F83410C90706D00168836B4A68C4
:1024700022F400321A434A6090F83410890706D5D6
:102480000168C36B4A6822F480321A434A6090F8AC
:102490003410490706D50168036C4A6822F480228B
:1024A0001A434A6090F83410090706D50168436C56
:1024B0004A6822F400421A434A6090F83410C90670
:1024C00006D50168836C8A6822F480521A438A60B8
:1024D00090F83410890606D50168C36C8A6822F426
:1024E00000521A438A6090F83410490611D50168E9
:1024F000036D4A6822F480121A434A60016DB1F5F7
:10250000801F06D10168436D4A6822F4C0021A4355
:102510004A6090F83410090606D50168826D486853
:1025200020F40020104348607047F8B500260446A8
:10253000C667FEF739F8054620686FF07E470068E9
:10254000000708D500222B464FF4001120460097C3
:1025500000F08EFA60B92068006840070AD50022B2
:102560002B464FF480012046009700F081FA08B115
:102570000320F8BD202084F8790084F8786084F87E
:102580007A000020F8BD00002DE9F04F04460268F3
:10259000816887B0C369D4E90465806A3143F84E25
:1025A0001D4313682943DFF8DC930843802533403B
:1025B00000210343136020680F46E368426822F459
:1025C00040521A4342602368A0694B4501D0226AF9
:1025D0001043A26AB2F1005F03D1D4E90B26324363
:1025E0001043D3F808C0DFF8A083E84EE84A0CEAAD
:1025F000080C4CEA000CC3F808C02068D4F824C0CA
:10260000C36A23F00F0343EA0C03C3622068B0429D
:1026100010D1126802F03802182A74D005DCCAB34F
:10262000082A7AD0102A47D179E0202A7BD0282A9C
:102630007CD17AE0D74B984209D1126802F00702A8
:10264000062A73D2DFE802F053696B6D6F71D24BCB
:10265000984209D1126802F00702062A66D2DFE822
:1026600002F0465C5E606264CC4B984209D112680D
:1026700002F00702062A59D2DFE802F0394F51531F
:102680005557C74B98420BD1126802F00702062A31
:102690004CD200E00EE0DFE802F02A404244464817
:1026A000C04B984209D1126802F03802182A38D07B
:1026B000BBDCB4E74FF0010538E0BB4B984209D1D1
:1026C000126802F00702062A30D2DFE802F0102674
:1026D000282A2C2EB54B98420BD1126802F0070223
:1026E000062A23D2DFE802F003191B1D1F21002553
:1026F0001CE048451AD1A64A121D126802F00702D2
:10270000062A13D202E00CE007E00CE0DFE802F05A
:10271000030507090B0D022508E0042506E0402506
:1027200004E0082502E0102500E02025A04EDFF897
:1027300084A24845DFF880B27DD1102D31D006DC6F
:10274000022D09D0042D0AD0082D2FD111E0202D03
:1027500029D0402D2AD107E0FDF7F4FF13E06846A9
:10276000FEF706F801980EE003A8FEF791F804982A
:1027700009E0DBF800005946800610D50968C1F36E
:10278000C1012AFA01F0002811D06168894601EBE5
:10279000410181420AD8B0EB093F07D808E0504612
:1027A000F3E78648F1E74FF40040EEE7012759E1EF
:1027B000102D4FF000085BD006DC022D11D0042D47
:1027C00020D0082D04D13AE0202D57D0402D1ED026
:1027D00001277B4AA0F540719142E7D82168C86083
:1027E00040E1FDF7AFFF626A0023414636F8122050
:1027F000FDF76EFD6268090241EA10610346500868
:102800001B0216E06846FDF7B3FF019803E003A83A
:10281000FEF73EF804980023616A36F81120194645
:10282000FDF756FD626803461D0E50081B0245EA7F
:102830000121181800E036E041EB080114E0DBF854
:1028400000005946800609D509680023C1F3C1017B
:102850002AFA01F0616A36F8112015E0606A002357
:1028600036F8102050460FE00023FDF731FDB0E7A9
:10287000606A002336F81020504805E0606A0023A3
:1028800036F810204FF400400021FDF721FD0246EC
:102890004FEA5900130E120210184A4643EA01216A
:1028A00041EB0801E0E7E3694FF40042934257D15E
:1028B000082D2BD005DC95B1012D13D0042D06D1A8
:1028C00018E0102D3DD0202D43D0402D18D00127E9
:1028D000226821F00F00C1F3420108439CE0FEF79B
:1028E000CBFD01E0FEF7DEFD0146606A36F8102000
:1028F00060682BE06846FDF73BFF626A019922E0C1
:1029000003A8FDF7C5FF626A04991CE0DBF800101C
:102910005846626A890608D5036836F8122060684E
:10292000C3F3C1032AFA03F110E036F812206068FD
:10293000BAFBF2F1490001EB5001B1FBF0F081B2BA
:10294000C6E71E49626A606836F81220B1FBF2F1F0
:10295000F0E7616A606836F81110B2FBF1F1E9E75F
:10296000082D5BD02EDC55B1012D46D0042D7FF40F
:102970001DAF6846FDF7FCFE626A01992DE039E063
:10298000F369FFCF000C0058FFF4FF110010014065
:10299000544402580044004000480040004C0040AD
:1029A000005000400014014000780040007C0040CE
:1029B000D42B00080090D0030044025800093D00C9
:1029C000FFFC0F00102D3ED0202D3FD0402DCED14A
:1029D00003A8FDF75DFF626A0499D4E9003036F878
:1029E0001220B1FBF2F101EB5001B1FBF0F080B22B
:1029F000D86037E0FEF740FD01E0FEF753FD0146E9
:102A0000606A36F81030D4E90020B1FBF3F101EB35
:102A10005001B1FBF0F080B2D06023E0DBF8002081
:102A20005946636A920608D50D68616836F8133016
:102A3000C5F3C1042AFA04F20CE036F813306168D9
:102A4000BAFBF3F208E0094A636A00E0636A61686E
:102A500036F81330B2FBF3F202EB5102B2FBF1F1A4
:102A600089B2C16007B03846BDE8F08F00093D006B
:102A70002DE9F041984617460E460446069D1DE096
:102A8000681C1BD02DB1FDF78FFDA0EB0800A842FC
:102A900014D92168202000220B6823F4D0730B6026
:102AA00021688B6823F001038B6084F8790084F837
:102AB0007A00032084F87820BDE8F0812068C0699E
:102AC00036EA000004D00020B842D9D00020F3E755
:102AD0000120F9E70148FFF70BB800004000002093
:102AE000FEE70000014A024900F024B8592B000813
:102AF0003C000020090700284FEA116104DB00F1C7
:102B0000E02080F80014704700F00F0000F1E02092
:102B100080F8141D704702E008C8121F08C1002A7F
:102B2000FAD170477047002001E001C1121F002A4E
:102B3000FBD170472DE9F04116460F4604460025AB
:102B400003E03946B047641C6D1C20780028F8D19A
:102B50002846BDE8F081000013B5044801224FF675
:102B6000FF736946FFF744F800981CBD4000002041
:102B7000FDF728FDFFF744FA104942F2107009688A
:102B8000B1FBF0F0FEF79DFFFFF78EF8FFF710F9AD
:102B90000B480068016841F020010160FFF746FB27
:102BA00007488030018841F001010180FFF7CAFA2F
:102BB000FFF744FBFFF7AEFBF8E70000280000201A
:102BC0004000002000000000010203040102030491
:102BD00006070809010002000400060008000A00B8
:102BE0000C00100020004000800000010C2C0008A8
:102BF0000000002040000000162B00084C2C0008AC
:102C00004000002010060000262B000800000000F5
:102C100000000000496E74656C0A000000000000AE
:102C200000000000000000000000000000000000A4
:102C3000000000000090D0030090D00301000000CD
:0C2C400010000000000000000000000078
:040000050800029954
:00000001FF
